{"abi":[{"inputs":[{"internalType":"address","name":"_trsy","type":"address"},{"internalType":"address","name":"_registry","type":"address"}],"stateMutability":"nonpayable","type":"constructor","name":"constructor"},{"inputs":[],"name":"Error_Unauthorized","type":"error"},{"inputs":[{"internalType":"uint256","name":"available","type":"uint256"},{"internalType":"uint256","name":"required","type":"uint256"}],"name":"InsufficientBalance","type":"error"},{"anonymous":false,"inputs":[{"indexed":false,"internalType":"uint256","name":"endTime","type":"uint256"}],"name":"IncentiveOpen","type":"event"},{"anonymous":false,"inputs":[{"indexed":true,"internalType":"address","name":"depositor","type":"address"},{"indexed":false,"internalType":"address","name":"token","type":"address"},{"indexed":false,"internalType":"uint256","name":"amount","type":"uint256"},{"indexed":false,"internalType":"uint256","name":"usdValueDeposited","type":"uint256"},{"indexed":false,"internalType":"uint256","name":"sharesMinted","type":"uint256"}],"name":"TokenDeposited","type":"event"},{"inputs":[],"name":"TRSY","outputs":[{"internalType":"contract TRSYERC20","name":"","type":"address"}],"stateMutability":"view","type":"function"},{"inputs":[{"internalType":"uint256","name":"_amount","type":"uint256"},{"internalType":"address","name":"sender","type":"address"}],"name":"calculateTax","outputs":[{"internalType":"uint256","name":"","type":"uint256"}],"stateMutability":"view","type":"function"},{"inputs":[],"name":"closeIncentive","outputs":[],"stateMutability":"nonpayable","type":"function"},{"inputs":[{"internalType":"uint256","name":"_amount","type":"uint256"},{"internalType":"address","name":"_token","type":"address"}],"name":"deposit","outputs":[],"stateMutability":"nonpayable","type":"function"},{"inputs":[{"internalType":"uint256","name":"_amount","type":"uint256"},{"internalType":"address","name":"_token","type":"address"}],"name":"depositIncentive","outputs":[],"stateMutability":"nonpayable","type":"function"},{"inputs":[],"name":"endTime","outputs":[{"internalType":"uint256","name":"","type":"uint256"}],"stateMutability":"view","type":"function"},{"inputs":[],"name":"getIncentiveStatus","outputs":[{"internalType":"uint256","name":"","type":"uint256"}],"stateMutability":"view","type":"function"},{"inputs":[{"internalType":"uint256","name":"_amount","type":"uint256"}],"name":"getTRSYAmount","outputs":[{"internalType":"uint256","name":"","type":"uint256"}],"stateMutability":"view","type":"function"},{"inputs":[{"internalType":"uint256","name":"usdamt","type":"uint256"},{"internalType":"address","name":"pool","type":"address"}],"name":"getTokenAmount","outputs":[{"internalType":"uint256","name":"","type":"uint256"}],"stateMutability":"nonpayable","type":"function"},{"inputs":[{"internalType":"uint256","name":"trsyamt","type":"uint256"}],"name":"getWithdrawAmount","outputs":[{"internalType":"uint256","name":"","type":"uint256"}],"stateMutability":"view","type":"function"},{"inputs":[],"name":"incentive","outputs":[{"internalType":"enum Treasury.INCENTIVE","name":"","type":"uint8"}],"stateMutability":"view","type":"function"},{"inputs":[{"internalType":"address","name":"","type":"address"}],"name":"isRewardee","outputs":[{"internalType":"bool","name":"","type":"bool"}],"stateMutability":"view","type":"function"},{"inputs":[{"internalType":"address","name":"pool","type":"address"},{"internalType":"uint256","name":"amount","type":"uint256"}],"name":"makeConcentrationStruct","outputs":[{"components":[{"internalType":"uint256","name":"currentConcentration","type":"uint256"},{"internalType":"uint256","name":"targetConcentration","type":"uint256"},{"internalType":"uint256","name":"newConcentration","type":"uint256"},{"internalType":"uint256","name":"aum","type":"uint256"}],"internalType":"struct Treasury.Concentrations","name":"","type":"tuple"}],"stateMutability":"view","type":"function"},{"inputs":[],"name":"owner","outputs":[{"internalType":"address","name":"","type":"address"}],"stateMutability":"view","type":"function"},{"inputs":[{"internalType":"uint256","name":"percent","type":"uint256"}],"name":"ownerStartIncentive","outputs":[],"stateMutability":"nonpayable","type":"function"},{"inputs":[],"name":"registry","outputs":[{"internalType":"address","name":"","type":"address"}],"stateMutability":"view","type":"function"},{"inputs":[{"internalType":"uint256","name":"","type":"uint256"}],"name":"rewardees","outputs":[{"internalType":"address","name":"","type":"address"}],"stateMutability":"view","type":"function"},{"inputs":[{"internalType":"address","name":"","type":"address"}],"name":"timestamp","outputs":[{"internalType":"uint256","name":"","type":"uint256"}],"stateMutability":"view","type":"function"},{"inputs":[{"internalType":"address","name":"_token","type":"address"}],"name":"whitelistToken","outputs":[],"stateMutability":"nonpayable","type":"function"},{"inputs":[{"internalType":"address","name":"_user","type":"address"}],"name":"whitelistUser","outputs":[],"stateMutability":"nonpayable","type":"function"},{"inputs":[{"internalType":"address","name":"","type":"address"}],"name":"whitelistedTokens","outputs":[{"internalType":"bool","name":"","type":"bool"}],"stateMutability":"view","type":"function"},{"inputs":[{"internalType":"address","name":"","type":"address"}],"name":"whitelistedUsers","outputs":[{"internalType":"bool","name":"","type":"bool"}],"stateMutability":"view","type":"function"},{"inputs":[{"internalType":"uint256","name":"_amount","type":"uint256"}],"name":"withdraw","outputs":[],"stateMutability":"nonpayable","type":"function"}],"bytecode":"60a06040526008805460ff191660011790553480156200001e57600080fd5b506040516200257c3803806200257c833981016040819052620000419162000092565b60038054336001600160a01b031991821617909155600480549091166001600160a01b0392831617905516608052620000ca565b80516001600160a01b03811681146200008d57600080fd5b919050565b60008060408385031215620000a657600080fd5b620000b18362000075565b9150620000c16020840162000075565b90509250929050565b60805161243b620001416000396000818161025101528181610464015281816106220152818161078501528181610803015281816110af015281816111600152818161142a0152818161169c015281816117120152818161189301528181611a2e01528181611c2c0152611d43015261243b6000f3fe608060405234801561001057600080fd5b506004361061014d5760003560e01c80636247f6f2116100c35780638f29c7fb1161007c5780638f29c7fb1461031d578063bd0e4bdb14610330578063daf9c21014610343578063e445dc4314610366578063f621cc4814610379578063f87770f51461039c57600080fd5b80636247f6f21461029e5780636e553f65146102b15780636f3f6e2b146102c45780637302dacf146102d75780637b103999146102f75780638da5cb5b1461030a57600080fd5b8063288e070711610115578063288e0707146101e25780632e1a7d4d146101ea5780633197cbb6146101fd5780633999797c1461020657806345e166bd1461024c5780634a4c560d1461028b57600080fd5b806308f32bac146101525780630b62b7851461015c5780630e9ff97d146101945780631d4632ac146101b55780631f39a141146101cf575b600080fd5b61015a6103af565b005b61017f61016a366004611f5d565b60076020526000908152604090205460ff1681565b60405190151581526020015b60405180910390f35b6101a76101a2366004611f81565b6103f1565b60405190815260200161018b565b6008546101c29060ff1681565b60405161018b9190611fb0565b6101a76101dd366004611fd8565b610510565b6101a7610596565b61015a6101f8366004611f81565b6105b5565b6101a760055481565b610219610214366004612008565b610980565b60405161018b91908151815260208083015190820152604080830151908201526060918201519181019190915260800190565b6102737f000000000000000000000000000000000000000000000000000000000000000081565b6040516001600160a01b03909116815260200161018b565b61015a610299366004611f5d565b610bb4565b61015a6102ac366004611f5d565b610c06565b61015a6102bf366004611fd8565b610c55565b61015a6102d2366004611fd8565b611235565b6101a76102e5366004611f5d565b60006020819052908152604090205481565b600454610273906001600160a01b031681565b600354610273906001600160a01b031681565b61015a61032b366004611f81565b61192d565b6101a761033e366004611fd8565b611963565b61017f610351366004611f5d565b60026020526000908152604090205460ff1681565b6101a7610374366004611f81565b611a29565b61017f610387366004611f5d565b60016020526000908152604090205460ff1681565b6102736103aa366004611f81565b611b65565b6003546001600160a01b031633146103da5760405163da476dd760e01b815260040160405180910390fd5b6008805460ff191660011790556103ef611b8f565b565b6004805460408051635e6600dd60e11b8152905160009384936001600160a01b03169263bccc01ba92818301926020928290030181865afa15801561043a573d6000803e3d6000fd5b505050506040513d601f19601f8201168201806040525081019061045e9190612034565b905060007f00000000000000000000000000000000000000000000000000000000000000006001600160a01b03166318160ddd6040518163ffffffff1660e01b8152600401602060405180830381865afa1580156104c0573d6000803e3d6000fd5b505050506040513d601f19601f820116820180604052508101906104e49190612034565b9050811561050657816104f78286612063565b6105019190612098565b610508565b835b949350505050565b600080826001600160a01b03166398d5fdca6040518163ffffffff1660e01b81526004016020604051808303816000875af1158015610553573d6000803e3d6000fd5b505050506040513d601f19601f820116820180604052508101906105779190612034565b90508061058c85670de0b6b3a7640000612063565b6105089190612098565b60085460009060ff1660018111156105b0576105b0611f9a565b905090565b6000811161060a5760405162461bcd60e51b815260206004820152601d60248201527f416d6f756e74206d7573742062652067726561746572207468616e203000000060448201526064015b60405180910390fd5b6040516370a0823160e01b81523360048201526000907f00000000000000000000000000000000000000000000000000000000000000006001600160a01b0316906370a0823190602401602060405180830381865afa158015610671573d6000803e3d6000fd5b505050506040513d601f19601f820116820180604052508101906106959190612034565b9050818110156106c25760405163cf47918160e01b81526004810182905260248101839052604401610601565b60006106ce8333611963565b905060006106dc82856120ac565b905060006106e982611a29565b60048054604051633f41addd60e01b815291820183905291925060009182916001600160a01b0390911690633f41addd906024016000604051808303816000875af115801561073c573d6000803e3d6000fd5b505050506040513d6000823e601f3d908101601f191682016040526107649190810190612199565b604051632770a7eb60e21b8152336004820152602481018a905291935091507f00000000000000000000000000000000000000000000000000000000000000006001600160a01b031690639dc29fac90604401600060405180830381600087803b1580156107d157600080fd5b505af11580156107e5573d6000803e3d6000fd5b50506040516340c10f1960e01b8152306004820152602481018890527f00000000000000000000000000000000000000000000000000000000000000006001600160a01b031692506340c10f199150604401600060405180830381600087803b15801561085157600080fd5b505af1158015610865573d6000803e3d6000fd5b505083519150600090505b818110156109755760006001600160a01b03168482815181106108955761089561225e565b60200260200101516001600160a01b03161461096d5760008482815181106108bf576108bf61225e565b6020026020010151905060006109078584815181106108e0576108e061225e565b60200260200101518785815181106108fa576108fa61225e565b6020026020010151610510565b6040516313c5035360e31b8152336004820152602481018290529091506001600160a01b03831690639e281a9890604401600060405180830381600087803b15801561095257600080fd5b505af1158015610966573d6000803e3d6000fd5b5050505050505b600101610870565b505050505050505050565b6109ab6040518060800160405280600081526020016000815260200160008152602001600081525090565b6109d66040518060800160405280600081526020016000815260200160008152602001600081525090565b600480546040516303e85d5f60e41b81526001600160a01b0387811693820193909352911690633e85d5f090602401602060405180830381865afa158015610a22573d6000803e3d6000fd5b505050506040513d601f19601f82011682018060405250810190610a469190612034565b81526004805460405163675c7c7160e01b81526001600160a01b038781169382019390935291169063675c7c7190602401602060405180830381865afa158015610a94573d6000803e3d6000fd5b505050506040513d601f19601f82011682018060405250810190610ab89190612034565b60208201526004805460405163c0f1cce560e01b81526001600160a01b03878116938201939093526024810186905291169063c0f1cce590604401602060405180830381865afa158015610b10573d6000803e3d6000fd5b505050506040513d601f19601f82011682018060405250810190610b349190612034565b604080830191909152600480548251635e6600dd60e11b815292516001600160a01b039091169263bccc01ba92818101926020929091908290030181865afa158015610b84573d6000803e3d6000fd5b505050506040513d601f19601f82011682018060405250810190610ba89190612034565b60608201529392505050565b6003546001600160a01b03163314610bdf5760405163da476dd760e01b815260040160405180910390fd5b6001600160a01b03166000908152600160208190526040909120805460ff19169091179055565b6003546001600160a01b03163314610c315760405163da476dd760e01b815260040160405180910390fd5b6001600160a01b03166000908152600260205260409020805460ff19166001179055565b3360009081526001602052604090205460ff16610cb45760405162461bcd60e51b815260206004820152601760248201527f55736572206973206e6f742077686974656c69737465640000000000000000006044820152606401610601565b6001600160a01b03811660009081526002602052604090205460ff16610d175760405162461bcd60e51b8152602060048201526018602482015277151bdad95b881a5cc81b9bdd081dda1a5d195b1a5cdd195960421b6044820152606401610601565b6004805460405163989796b560e01b81526001600160a01b03848116938201939093526000929091169063989796b590602401602060405180830381865afa158015610d67573d6000803e3d6000fd5b505050506040513d601f19601f82011682018060405250810190610d8b9190612274565b6040516337410c5560e11b8152600481018590529091506000906001600160a01b03831690636e8218aa90602401602060405180830381865afa158015610dd6573d6000803e3d6000fd5b505050506040513d601f19601f82011682018060405250810190610dfa9190612034565b9050670de0b6b3a76400008111610e535760405162461bcd60e51b815260206004820152601e60248201527f416d6f756e74206d7573742062652067726561746572207468616e20243100006044820152606401610601565b6000610e5f8383610980565b905069021e19e0c9bab24000008160600151118015610e815750606081015115155b15610f1b576020810151610e989062030d40612291565b815110610ee75760405162461bcd60e51b815260206004820152601960248201527f436f6e63656e74726174696f6e20697320746f6f2068696768000000000000006044820152606401610601565b6020810151610ef990620493e0612291565b816040015110610f1b5760405162461bcd60e51b8152600401610601906122a9565b6000620f4240610f2d8461c350612063565b610f379190612098565b905081602001518260400151118015610f5557508151604083015110155b8015610f6e575069021e19e0c9bab24000008260600151115b15610ff85760008260000151836020015110610fcd57620f42408084602001518560400151610f9d91906120ac565b610fa79087612063565b610fb19190612098565b610fbe90620124f8612063565b610fc89190612098565b610fe8565b620f4240610fde85620124f8612063565b610fe89190612098565b9050610ff48183612291565b9150505b6000611003846103f1565b90506000611010836103f1565b6040516323b872dd60e01b81523360048201526001600160a01b038881166024830152604482018b90529192506000918916906323b872dd906064016020604051808303816000875af115801561106b573d6000803e3d6000fd5b505050506040513d601f19601f8201168201806040525081019061108f91906122f1565b90508061109b57600080fd5b3360008181526020819052604090204290557f00000000000000000000000000000000000000000000000000000000000000006001600160a01b0316906340c10f19906110e885876120ac565b6040516001600160e01b031960e085901b1681526001600160a01b0390921660048301526024820152604401600060405180830381600087803b15801561112e57600080fd5b505af1158015611142573d6000803e3d6000fd5b50506040516340c10f1960e01b8152306004820152602481018590527f00000000000000000000000000000000000000000000000000000000000000006001600160a01b031692506340c10f199150604401600060405180830381600087803b1580156111ae57600080fd5b505af11580156111c2573d6000803e3d6000fd5b505050506111ce611de7565b337f71679b5d5f69dff565546f60cee51d6dec03589fa1630f5ef175703477b2113b898b896111fd87896120ac565b604080516001600160a01b039095168552602085019390935291830152606082015260800160405180910390a2505050505050505050565b6005544210611253576008805460ff19166001179055611253611b8f565b600060085460ff16600181111561126c5761126c611f9a565b1415611929576001600160a01b03811660009081526002602052604090205460ff166112d55760405162461bcd60e51b8152602060048201526018602482015277151bdad95b881a5cc81b9bdd081dda1a5d195b1a5cdd195960421b6044820152606401610601565b6004805460405163989796b560e01b81526001600160a01b03848116938201939093526000929091169063989796b590602401602060405180830381865afa158015611325573d6000803e3d6000fd5b505050506040513d601f19601f820116820180604052508101906113499190612274565b6040516337410c5560e11b8152600481018590529091506000906001600160a01b03831690636e8218aa90602401602060405180830381865afa158015611394573d6000803e3d6000fd5b505050506040513d601f19601f820116820180604052508101906113b89190612034565b9050670de0b6b3a764000081116114115760405162461bcd60e51b815260206004820152601e60248201527f416d6f756e74206d7573742062652067726561746572207468616e20243100006044820152606401610601565b6040516370a0823160e01b815230600482015261149d907f00000000000000000000000000000000000000000000000000000000000000006001600160a01b0316906370a0823190602401602060405180830381865afa158015611479573d6000803e3d6000fd5b505050506040513d601f19601f820116820180604052508101906103749190612034565b620f42406114ad8361c350612063565b6114b79190612098565b106115045760405162461bcd60e51b815260206004820152601c60248201527f416d6f756e742065786365656473206d617820696e63656e74697665000000006044820152606401610601565b60006115108383610980565b9050806020015181600001511061157c5760405162461bcd60e51b815260206004820152602a60248201527f506f6f6c20697320616c72656164792061626f76652074617267657420636f6e60448201526931b2b73a3930ba34b7b760b11b6064820152608401610601565b602081015161158e90620493e0612291565b8160400151106115b05760405162461bcd60e51b8152600401610601906122a9565b60006115bb836103f1565b90506000620f42406115cf8361c350612063565b6115d99190612098565b6040516323b872dd60e01b81523360048201526001600160a01b038781166024830152604482018a90529192506000918816906323b872dd906064016020604051808303816000875af1158015611634573d6000803e3d6000fd5b505050506040513d601f19601f8201168201806040525081019061165891906122f1565b90508061166457600080fd5b3360008181526020819052604090819020429055516340c10f1960e01b81526004810191909152602481018490526001600160a01b037f000000000000000000000000000000000000000000000000000000000000000016906340c10f1990604401600060405180830381600087803b1580156116e057600080fd5b505af11580156116f4573d6000803e3d6000fd5b505060405163a9059cbb60e01b8152336004820152602481018590527f00000000000000000000000000000000000000000000000000000000000000006001600160a01b0316925063a9059cbb91506044016020604051808303816000875af1158015611765573d6000803e3d6000fd5b505050506040513d601f19601f8201168201806040525081019061178991906122f1565b503360009081526007602052604090205460ff166117fe57336000818152600760205260408120805460ff191660019081179091556006805491820181559091527ff652222313e28459528d920b65115c16c04f3efc82aaedc97be59f3f377c0d3f0180546001600160a01b03191690911790555b6004805460405163fd192d7d60e01b8152612710928101929092526001600160a01b03169063fd192d7d90602401602060405180830381865afa158015611849573d6000803e3d6000fd5b505050506040513d601f19601f8201168201806040525081019061186d91906122f1565b158061190857506040516370a0823160e01b8152306004820152670de0b6b3a7640000907f00000000000000000000000000000000000000000000000000000000000000006001600160a01b0316906370a0823190602401602060405180830381865afa1580156118e2573d6000803e3d6000fd5b505050506040513d601f19601f820116820180604052508101906119069190612034565b105b15611922576008805460ff19166001179055611922611b8f565b5050505050505b5050565b6003546001600160a01b031633146119585760405163da476dd760e01b815260040160405180910390fd5b611960611e5f565b50565b600080620f424061197685612710612063565b6119809190612098565b6001600160a01b038416600090815260208190526040812054919250906119a790426120ac565b905060006119b86201518083612098565b9050601e8113611a1f57600062030d40601e6119d48483612313565b6119de9190612398565b6119e891906123c6565b905060006119f682826123c6565b9050620f4240611a06828a612063565b611a109190612098565b611a1a9086612291565b945050505b5090949350505050565b6000807f00000000000000000000000000000000000000000000000000000000000000006001600160a01b03166318160ddd6040518163ffffffff1660e01b8152600401602060405180830381865afa158015611a8a573d6000803e3d6000fd5b505050506040513d601f19601f82011682018060405250810190611aae9190612034565b611abb84620f4240612063565b611ac59190612098565b90506000600460009054906101000a90046001600160a01b03166001600160a01b031663bccc01ba6040518163ffffffff1660e01b8152600401602060405180830381865afa158015611b1c573d6000803e3d6000fd5b505050506040513d601f19601f82011682018060405250810190611b409190612034565b90506000620f4240611b528484612063565b611b5c9190612098565b95945050505050565b60068181548110611b7557600080fd5b6000918252602090912001546001600160a01b0316905081565b6000600460009054906101000a90046001600160a01b03166001600160a01b0316636730b68a6040518163ffffffff1660e01b8152600401602060405180830381865afa158015611be4573d6000803e3d6000fd5b505050506040513d601f19601f82011682018060405250810190611c089190612034565b9050617530811015611dc1576040516370a0823160e01b81523060048201526000907f00000000000000000000000000000000000000000000000000000000000000006001600160a01b0316906370a0823190602401602060405180830381865afa158015611c7b573d6000803e3d6000fd5b505050506040513d601f19601f82011682018060405250810190611c9f9190612034565b6006549091506000611cb18284612098565b905060005b82811015611dbc57600060068281548110611cd357611cd361225e565b6000918252602082200154600680546001600160a01b0390921693509084908110611d0057611d0061225e565b600091825260209091200180546001600160a01b0319166001600160a01b0392831617905560405163a9059cbb60e01b81528282166004820152602481018590527f00000000000000000000000000000000000000000000000000000000000000009091169063a9059cbb906044016020604051808303816000875af1158015611d8e573d6000803e3d6000fd5b505050506040513d601f19601f82011682018060405250810190611db291906122f1565b5050600101611cb6565b505050505b6040805160008152602081019182905251611dde91600691611ece565b50506000600555565b6004805460405163fd192d7d60e01b815261c350928101929092526001600160a01b03169063fd192d7d90602401602060405180830381865afa158015611e32573d6000803e3d6000fd5b505050506040513d601f19601f82011682018060405250810190611e5691906122f1565b156103ef576103ef5b600160085460ff166001811115611e7857611e78611f9a565b14156103ef576008805460ff19169055611e9442611c20612291565b60058190556040519081527f53cdd2de768fc162c7f36b7c98c45bb533d119f4fcab5a74e49ba3929f5cdcf29060200160405180910390a1565b828054828255906000526020600020908101928215611f23579160200282015b82811115611f2357825182546001600160a01b0319166001600160a01b03909116178255602090920191600190910190611eee565b50611f2f929150611f33565b5090565b5b80821115611f2f5760008155600101611f34565b6001600160a01b038116811461196057600080fd5b600060208284031215611f6f57600080fd5b8135611f7a81611f48565b9392505050565b600060208284031215611f9357600080fd5b5035919050565b634e487b7160e01b600052602160045260246000fd5b6020810160028310611fd257634e487b7160e01b600052602160045260246000fd5b91905290565b60008060408385031215611feb57600080fd5b823591506020830135611ffd81611f48565b809150509250929050565b6000806040838503121561201b57600080fd5b823561202681611f48565b946020939093013593505050565b60006020828403121561204657600080fd5b5051919050565b634e487b7160e01b600052601160045260246000fd5b600081600019048311821515161561207d5761207d61204d565b500290565b634e487b7160e01b600052601260045260246000fd5b6000826120a7576120a7612082565b500490565b6000828210156120be576120be61204d565b500390565b634e487b7160e01b600052604160045260246000fd5b604051601f8201601f1916810167ffffffffffffffff81118282101715612102576121026120c3565b604052919050565b600067ffffffffffffffff821115612124576121246120c3565b5060051b60200190565b600082601f83011261213f57600080fd5b8151602061215461214f8361210a565b6120d9565b82815260059290921b8401810191818101908684111561217357600080fd5b8286015b8481101561218e5780518352918301918301612177565b509695505050505050565b600080604083850312156121ac57600080fd5b825167ffffffffffffffff808211156121c457600080fd5b818501915085601f8301126121d857600080fd5b815160206121e861214f8361210a565b82815260059290921b8401810191818101908984111561220757600080fd5b948201945b8386101561222e57855161221f81611f48565b8252948201949082019061220c565b9188015191965090935050508082111561224757600080fd5b506122548582860161212e565b9150509250929050565b634e487b7160e01b600052603260045260246000fd5b60006020828403121561228657600080fd5b8151611f7a81611f48565b600082198211156122a4576122a461204d565b500190565b60208082526028908201527f546869732077696c6c206d616b652074686520706f6f6c20746f6f20636f6e63604082015267195b9d1c985d195960c21b606082015260800190565b60006020828403121561230357600080fd5b81518015158114611f7a57600080fd5b60006001600160ff1b03818413828413808216868404861116156123395761233961204d565b600160ff1b60008712828116878305891216156123585761235861204d565b600087129250878205871284841616156123745761237461204d565b8785058712818416161561238a5761238a61204d565b505050929093029392505050565b6000826123a7576123a7612082565b600160ff1b8214600019841416156123c1576123c161204d565b500590565b60008083128015600160ff1b8501841216156123e4576123e461204d565b6001600160ff1b03840183138116156123ff576123ff61204d565b5050039056fea2646970667358221220da632226ba84ed5ab7be81e6ba3e1eb66279e8c2b9f26dd32289d5a2dfafa7d964736f6c634300080c0033","bytecodeSha1":"ddc45e4ab3f9368f29b659ee334119c2151f5b21","compiler":{"evm_version":"istanbul","optimizer":{"enabled":true,"runs":200},"version":"0.8.12+commit.f00d7308"},"contractName":"Treasury","language":"Solidity","natspec":{"kind":"dev","methods":{"calculateTax(uint256,address)":{"details":"function  that calculates how much tax a user will pay on a withdrawal","params":{"_amount":"- amount of TRSY to be withdrawn","sender":"- user that is withdrawing"}},"deposit(uint256,address)":{"details":"function that allows a whitelisted user to deposit a whitelisted token into the treasury in exchange for TRSY","params":{"_amount":"- amount of token to be deposited","_token":"- token to be deposited"}},"getTRSYAmount(uint256)":{"details":"function to get how much TRSY a user will get for a certain amount of USD","params":{"_amount":"- amount of USD to be converted to TRSY"}},"getTokenAmount(uint256,address)":{"details":"calculate how many tokens a certain usd amount is worth ","params":{"pool":"- tokenPool","usdamt":"- dollar amount"}},"getWithdrawAmount(uint256)":{"details":"function to convert TRSY to usd","params":{"trsyamt":"- trsy amount "}},"makeConcentrationStruct(address,uint256)":{"details":"function that makes a concentration struct by calculating the new, current, aum and target concentration ","params":{"amount":"- new amount to be added to pool","pool":"- pool to make the struct for"}},"whitelistToken(address)":{"details":"function that adds a token to the whitelist"},"whitelistUser(address)":{"details":"function that adds a user to the whitelist"},"withdraw(uint256)":{"details":"function that allows a user to withdraw TRSY","params":{"_amount":"- amount of treasury to be withdrawn "}}},"version":1},"opcodes":"PUSH1 0x80 PUSH1 0x40 MSTORE CALLVALUE DUP1 ISZERO PUSH2 0x10 JUMPI PUSH1 0x0 DUP1 REVERT JUMPDEST POP PUSH1 0x4 CALLDATASIZE LT PUSH2 0x14D JUMPI PUSH1 0x0 CALLDATALOAD PUSH1 0xE0 SHR DUP1 PUSH4 0x6247F6F2 GT PUSH2 0xC3 JUMPI DUP1 PUSH4 0x8F29C7FB GT PUSH2 0x7C JUMPI DUP1 PUSH4 0x8F29C7FB EQ PUSH2 0x31D JUMPI DUP1 PUSH4 0xBD0E4BDB EQ PUSH2 0x330 JUMPI DUP1 PUSH4 0xDAF9C210 EQ PUSH2 0x343 JUMPI DUP1 PUSH4 0xE445DC43 EQ PUSH2 0x366 JUMPI DUP1 PUSH4 0xF621CC48 EQ PUSH2 0x379 JUMPI DUP1 PUSH4 0xF87770F5 EQ PUSH2 0x39C JUMPI PUSH1 0x0 DUP1 REVERT JUMPDEST DUP1 PUSH4 0x6247F6F2 EQ PUSH2 0x29E JUMPI DUP1 PUSH4 0x6E553F65 EQ PUSH2 0x2B1 JUMPI DUP1 PUSH4 0x6F3F6E2B EQ PUSH2 0x2C4 JUMPI DUP1 PUSH4 0x7302DACF EQ PUSH2 0x2D7 JUMPI DUP1 PUSH4 0x7B103999 EQ PUSH2 0x2F7 JUMPI DUP1 PUSH4 0x8DA5CB5B EQ PUSH2 0x30A JUMPI PUSH1 0x0 DUP1 REVERT JUMPDEST DUP1 PUSH4 0x288E0707 GT PUSH2 0x115 JUMPI DUP1 PUSH4 0x288E0707 EQ PUSH2 0x1E2 JUMPI DUP1 PUSH4 0x2E1A7D4D EQ PUSH2 0x1EA JUMPI DUP1 PUSH4 0x3197CBB6 EQ PUSH2 0x1FD JUMPI DUP1 PUSH4 0x3999797C EQ PUSH2 0x206 JUMPI DUP1 PUSH4 0x45E166BD EQ PUSH2 0x24C JUMPI DUP1 PUSH4 0x4A4C560D EQ PUSH2 0x28B JUMPI PUSH1 0x0 DUP1 REVERT JUMPDEST DUP1 PUSH4 0x8F32BAC EQ PUSH2 0x152 JUMPI DUP1 PUSH4 0xB62B785 EQ PUSH2 0x15C JUMPI DUP1 PUSH4 0xE9FF97D EQ PUSH2 0x194 JUMPI DUP1 PUSH4 0x1D4632AC EQ PUSH2 0x1B5 JUMPI DUP1 PUSH4 0x1F39A141 EQ PUSH2 0x1CF JUMPI JUMPDEST PUSH1 0x0 DUP1 REVERT JUMPDEST PUSH2 0x15A PUSH2 0x3AF JUMP JUMPDEST STOP JUMPDEST PUSH2 0x17F PUSH2 0x16A CALLDATASIZE PUSH1 0x4 PUSH2 0x1F5D JUMP JUMPDEST PUSH1 0x7 PUSH1 0x20 MSTORE PUSH1 0x0 SWAP1 DUP2 MSTORE PUSH1 0x40 SWAP1 KECCAK256 SLOAD PUSH1 0xFF AND DUP2 JUMP JUMPDEST PUSH1 0x40 MLOAD SWAP1 ISZERO ISZERO DUP2 MSTORE PUSH1 0x20 ADD JUMPDEST PUSH1 0x40 MLOAD DUP1 SWAP2 SUB SWAP1 RETURN JUMPDEST PUSH2 0x1A7 PUSH2 0x1A2 CALLDATASIZE PUSH1 0x4 PUSH2 0x1F81 JUMP JUMPDEST PUSH2 0x3F1 JUMP JUMPDEST PUSH1 0x40 MLOAD SWAP1 DUP2 MSTORE PUSH1 0x20 ADD PUSH2 0x18B JUMP JUMPDEST PUSH1 0x8 SLOAD PUSH2 0x1C2 SWAP1 PUSH1 0xFF AND DUP2 JUMP JUMPDEST PUSH1 0x40 MLOAD PUSH2 0x18B SWAP2 SWAP1 PUSH2 0x1FB0 JUMP JUMPDEST PUSH2 0x1A7 PUSH2 0x1DD CALLDATASIZE PUSH1 0x4 PUSH2 0x1FD8 JUMP JUMPDEST PUSH2 0x510 JUMP JUMPDEST PUSH2 0x1A7 PUSH2 0x596 JUMP JUMPDEST PUSH2 0x15A PUSH2 0x1F8 CALLDATASIZE PUSH1 0x4 PUSH2 0x1F81 JUMP JUMPDEST PUSH2 0x5B5 JUMP JUMPDEST PUSH2 0x1A7 PUSH1 0x5 SLOAD DUP2 JUMP JUMPDEST PUSH2 0x219 PUSH2 0x214 CALLDATASIZE PUSH1 0x4 PUSH2 0x2008 JUMP JUMPDEST PUSH2 0x980 JUMP JUMPDEST PUSH1 0x40 MLOAD PUSH2 0x18B SWAP2 SWAP1 DUP2 MLOAD DUP2 MSTORE PUSH1 0x20 DUP1 DUP4 ADD MLOAD SWAP1 DUP3 ADD MSTORE PUSH1 0x40 DUP1 DUP4 ADD MLOAD SWAP1 DUP3 ADD MSTORE PUSH1 0x60 SWAP2 DUP3 ADD MLOAD SWAP2 DUP2 ADD SWAP2 SWAP1 SWAP2 MSTORE PUSH1 0x80 ADD SWAP1 JUMP JUMPDEST PUSH2 0x273 PUSH32 0x0 DUP2 JUMP JUMPDEST PUSH1 0x40 MLOAD PUSH1 0x1 PUSH1 0x1 PUSH1 0xA0 SHL SUB SWAP1 SWAP2 AND DUP2 MSTORE PUSH1 0x20 ADD PUSH2 0x18B JUMP JUMPDEST PUSH2 0x15A PUSH2 0x299 CALLDATASIZE PUSH1 0x4 PUSH2 0x1F5D JUMP JUMPDEST PUSH2 0xBB4 JUMP JUMPDEST PUSH2 0x15A PUSH2 0x2AC CALLDATASIZE PUSH1 0x4 PUSH2 0x1F5D JUMP JUMPDEST PUSH2 0xC06 JUMP JUMPDEST PUSH2 0x15A PUSH2 0x2BF CALLDATASIZE PUSH1 0x4 PUSH2 0x1FD8 JUMP JUMPDEST PUSH2 0xC55 JUMP JUMPDEST PUSH2 0x15A PUSH2 0x2D2 CALLDATASIZE PUSH1 0x4 PUSH2 0x1FD8 JUMP JUMPDEST PUSH2 0x1235 JUMP JUMPDEST PUSH2 0x1A7 PUSH2 0x2E5 CALLDATASIZE PUSH1 0x4 PUSH2 0x1F5D JUMP JUMPDEST PUSH1 0x0 PUSH1 0x20 DUP2 SWAP1 MSTORE SWAP1 DUP2 MSTORE PUSH1 0x40 SWAP1 KECCAK256 SLOAD DUP2 JUMP JUMPDEST PUSH1 0x4 SLOAD PUSH2 0x273 SWAP1 PUSH1 0x1 PUSH1 0x1 PUSH1 0xA0 SHL SUB AND DUP2 JUMP JUMPDEST PUSH1 0x3 SLOAD PUSH2 0x273 SWAP1 PUSH1 0x1 PUSH1 0x1 PUSH1 0xA0 SHL SUB AND DUP2 JUMP JUMPDEST PUSH2 0x15A PUSH2 0x32B CALLDATASIZE PUSH1 0x4 PUSH2 0x1F81 JUMP JUMPDEST PUSH2 0x192D JUMP JUMPDEST PUSH2 0x1A7 PUSH2 0x33E CALLDATASIZE PUSH1 0x4 PUSH2 0x1FD8 JUMP JUMPDEST PUSH2 0x1963 JUMP JUMPDEST PUSH2 0x17F PUSH2 0x351 CALLDATASIZE PUSH1 0x4 PUSH2 0x1F5D JUMP JUMPDEST PUSH1 0x2 PUSH1 0x20 MSTORE PUSH1 0x0 SWAP1 DUP2 MSTORE PUSH1 0x40 SWAP1 KECCAK256 SLOAD PUSH1 0xFF AND DUP2 JUMP JUMPDEST PUSH2 0x1A7 PUSH2 0x374 CALLDATASIZE PUSH1 0x4 PUSH2 0x1F81 JUMP JUMPDEST PUSH2 0x1A29 JUMP JUMPDEST PUSH2 0x17F PUSH2 0x387 CALLDATASIZE PUSH1 0x4 PUSH2 0x1F5D JUMP JUMPDEST PUSH1 0x1 PUSH1 0x20 MSTORE PUSH1 0x0 SWAP1 DUP2 MSTORE PUSH1 0x40 SWAP1 KECCAK256 SLOAD PUSH1 0xFF AND DUP2 JUMP JUMPDEST PUSH2 0x273 PUSH2 0x3AA CALLDATASIZE PUSH1 0x4 PUSH2 0x1F81 JUMP JUMPDEST PUSH2 0x1B65 JUMP JUMPDEST PUSH1 0x3 SLOAD PUSH1 0x1 PUSH1 0x1 PUSH1 0xA0 SHL SUB AND CALLER EQ PUSH2 0x3DA JUMPI PUSH1 0x40 MLOAD PUSH4 0xDA476DD7 PUSH1 0xE0 SHL DUP2 MSTORE PUSH1 0x4 ADD PUSH1 0x40 MLOAD DUP1 SWAP2 SUB SWAP1 REVERT JUMPDEST PUSH1 0x8 DUP1 SLOAD PUSH1 0xFF NOT AND PUSH1 0x1 OR SWAP1 SSTORE PUSH2 0x3EF PUSH2 0x1B8F JUMP JUMPDEST JUMP JUMPDEST PUSH1 0x4 DUP1 SLOAD PUSH1 0x40 DUP1 MLOAD PUSH4 0x5E6600DD PUSH1 0xE1 SHL DUP2 MSTORE SWAP1 MLOAD PUSH1 0x0 SWAP4 DUP5 SWAP4 PUSH1 0x1 PUSH1 0x1 PUSH1 0xA0 SHL SUB AND SWAP3 PUSH4 0xBCCC01BA SWAP3 DUP2 DUP4 ADD SWAP3 PUSH1 0x20 SWAP3 DUP3 SWAP1 SUB ADD DUP2 DUP7 GAS STATICCALL ISZERO DUP1 ISZERO PUSH2 0x43A JUMPI RETURNDATASIZE PUSH1 0x0 DUP1 RETURNDATACOPY RETURNDATASIZE PUSH1 0x0 REVERT JUMPDEST POP POP POP POP PUSH1 0x40 MLOAD RETURNDATASIZE PUSH1 0x1F NOT PUSH1 0x1F DUP3 ADD AND DUP3 ADD DUP1 PUSH1 0x40 MSTORE POP DUP2 ADD SWAP1 PUSH2 0x45E SWAP2 SWAP1 PUSH2 0x2034 JUMP JUMPDEST SWAP1 POP PUSH1 0x0 PUSH32 0x0 PUSH1 0x1 PUSH1 0x1 PUSH1 0xA0 SHL SUB AND PUSH4 0x18160DDD PUSH1 0x40 MLOAD DUP2 PUSH4 0xFFFFFFFF AND PUSH1 0xE0 SHL DUP2 MSTORE PUSH1 0x4 ADD PUSH1 0x20 PUSH1 0x40 MLOAD DUP1 DUP4 SUB DUP2 DUP7 GAS STATICCALL ISZERO DUP1 ISZERO PUSH2 0x4C0 JUMPI RETURNDATASIZE PUSH1 0x0 DUP1 RETURNDATACOPY RETURNDATASIZE PUSH1 0x0 REVERT JUMPDEST POP POP POP POP PUSH1 0x40 MLOAD RETURNDATASIZE PUSH1 0x1F NOT PUSH1 0x1F DUP3 ADD AND DUP3 ADD DUP1 PUSH1 0x40 MSTORE POP DUP2 ADD SWAP1 PUSH2 0x4E4 SWAP2 SWAP1 PUSH2 0x2034 JUMP JUMPDEST SWAP1 POP DUP2 ISZERO PUSH2 0x506 JUMPI DUP2 PUSH2 0x4F7 DUP3 DUP7 PUSH2 0x2063 JUMP JUMPDEST PUSH2 0x501 SWAP2 SWAP1 PUSH2 0x2098 JUMP JUMPDEST PUSH2 0x508 JUMP JUMPDEST DUP4 JUMPDEST SWAP5 SWAP4 POP POP POP POP JUMP JUMPDEST PUSH1 0x0 DUP1 DUP3 PUSH1 0x1 PUSH1 0x1 PUSH1 0xA0 SHL SUB AND PUSH4 0x98D5FDCA PUSH1 0x40 MLOAD DUP2 PUSH4 0xFFFFFFFF AND PUSH1 0xE0 SHL DUP2 MSTORE PUSH1 0x4 ADD PUSH1 0x20 PUSH1 0x40 MLOAD DUP1 DUP4 SUB DUP2 PUSH1 0x0 DUP8 GAS CALL ISZERO DUP1 ISZERO PUSH2 0x553 JUMPI RETURNDATASIZE PUSH1 0x0 DUP1 RETURNDATACOPY RETURNDATASIZE PUSH1 0x0 REVERT JUMPDEST POP POP POP POP PUSH1 0x40 MLOAD RETURNDATASIZE PUSH1 0x1F NOT PUSH1 0x1F DUP3 ADD AND DUP3 ADD DUP1 PUSH1 0x40 MSTORE POP DUP2 ADD SWAP1 PUSH2 0x577 SWAP2 SWAP1 PUSH2 0x2034 JUMP JUMPDEST SWAP1 POP DUP1 PUSH2 0x58C DUP6 PUSH8 0xDE0B6B3A7640000 PUSH2 0x2063 JUMP JUMPDEST PUSH2 0x508 SWAP2 SWAP1 PUSH2 0x2098 JUMP JUMPDEST PUSH1 0x8 SLOAD PUSH1 0x0 SWAP1 PUSH1 0xFF AND PUSH1 0x1 DUP2 GT ISZERO PUSH2 0x5B0 JUMPI PUSH2 0x5B0 PUSH2 0x1F9A JUMP JUMPDEST SWAP1 POP SWAP1 JUMP JUMPDEST PUSH1 0x0 DUP2 GT PUSH2 0x60A JUMPI PUSH1 0x40 MLOAD PUSH3 0x461BCD PUSH1 0xE5 SHL DUP2 MSTORE PUSH1 0x20 PUSH1 0x4 DUP3 ADD MSTORE PUSH1 0x1D PUSH1 0x24 DUP3 ADD MSTORE PUSH32 0x416D6F756E74206D7573742062652067726561746572207468616E2030000000 PUSH1 0x44 DUP3 ADD MSTORE PUSH1 0x64 ADD JUMPDEST PUSH1 0x40 MLOAD DUP1 SWAP2 SUB SWAP1 REVERT JUMPDEST PUSH1 0x40 MLOAD PUSH4 0x70A08231 PUSH1 0xE0 SHL DUP2 MSTORE CALLER PUSH1 0x4 DUP3 ADD MSTORE PUSH1 0x0 SWAP1 PUSH32 0x0 PUSH1 0x1 PUSH1 0x1 PUSH1 0xA0 SHL SUB AND SWAP1 PUSH4 0x70A08231 SWAP1 PUSH1 0x24 ADD PUSH1 0x20 PUSH1 0x40 MLOAD DUP1 DUP4 SUB DUP2 DUP7 GAS STATICCALL ISZERO DUP1 ISZERO PUSH2 0x671 JUMPI RETURNDATASIZE PUSH1 0x0 DUP1 RETURNDATACOPY RETURNDATASIZE PUSH1 0x0 REVERT JUMPDEST POP POP POP POP PUSH1 0x40 MLOAD RETURNDATASIZE PUSH1 0x1F NOT PUSH1 0x1F DUP3 ADD AND DUP3 ADD DUP1 PUSH1 0x40 MSTORE POP DUP2 ADD SWAP1 PUSH2 0x695 SWAP2 SWAP1 PUSH2 0x2034 JUMP JUMPDEST SWAP1 POP DUP2 DUP2 LT ISZERO PUSH2 0x6C2 JUMPI PUSH1 0x40 MLOAD PUSH4 0xCF479181 PUSH1 0xE0 SHL DUP2 MSTORE PUSH1 0x4 DUP2 ADD DUP3 SWAP1 MSTORE PUSH1 0x24 DUP2 ADD DUP4 SWAP1 MSTORE PUSH1 0x44 ADD PUSH2 0x601 JUMP JUMPDEST PUSH1 0x0 PUSH2 0x6CE DUP4 CALLER PUSH2 0x1963 JUMP JUMPDEST SWAP1 POP PUSH1 0x0 PUSH2 0x6DC DUP3 DUP6 PUSH2 0x20AC JUMP JUMPDEST SWAP1 POP PUSH1 0x0 PUSH2 0x6E9 DUP3 PUSH2 0x1A29 JUMP JUMPDEST PUSH1 0x4 DUP1 SLOAD PUSH1 0x40 MLOAD PUSH4 0x3F41ADDD PUSH1 0xE0 SHL DUP2 MSTORE SWAP2 DUP3 ADD DUP4 SWAP1 MSTORE SWAP2 SWAP3 POP PUSH1 0x0 SWAP2 DUP3 SWAP2 PUSH1 0x1 PUSH1 0x1 PUSH1 0xA0 SHL SUB SWAP1 SWAP2 AND SWAP1 PUSH4 0x3F41ADDD SWAP1 PUSH1 0x24 ADD PUSH1 0x0 PUSH1 0x40 MLOAD DUP1 DUP4 SUB DUP2 PUSH1 0x0 DUP8 GAS CALL ISZERO DUP1 ISZERO PUSH2 0x73C JUMPI RETURNDATASIZE PUSH1 0x0 DUP1 RETURNDATACOPY RETURNDATASIZE PUSH1 0x0 REVERT JUMPDEST POP POP POP POP PUSH1 0x40 MLOAD RETURNDATASIZE PUSH1 0x0 DUP3 RETURNDATACOPY PUSH1 0x1F RETURNDATASIZE SWAP1 DUP2 ADD PUSH1 0x1F NOT AND DUP3 ADD PUSH1 0x40 MSTORE PUSH2 0x764 SWAP2 SWAP1 DUP2 ADD SWAP1 PUSH2 0x2199 JUMP JUMPDEST PUSH1 0x40 MLOAD PUSH4 0x2770A7EB PUSH1 0xE2 SHL DUP2 MSTORE CALLER PUSH1 0x4 DUP3 ADD MSTORE PUSH1 0x24 DUP2 ADD DUP11 SWAP1 MSTORE SWAP2 SWAP4 POP SWAP2 POP PUSH32 0x0 PUSH1 0x1 PUSH1 0x1 PUSH1 0xA0 SHL SUB AND SWAP1 PUSH4 0x9DC29FAC SWAP1 PUSH1 0x44 ADD PUSH1 0x0 PUSH1 0x40 MLOAD DUP1 DUP4 SUB DUP2 PUSH1 0x0 DUP8 DUP1 EXTCODESIZE ISZERO DUP1 ISZERO PUSH2 0x7D1 JUMPI PUSH1 0x0 DUP1 REVERT JUMPDEST POP GAS CALL ISZERO DUP1 ISZERO PUSH2 0x7E5 JUMPI RETURNDATASIZE PUSH1 0x0 DUP1 RETURNDATACOPY RETURNDATASIZE PUSH1 0x0 REVERT JUMPDEST POP POP PUSH1 0x40 MLOAD PUSH4 0x40C10F19 PUSH1 0xE0 SHL DUP2 MSTORE ADDRESS PUSH1 0x4 DUP3 ADD MSTORE PUSH1 0x24 DUP2 ADD DUP9 SWAP1 MSTORE PUSH32 0x0 PUSH1 0x1 PUSH1 0x1 PUSH1 0xA0 SHL SUB AND SWAP3 POP PUSH4 0x40C10F19 SWAP2 POP PUSH1 0x44 ADD PUSH1 0x0 PUSH1 0x40 MLOAD DUP1 DUP4 SUB DUP2 PUSH1 0x0 DUP8 DUP1 EXTCODESIZE ISZERO DUP1 ISZERO PUSH2 0x851 JUMPI PUSH1 0x0 DUP1 REVERT JUMPDEST POP GAS CALL ISZERO DUP1 ISZERO PUSH2 0x865 JUMPI RETURNDATASIZE PUSH1 0x0 DUP1 RETURNDATACOPY RETURNDATASIZE PUSH1 0x0 REVERT JUMPDEST POP POP DUP4 MLOAD SWAP2 POP PUSH1 0x0 SWAP1 POP JUMPDEST DUP2 DUP2 LT ISZERO PUSH2 0x975 JUMPI PUSH1 0x0 PUSH1 0x1 PUSH1 0x1 PUSH1 0xA0 SHL SUB AND DUP5 DUP3 DUP2 MLOAD DUP2 LT PUSH2 0x895 JUMPI PUSH2 0x895 PUSH2 0x225E JUMP JUMPDEST PUSH1 0x20 MUL PUSH1 0x20 ADD ADD MLOAD PUSH1 0x1 PUSH1 0x1 PUSH1 0xA0 SHL SUB AND EQ PUSH2 0x96D JUMPI PUSH1 0x0 DUP5 DUP3 DUP2 MLOAD DUP2 LT PUSH2 0x8BF JUMPI PUSH2 0x8BF PUSH2 0x225E JUMP JUMPDEST PUSH1 0x20 MUL PUSH1 0x20 ADD ADD MLOAD SWAP1 POP PUSH1 0x0 PUSH2 0x907 DUP6 DUP5 DUP2 MLOAD DUP2 LT PUSH2 0x8E0 JUMPI PUSH2 0x8E0 PUSH2 0x225E JUMP JUMPDEST PUSH1 0x20 MUL PUSH1 0x20 ADD ADD MLOAD DUP8 DUP6 DUP2 MLOAD DUP2 LT PUSH2 0x8FA JUMPI PUSH2 0x8FA PUSH2 0x225E JUMP JUMPDEST PUSH1 0x20 MUL PUSH1 0x20 ADD ADD MLOAD PUSH2 0x510 JUMP JUMPDEST PUSH1 0x40 MLOAD PUSH4 0x13C50353 PUSH1 0xE3 SHL DUP2 MSTORE CALLER PUSH1 0x4 DUP3 ADD MSTORE PUSH1 0x24 DUP2 ADD DUP3 SWAP1 MSTORE SWAP1 SWAP2 POP PUSH1 0x1 PUSH1 0x1 PUSH1 0xA0 SHL SUB DUP4 AND SWAP1 PUSH4 0x9E281A98 SWAP1 PUSH1 0x44 ADD PUSH1 0x0 PUSH1 0x40 MLOAD DUP1 DUP4 SUB DUP2 PUSH1 0x0 DUP8 DUP1 EXTCODESIZE ISZERO DUP1 ISZERO PUSH2 0x952 JUMPI PUSH1 0x0 DUP1 REVERT JUMPDEST POP GAS CALL ISZERO DUP1 ISZERO PUSH2 0x966 JUMPI RETURNDATASIZE PUSH1 0x0 DUP1 RETURNDATACOPY RETURNDATASIZE PUSH1 0x0 REVERT JUMPDEST POP POP POP POP POP POP JUMPDEST PUSH1 0x1 ADD PUSH2 0x870 JUMP JUMPDEST POP POP POP POP POP POP POP POP POP JUMP JUMPDEST PUSH2 0x9AB PUSH1 0x40 MLOAD DUP1 PUSH1 0x80 ADD PUSH1 0x40 MSTORE DUP1 PUSH1 0x0 DUP2 MSTORE PUSH1 0x20 ADD PUSH1 0x0 DUP2 MSTORE PUSH1 0x20 ADD PUSH1 0x0 DUP2 MSTORE PUSH1 0x20 ADD PUSH1 0x0 DUP2 MSTORE POP SWAP1 JUMP JUMPDEST PUSH2 0x9D6 PUSH1 0x40 MLOAD DUP1 PUSH1 0x80 ADD PUSH1 0x40 MSTORE DUP1 PUSH1 0x0 DUP2 MSTORE PUSH1 0x20 ADD PUSH1 0x0 DUP2 MSTORE PUSH1 0x20 ADD PUSH1 0x0 DUP2 MSTORE PUSH1 0x20 ADD PUSH1 0x0 DUP2 MSTORE POP SWAP1 JUMP JUMPDEST PUSH1 0x4 DUP1 SLOAD PUSH1 0x40 MLOAD PUSH4 0x3E85D5F PUSH1 0xE4 SHL DUP2 MSTORE PUSH1 0x1 PUSH1 0x1 PUSH1 0xA0 SHL SUB DUP8 DUP2 AND SWAP4 DUP3 ADD SWAP4 SWAP1 SWAP4 MSTORE SWAP2 AND SWAP1 PUSH4 0x3E85D5F0 SWAP1 PUSH1 0x24 ADD PUSH1 0x20 PUSH1 0x40 MLOAD DUP1 DUP4 SUB DUP2 DUP7 GAS STATICCALL ISZERO DUP1 ISZERO PUSH2 0xA22 JUMPI RETURNDATASIZE PUSH1 0x0 DUP1 RETURNDATACOPY RETURNDATASIZE PUSH1 0x0 REVERT JUMPDEST POP POP POP POP PUSH1 0x40 MLOAD RETURNDATASIZE PUSH1 0x1F NOT PUSH1 0x1F DUP3 ADD AND DUP3 ADD DUP1 PUSH1 0x40 MSTORE POP DUP2 ADD SWAP1 PUSH2 0xA46 SWAP2 SWAP1 PUSH2 0x2034 JUMP JUMPDEST DUP2 MSTORE PUSH1 0x4 DUP1 SLOAD PUSH1 0x40 MLOAD PUSH4 0x675C7C71 PUSH1 0xE0 SHL DUP2 MSTORE PUSH1 0x1 PUSH1 0x1 PUSH1 0xA0 SHL SUB DUP8 DUP2 AND SWAP4 DUP3 ADD SWAP4 SWAP1 SWAP4 MSTORE SWAP2 AND SWAP1 PUSH4 0x675C7C71 SWAP1 PUSH1 0x24 ADD PUSH1 0x20 PUSH1 0x40 MLOAD DUP1 DUP4 SUB DUP2 DUP7 GAS STATICCALL ISZERO DUP1 ISZERO PUSH2 0xA94 JUMPI RETURNDATASIZE PUSH1 0x0 DUP1 RETURNDATACOPY RETURNDATASIZE PUSH1 0x0 REVERT JUMPDEST POP POP POP POP PUSH1 0x40 MLOAD RETURNDATASIZE PUSH1 0x1F NOT PUSH1 0x1F DUP3 ADD AND DUP3 ADD DUP1 PUSH1 0x40 MSTORE POP DUP2 ADD SWAP1 PUSH2 0xAB8 SWAP2 SWAP1 PUSH2 0x2034 JUMP JUMPDEST PUSH1 0x20 DUP3 ADD MSTORE PUSH1 0x4 DUP1 SLOAD PUSH1 0x40 MLOAD PUSH4 0xC0F1CCE5 PUSH1 0xE0 SHL DUP2 MSTORE PUSH1 0x1 PUSH1 0x1 PUSH1 0xA0 SHL SUB DUP8 DUP2 AND SWAP4 DUP3 ADD SWAP4 SWAP1 SWAP4 MSTORE PUSH1 0x24 DUP2 ADD DUP7 SWAP1 MSTORE SWAP2 AND SWAP1 PUSH4 0xC0F1CCE5 SWAP1 PUSH1 0x44 ADD PUSH1 0x20 PUSH1 0x40 MLOAD DUP1 DUP4 SUB DUP2 DUP7 GAS STATICCALL ISZERO DUP1 ISZERO PUSH2 0xB10 JUMPI RETURNDATASIZE PUSH1 0x0 DUP1 RETURNDATACOPY RETURNDATASIZE PUSH1 0x0 REVERT JUMPDEST POP POP POP POP PUSH1 0x40 MLOAD RETURNDATASIZE PUSH1 0x1F NOT PUSH1 0x1F DUP3 ADD AND DUP3 ADD DUP1 PUSH1 0x40 MSTORE POP DUP2 ADD SWAP1 PUSH2 0xB34 SWAP2 SWAP1 PUSH2 0x2034 JUMP JUMPDEST PUSH1 0x40 DUP1 DUP4 ADD SWAP2 SWAP1 SWAP2 MSTORE PUSH1 0x4 DUP1 SLOAD DUP3 MLOAD PUSH4 0x5E6600DD PUSH1 0xE1 SHL DUP2 MSTORE SWAP3 MLOAD PUSH1 0x1 PUSH1 0x1 PUSH1 0xA0 SHL SUB SWAP1 SWAP2 AND SWAP3 PUSH4 0xBCCC01BA SWAP3 DUP2 DUP2 ADD SWAP3 PUSH1 0x20 SWAP3 SWAP1 SWAP2 SWAP1 DUP3 SWAP1 SUB ADD DUP2 DUP7 GAS STATICCALL ISZERO DUP1 ISZERO PUSH2 0xB84 JUMPI RETURNDATASIZE PUSH1 0x0 DUP1 RETURNDATACOPY RETURNDATASIZE PUSH1 0x0 REVERT JUMPDEST POP POP POP POP PUSH1 0x40 MLOAD RETURNDATASIZE PUSH1 0x1F NOT PUSH1 0x1F DUP3 ADD AND DUP3 ADD DUP1 PUSH1 0x40 MSTORE POP DUP2 ADD SWAP1 PUSH2 0xBA8 SWAP2 SWAP1 PUSH2 0x2034 JUMP JUMPDEST PUSH1 0x60 DUP3 ADD MSTORE SWAP4 SWAP3 POP POP POP JUMP JUMPDEST PUSH1 0x3 SLOAD PUSH1 0x1 PUSH1 0x1 PUSH1 0xA0 SHL SUB AND CALLER EQ PUSH2 0xBDF JUMPI PUSH1 0x40 MLOAD PUSH4 0xDA476DD7 PUSH1 0xE0 SHL DUP2 MSTORE PUSH1 0x4 ADD PUSH1 0x40 MLOAD DUP1 SWAP2 SUB SWAP1 REVERT JUMPDEST PUSH1 0x1 PUSH1 0x1 PUSH1 0xA0 SHL SUB AND PUSH1 0x0 SWAP1 DUP2 MSTORE PUSH1 0x1 PUSH1 0x20 DUP2 SWAP1 MSTORE PUSH1 0x40 SWAP1 SWAP2 KECCAK256 DUP1 SLOAD PUSH1 0xFF NOT AND SWAP1 SWAP2 OR SWAP1 SSTORE JUMP JUMPDEST PUSH1 0x3 SLOAD PUSH1 0x1 PUSH1 0x1 PUSH1 0xA0 SHL SUB AND CALLER EQ PUSH2 0xC31 JUMPI PUSH1 0x40 MLOAD PUSH4 0xDA476DD7 PUSH1 0xE0 SHL DUP2 MSTORE PUSH1 0x4 ADD PUSH1 0x40 MLOAD DUP1 SWAP2 SUB SWAP1 REVERT JUMPDEST PUSH1 0x1 PUSH1 0x1 PUSH1 0xA0 SHL SUB AND PUSH1 0x0 SWAP1 DUP2 MSTORE PUSH1 0x2 PUSH1 0x20 MSTORE PUSH1 0x40 SWAP1 KECCAK256 DUP1 SLOAD PUSH1 0xFF NOT AND PUSH1 0x1 OR SWAP1 SSTORE JUMP JUMPDEST CALLER PUSH1 0x0 SWAP1 DUP2 MSTORE PUSH1 0x1 PUSH1 0x20 MSTORE PUSH1 0x40 SWAP1 KECCAK256 SLOAD PUSH1 0xFF AND PUSH2 0xCB4 JUMPI PUSH1 0x40 MLOAD PUSH3 0x461BCD PUSH1 0xE5 SHL DUP2 MSTORE PUSH1 0x20 PUSH1 0x4 DUP3 ADD MSTORE PUSH1 0x17 PUSH1 0x24 DUP3 ADD MSTORE PUSH32 0x55736572206973206E6F742077686974656C6973746564000000000000000000 PUSH1 0x44 DUP3 ADD MSTORE PUSH1 0x64 ADD PUSH2 0x601 JUMP JUMPDEST PUSH1 0x1 PUSH1 0x1 PUSH1 0xA0 SHL SUB DUP2 AND PUSH1 0x0 SWAP1 DUP2 MSTORE PUSH1 0x2 PUSH1 0x20 MSTORE PUSH1 0x40 SWAP1 KECCAK256 SLOAD PUSH1 0xFF AND PUSH2 0xD17 JUMPI PUSH1 0x40 MLOAD PUSH3 0x461BCD PUSH1 0xE5 SHL DUP2 MSTORE PUSH1 0x20 PUSH1 0x4 DUP3 ADD MSTORE PUSH1 0x18 PUSH1 0x24 DUP3 ADD MSTORE PUSH24 0x151BDAD95B881A5CC81B9BDD081DDA1A5D195B1A5CDD1959 PUSH1 0x42 SHL PUSH1 0x44 DUP3 ADD MSTORE PUSH1 0x64 ADD PUSH2 0x601 JUMP JUMPDEST PUSH1 0x4 DUP1 SLOAD PUSH1 0x40 MLOAD PUSH4 0x989796B5 PUSH1 0xE0 SHL DUP2 MSTORE PUSH1 0x1 PUSH1 0x1 PUSH1 0xA0 SHL SUB DUP5 DUP2 AND SWAP4 DUP3 ADD SWAP4 SWAP1 SWAP4 MSTORE PUSH1 0x0 SWAP3 SWAP1 SWAP2 AND SWAP1 PUSH4 0x989796B5 SWAP1 PUSH1 0x24 ADD PUSH1 0x20 PUSH1 0x40 MLOAD DUP1 DUP4 SUB DUP2 DUP7 GAS STATICCALL ISZERO DUP1 ISZERO PUSH2 0xD67 JUMPI RETURNDATASIZE PUSH1 0x0 DUP1 RETURNDATACOPY RETURNDATASIZE PUSH1 0x0 REVERT JUMPDEST POP POP POP POP PUSH1 0x40 MLOAD RETURNDATASIZE PUSH1 0x1F NOT PUSH1 0x1F DUP3 ADD AND DUP3 ADD DUP1 PUSH1 0x40 MSTORE POP DUP2 ADD SWAP1 PUSH2 0xD8B SWAP2 SWAP1 PUSH2 0x2274 JUMP JUMPDEST PUSH1 0x40 MLOAD PUSH4 0x37410C55 PUSH1 0xE1 SHL DUP2 MSTORE PUSH1 0x4 DUP2 ADD DUP6 SWAP1 MSTORE SWAP1 SWAP2 POP PUSH1 0x0 SWAP1 PUSH1 0x1 PUSH1 0x1 PUSH1 0xA0 SHL SUB DUP4 AND SWAP1 PUSH4 0x6E8218AA SWAP1 PUSH1 0x24 ADD PUSH1 0x20 PUSH1 0x40 MLOAD DUP1 DUP4 SUB DUP2 DUP7 GAS STATICCALL ISZERO DUP1 ISZERO PUSH2 0xDD6 JUMPI RETURNDATASIZE PUSH1 0x0 DUP1 RETURNDATACOPY RETURNDATASIZE PUSH1 0x0 REVERT JUMPDEST POP POP POP POP PUSH1 0x40 MLOAD RETURNDATASIZE PUSH1 0x1F NOT PUSH1 0x1F DUP3 ADD AND DUP3 ADD DUP1 PUSH1 0x40 MSTORE POP DUP2 ADD SWAP1 PUSH2 0xDFA SWAP2 SWAP1 PUSH2 0x2034 JUMP JUMPDEST SWAP1 POP PUSH8 0xDE0B6B3A7640000 DUP2 GT PUSH2 0xE53 JUMPI PUSH1 0x40 MLOAD PUSH3 0x461BCD PUSH1 0xE5 SHL DUP2 MSTORE PUSH1 0x20 PUSH1 0x4 DUP3 ADD MSTORE PUSH1 0x1E PUSH1 0x24 DUP3 ADD MSTORE PUSH32 0x416D6F756E74206D7573742062652067726561746572207468616E2024310000 PUSH1 0x44 DUP3 ADD MSTORE PUSH1 0x64 ADD PUSH2 0x601 JUMP JUMPDEST PUSH1 0x0 PUSH2 0xE5F DUP4 DUP4 PUSH2 0x980 JUMP JUMPDEST SWAP1 POP PUSH10 0x21E19E0C9BAB2400000 DUP2 PUSH1 0x60 ADD MLOAD GT DUP1 ISZERO PUSH2 0xE81 JUMPI POP PUSH1 0x60 DUP2 ADD MLOAD ISZERO ISZERO JUMPDEST ISZERO PUSH2 0xF1B JUMPI PUSH1 0x20 DUP2 ADD MLOAD PUSH2 0xE98 SWAP1 PUSH3 0x30D40 PUSH2 0x2291 JUMP JUMPDEST DUP2 MLOAD LT PUSH2 0xEE7 JUMPI PUSH1 0x40 MLOAD PUSH3 0x461BCD PUSH1 0xE5 SHL DUP2 MSTORE PUSH1 0x20 PUSH1 0x4 DUP3 ADD MSTORE PUSH1 0x19 PUSH1 0x24 DUP3 ADD MSTORE PUSH32 0x436F6E63656E74726174696F6E20697320746F6F206869676800000000000000 PUSH1 0x44 DUP3 ADD MSTORE PUSH1 0x64 ADD PUSH2 0x601 JUMP JUMPDEST PUSH1 0x20 DUP2 ADD MLOAD PUSH2 0xEF9 SWAP1 PUSH3 0x493E0 PUSH2 0x2291 JUMP JUMPDEST DUP2 PUSH1 0x40 ADD MLOAD LT PUSH2 0xF1B JUMPI PUSH1 0x40 MLOAD PUSH3 0x461BCD PUSH1 0xE5 SHL DUP2 MSTORE PUSH1 0x4 ADD PUSH2 0x601 SWAP1 PUSH2 0x22A9 JUMP JUMPDEST PUSH1 0x0 PUSH3 0xF4240 PUSH2 0xF2D DUP5 PUSH2 0xC350 PUSH2 0x2063 JUMP JUMPDEST PUSH2 0xF37 SWAP2 SWAP1 PUSH2 0x2098 JUMP JUMPDEST SWAP1 POP DUP2 PUSH1 0x20 ADD MLOAD DUP3 PUSH1 0x40 ADD MLOAD GT DUP1 ISZERO PUSH2 0xF55 JUMPI POP DUP2 MLOAD PUSH1 0x40 DUP4 ADD MLOAD LT ISZERO JUMPDEST DUP1 ISZERO PUSH2 0xF6E JUMPI POP PUSH10 0x21E19E0C9BAB2400000 DUP3 PUSH1 0x60 ADD MLOAD GT JUMPDEST ISZERO PUSH2 0xFF8 JUMPI PUSH1 0x0 DUP3 PUSH1 0x0 ADD MLOAD DUP4 PUSH1 0x20 ADD MLOAD LT PUSH2 0xFCD JUMPI PUSH3 0xF4240 DUP1 DUP5 PUSH1 0x20 ADD MLOAD DUP6 PUSH1 0x40 ADD MLOAD PUSH2 0xF9D SWAP2 SWAP1 PUSH2 0x20AC JUMP JUMPDEST PUSH2 0xFA7 SWAP1 DUP8 PUSH2 0x2063 JUMP JUMPDEST PUSH2 0xFB1 SWAP2 SWAP1 PUSH2 0x2098 JUMP JUMPDEST PUSH2 0xFBE SWAP1 PUSH3 0x124F8 PUSH2 0x2063 JUMP JUMPDEST PUSH2 0xFC8 SWAP2 SWAP1 PUSH2 0x2098 JUMP JUMPDEST PUSH2 0xFE8 JUMP JUMPDEST PUSH3 0xF4240 PUSH2 0xFDE DUP6 PUSH3 0x124F8 PUSH2 0x2063 JUMP JUMPDEST PUSH2 0xFE8 SWAP2 SWAP1 PUSH2 0x2098 JUMP JUMPDEST SWAP1 POP PUSH2 0xFF4 DUP2 DUP4 PUSH2 0x2291 JUMP JUMPDEST SWAP2 POP POP JUMPDEST PUSH1 0x0 PUSH2 0x1003 DUP5 PUSH2 0x3F1 JUMP JUMPDEST SWAP1 POP PUSH1 0x0 PUSH2 0x1010 DUP4 PUSH2 0x3F1 JUMP JUMPDEST PUSH1 0x40 MLOAD PUSH4 0x23B872DD PUSH1 0xE0 SHL DUP2 MSTORE CALLER PUSH1 0x4 DUP3 ADD MSTORE PUSH1 0x1 PUSH1 0x1 PUSH1 0xA0 SHL SUB DUP9 DUP2 AND PUSH1 0x24 DUP4 ADD MSTORE PUSH1 0x44 DUP3 ADD DUP12 SWAP1 MSTORE SWAP2 SWAP3 POP PUSH1 0x0 SWAP2 DUP10 AND SWAP1 PUSH4 0x23B872DD SWAP1 PUSH1 0x64 ADD PUSH1 0x20 PUSH1 0x40 MLOAD DUP1 DUP4 SUB DUP2 PUSH1 0x0 DUP8 GAS CALL ISZERO DUP1 ISZERO PUSH2 0x106B JUMPI RETURNDATASIZE PUSH1 0x0 DUP1 RETURNDATACOPY RETURNDATASIZE PUSH1 0x0 REVERT JUMPDEST POP POP POP POP PUSH1 0x40 MLOAD RETURNDATASIZE PUSH1 0x1F NOT PUSH1 0x1F DUP3 ADD AND DUP3 ADD DUP1 PUSH1 0x40 MSTORE POP DUP2 ADD SWAP1 PUSH2 0x108F SWAP2 SWAP1 PUSH2 0x22F1 JUMP JUMPDEST SWAP1 POP DUP1 PUSH2 0x109B JUMPI PUSH1 0x0 DUP1 REVERT JUMPDEST CALLER PUSH1 0x0 DUP2 DUP2 MSTORE PUSH1 0x20 DUP2 SWAP1 MSTORE PUSH1 0x40 SWAP1 KECCAK256 TIMESTAMP SWAP1 SSTORE PUSH32 0x0 PUSH1 0x1 PUSH1 0x1 PUSH1 0xA0 SHL SUB AND SWAP1 PUSH4 0x40C10F19 SWAP1 PUSH2 0x10E8 DUP6 DUP8 PUSH2 0x20AC JUMP JUMPDEST PUSH1 0x40 MLOAD PUSH1 0x1 PUSH1 0x1 PUSH1 0xE0 SHL SUB NOT PUSH1 0xE0 DUP6 SWAP1 SHL AND DUP2 MSTORE PUSH1 0x1 PUSH1 0x1 PUSH1 0xA0 SHL SUB SWAP1 SWAP3 AND PUSH1 0x4 DUP4 ADD MSTORE PUSH1 0x24 DUP3 ADD MSTORE PUSH1 0x44 ADD PUSH1 0x0 PUSH1 0x40 MLOAD DUP1 DUP4 SUB DUP2 PUSH1 0x0 DUP8 DUP1 EXTCODESIZE ISZERO DUP1 ISZERO PUSH2 0x112E JUMPI PUSH1 0x0 DUP1 REVERT JUMPDEST POP GAS CALL ISZERO DUP1 ISZERO PUSH2 0x1142 JUMPI RETURNDATASIZE PUSH1 0x0 DUP1 RETURNDATACOPY RETURNDATASIZE PUSH1 0x0 REVERT JUMPDEST POP POP PUSH1 0x40 MLOAD PUSH4 0x40C10F19 PUSH1 0xE0 SHL DUP2 MSTORE ADDRESS PUSH1 0x4 DUP3 ADD MSTORE PUSH1 0x24 DUP2 ADD DUP6 SWAP1 MSTORE PUSH32 0x0 PUSH1 0x1 PUSH1 0x1 PUSH1 0xA0 SHL SUB AND SWAP3 POP PUSH4 0x40C10F19 SWAP2 POP PUSH1 0x44 ADD PUSH1 0x0 PUSH1 0x40 MLOAD DUP1 DUP4 SUB DUP2 PUSH1 0x0 DUP8 DUP1 EXTCODESIZE ISZERO DUP1 ISZERO PUSH2 0x11AE JUMPI PUSH1 0x0 DUP1 REVERT JUMPDEST POP GAS CALL ISZERO DUP1 ISZERO PUSH2 0x11C2 JUMPI RETURNDATASIZE PUSH1 0x0 DUP1 RETURNDATACOPY RETURNDATASIZE PUSH1 0x0 REVERT JUMPDEST POP POP POP POP PUSH2 0x11CE PUSH2 0x1DE7 JUMP JUMPDEST CALLER PUSH32 0x71679B5D5F69DFF565546F60CEE51D6DEC03589FA1630F5EF175703477B2113B DUP10 DUP12 DUP10 PUSH2 0x11FD DUP8 DUP10 PUSH2 0x20AC JUMP JUMPDEST PUSH1 0x40 DUP1 MLOAD PUSH1 0x1 PUSH1 0x1 PUSH1 0xA0 SHL SUB SWAP1 SWAP6 AND DUP6 MSTORE PUSH1 0x20 DUP6 ADD SWAP4 SWAP1 SWAP4 MSTORE SWAP2 DUP4 ADD MSTORE PUSH1 0x60 DUP3 ADD MSTORE PUSH1 0x80 ADD PUSH1 0x40 MLOAD DUP1 SWAP2 SUB SWAP1 LOG2 POP POP POP POP POP POP POP POP POP JUMP JUMPDEST PUSH1 0x5 SLOAD TIMESTAMP LT PUSH2 0x1253 JUMPI PUSH1 0x8 DUP1 SLOAD PUSH1 0xFF NOT AND PUSH1 0x1 OR SWAP1 SSTORE PUSH2 0x1253 PUSH2 0x1B8F JUMP JUMPDEST PUSH1 0x0 PUSH1 0x8 SLOAD PUSH1 0xFF AND PUSH1 0x1 DUP2 GT ISZERO PUSH2 0x126C JUMPI PUSH2 0x126C PUSH2 0x1F9A JUMP JUMPDEST EQ ISZERO PUSH2 0x1929 JUMPI PUSH1 0x1 PUSH1 0x1 PUSH1 0xA0 SHL SUB DUP2 AND PUSH1 0x0 SWAP1 DUP2 MSTORE PUSH1 0x2 PUSH1 0x20 MSTORE PUSH1 0x40 SWAP1 KECCAK256 SLOAD PUSH1 0xFF AND PUSH2 0x12D5 JUMPI PUSH1 0x40 MLOAD PUSH3 0x461BCD PUSH1 0xE5 SHL DUP2 MSTORE PUSH1 0x20 PUSH1 0x4 DUP3 ADD MSTORE PUSH1 0x18 PUSH1 0x24 DUP3 ADD MSTORE PUSH24 0x151BDAD95B881A5CC81B9BDD081DDA1A5D195B1A5CDD1959 PUSH1 0x42 SHL PUSH1 0x44 DUP3 ADD MSTORE PUSH1 0x64 ADD PUSH2 0x601 JUMP JUMPDEST PUSH1 0x4 DUP1 SLOAD PUSH1 0x40 MLOAD PUSH4 0x989796B5 PUSH1 0xE0 SHL DUP2 MSTORE PUSH1 0x1 PUSH1 0x1 PUSH1 0xA0 SHL SUB DUP5 DUP2 AND SWAP4 DUP3 ADD SWAP4 SWAP1 SWAP4 MSTORE PUSH1 0x0 SWAP3 SWAP1 SWAP2 AND SWAP1 PUSH4 0x989796B5 SWAP1 PUSH1 0x24 ADD PUSH1 0x20 PUSH1 0x40 MLOAD DUP1 DUP4 SUB DUP2 DUP7 GAS STATICCALL ISZERO DUP1 ISZERO PUSH2 0x1325 JUMPI RETURNDATASIZE PUSH1 0x0 DUP1 RETURNDATACOPY RETURNDATASIZE PUSH1 0x0 REVERT JUMPDEST POP POP POP POP PUSH1 0x40 MLOAD RETURNDATASIZE PUSH1 0x1F NOT PUSH1 0x1F DUP3 ADD AND DUP3 ADD DUP1 PUSH1 0x40 MSTORE POP DUP2 ADD SWAP1 PUSH2 0x1349 SWAP2 SWAP1 PUSH2 0x2274 JUMP JUMPDEST PUSH1 0x40 MLOAD PUSH4 0x37410C55 PUSH1 0xE1 SHL DUP2 MSTORE PUSH1 0x4 DUP2 ADD DUP6 SWAP1 MSTORE SWAP1 SWAP2 POP PUSH1 0x0 SWAP1 PUSH1 0x1 PUSH1 0x1 PUSH1 0xA0 SHL SUB DUP4 AND SWAP1 PUSH4 0x6E8218AA SWAP1 PUSH1 0x24 ADD PUSH1 0x20 PUSH1 0x40 MLOAD DUP1 DUP4 SUB DUP2 DUP7 GAS STATICCALL ISZERO DUP1 ISZERO PUSH2 0x1394 JUMPI RETURNDATASIZE PUSH1 0x0 DUP1 RETURNDATACOPY RETURNDATASIZE PUSH1 0x0 REVERT JUMPDEST POP POP POP POP PUSH1 0x40 MLOAD RETURNDATASIZE PUSH1 0x1F NOT PUSH1 0x1F DUP3 ADD AND DUP3 ADD DUP1 PUSH1 0x40 MSTORE POP DUP2 ADD SWAP1 PUSH2 0x13B8 SWAP2 SWAP1 PUSH2 0x2034 JUMP JUMPDEST SWAP1 POP PUSH8 0xDE0B6B3A7640000 DUP2 GT PUSH2 0x1411 JUMPI PUSH1 0x40 MLOAD PUSH3 0x461BCD PUSH1 0xE5 SHL DUP2 MSTORE PUSH1 0x20 PUSH1 0x4 DUP3 ADD MSTORE PUSH1 0x1E PUSH1 0x24 DUP3 ADD MSTORE PUSH32 0x416D6F756E74206D7573742062652067726561746572207468616E2024310000 PUSH1 0x44 DUP3 ADD MSTORE PUSH1 0x64 ADD PUSH2 0x601 JUMP JUMPDEST PUSH1 0x40 MLOAD PUSH4 0x70A08231 PUSH1 0xE0 SHL DUP2 MSTORE ADDRESS PUSH1 0x4 DUP3 ADD MSTORE PUSH2 0x149D SWAP1 PUSH32 0x0 PUSH1 0x1 PUSH1 0x1 PUSH1 0xA0 SHL SUB AND SWAP1 PUSH4 0x70A08231 SWAP1 PUSH1 0x24 ADD PUSH1 0x20 PUSH1 0x40 MLOAD DUP1 DUP4 SUB DUP2 DUP7 GAS STATICCALL ISZERO DUP1 ISZERO PUSH2 0x1479 JUMPI RETURNDATASIZE PUSH1 0x0 DUP1 RETURNDATACOPY RETURNDATASIZE PUSH1 0x0 REVERT JUMPDEST POP POP POP POP PUSH1 0x40 MLOAD RETURNDATASIZE PUSH1 0x1F NOT PUSH1 0x1F DUP3 ADD AND DUP3 ADD DUP1 PUSH1 0x40 MSTORE POP DUP2 ADD SWAP1 PUSH2 0x374 SWAP2 SWAP1 PUSH2 0x2034 JUMP JUMPDEST PUSH3 0xF4240 PUSH2 0x14AD DUP4 PUSH2 0xC350 PUSH2 0x2063 JUMP JUMPDEST PUSH2 0x14B7 SWAP2 SWAP1 PUSH2 0x2098 JUMP JUMPDEST LT PUSH2 0x1504 JUMPI PUSH1 0x40 MLOAD PUSH3 0x461BCD PUSH1 0xE5 SHL DUP2 MSTORE PUSH1 0x20 PUSH1 0x4 DUP3 ADD MSTORE PUSH1 0x1C PUSH1 0x24 DUP3 ADD MSTORE PUSH32 0x416D6F756E742065786365656473206D617820696E63656E7469766500000000 PUSH1 0x44 DUP3 ADD MSTORE PUSH1 0x64 ADD PUSH2 0x601 JUMP JUMPDEST PUSH1 0x0 PUSH2 0x1510 DUP4 DUP4 PUSH2 0x980 JUMP JUMPDEST SWAP1 POP DUP1 PUSH1 0x20 ADD MLOAD DUP2 PUSH1 0x0 ADD MLOAD LT PUSH2 0x157C JUMPI PUSH1 0x40 MLOAD PUSH3 0x461BCD PUSH1 0xE5 SHL DUP2 MSTORE PUSH1 0x20 PUSH1 0x4 DUP3 ADD MSTORE PUSH1 0x2A PUSH1 0x24 DUP3 ADD MSTORE PUSH32 0x506F6F6C20697320616C72656164792061626F76652074617267657420636F6E PUSH1 0x44 DUP3 ADD MSTORE PUSH10 0x31B2B73A3930BA34B7B7 PUSH1 0xB1 SHL PUSH1 0x64 DUP3 ADD MSTORE PUSH1 0x84 ADD PUSH2 0x601 JUMP JUMPDEST PUSH1 0x20 DUP2 ADD MLOAD PUSH2 0x158E SWAP1 PUSH3 0x493E0 PUSH2 0x2291 JUMP JUMPDEST DUP2 PUSH1 0x40 ADD MLOAD LT PUSH2 0x15B0 JUMPI PUSH1 0x40 MLOAD PUSH3 0x461BCD PUSH1 0xE5 SHL DUP2 MSTORE PUSH1 0x4 ADD PUSH2 0x601 SWAP1 PUSH2 0x22A9 JUMP JUMPDEST PUSH1 0x0 PUSH2 0x15BB DUP4 PUSH2 0x3F1 JUMP JUMPDEST SWAP1 POP PUSH1 0x0 PUSH3 0xF4240 PUSH2 0x15CF DUP4 PUSH2 0xC350 PUSH2 0x2063 JUMP JUMPDEST PUSH2 0x15D9 SWAP2 SWAP1 PUSH2 0x2098 JUMP JUMPDEST PUSH1 0x40 MLOAD PUSH4 0x23B872DD PUSH1 0xE0 SHL DUP2 MSTORE CALLER PUSH1 0x4 DUP3 ADD MSTORE PUSH1 0x1 PUSH1 0x1 PUSH1 0xA0 SHL SUB DUP8 DUP2 AND PUSH1 0x24 DUP4 ADD MSTORE PUSH1 0x44 DUP3 ADD DUP11 SWAP1 MSTORE SWAP2 SWAP3 POP PUSH1 0x0 SWAP2 DUP9 AND SWAP1 PUSH4 0x23B872DD SWAP1 PUSH1 0x64 ADD PUSH1 0x20 PUSH1 0x40 MLOAD DUP1 DUP4 SUB DUP2 PUSH1 0x0 DUP8 GAS CALL ISZERO DUP1 ISZERO PUSH2 0x1634 JUMPI RETURNDATASIZE PUSH1 0x0 DUP1 RETURNDATACOPY RETURNDATASIZE PUSH1 0x0 REVERT JUMPDEST POP POP POP POP PUSH1 0x40 MLOAD RETURNDATASIZE PUSH1 0x1F NOT PUSH1 0x1F DUP3 ADD AND DUP3 ADD DUP1 PUSH1 0x40 MSTORE POP DUP2 ADD SWAP1 PUSH2 0x1658 SWAP2 SWAP1 PUSH2 0x22F1 JUMP JUMPDEST SWAP1 POP DUP1 PUSH2 0x1664 JUMPI PUSH1 0x0 DUP1 REVERT JUMPDEST CALLER PUSH1 0x0 DUP2 DUP2 MSTORE PUSH1 0x20 DUP2 SWAP1 MSTORE PUSH1 0x40 SWAP1 DUP2 SWAP1 KECCAK256 TIMESTAMP SWAP1 SSTORE MLOAD PUSH4 0x40C10F19 PUSH1 0xE0 SHL DUP2 MSTORE PUSH1 0x4 DUP2 ADD SWAP2 SWAP1 SWAP2 MSTORE PUSH1 0x24 DUP2 ADD DUP5 SWAP1 MSTORE PUSH1 0x1 PUSH1 0x1 PUSH1 0xA0 SHL SUB PUSH32 0x0 AND SWAP1 PUSH4 0x40C10F19 SWAP1 PUSH1 0x44 ADD PUSH1 0x0 PUSH1 0x40 MLOAD DUP1 DUP4 SUB DUP2 PUSH1 0x0 DUP8 DUP1 EXTCODESIZE ISZERO DUP1 ISZERO PUSH2 0x16E0 JUMPI PUSH1 0x0 DUP1 REVERT JUMPDEST POP GAS CALL ISZERO DUP1 ISZERO PUSH2 0x16F4 JUMPI RETURNDATASIZE PUSH1 0x0 DUP1 RETURNDATACOPY RETURNDATASIZE PUSH1 0x0 REVERT JUMPDEST POP POP PUSH1 0x40 MLOAD PUSH4 0xA9059CBB PUSH1 0xE0 SHL DUP2 MSTORE CALLER PUSH1 0x4 DUP3 ADD MSTORE PUSH1 0x24 DUP2 ADD DUP6 SWAP1 MSTORE PUSH32 0x0 PUSH1 0x1 PUSH1 0x1 PUSH1 0xA0 SHL SUB AND SWAP3 POP PUSH4 0xA9059CBB SWAP2 POP PUSH1 0x44 ADD PUSH1 0x20 PUSH1 0x40 MLOAD DUP1 DUP4 SUB DUP2 PUSH1 0x0 DUP8 GAS CALL ISZERO DUP1 ISZERO PUSH2 0x1765 JUMPI RETURNDATASIZE PUSH1 0x0 DUP1 RETURNDATACOPY RETURNDATASIZE PUSH1 0x0 REVERT JUMPDEST POP POP POP POP PUSH1 0x40 MLOAD RETURNDATASIZE PUSH1 0x1F NOT PUSH1 0x1F DUP3 ADD AND DUP3 ADD DUP1 PUSH1 0x40 MSTORE POP DUP2 ADD SWAP1 PUSH2 0x1789 SWAP2 SWAP1 PUSH2 0x22F1 JUMP JUMPDEST POP CALLER PUSH1 0x0 SWAP1 DUP2 MSTORE PUSH1 0x7 PUSH1 0x20 MSTORE PUSH1 0x40 SWAP1 KECCAK256 SLOAD PUSH1 0xFF AND PUSH2 0x17FE JUMPI CALLER PUSH1 0x0 DUP2 DUP2 MSTORE PUSH1 0x7 PUSH1 0x20 MSTORE PUSH1 0x40 DUP2 KECCAK256 DUP1 SLOAD PUSH1 0xFF NOT AND PUSH1 0x1 SWAP1 DUP2 OR SWAP1 SWAP2 SSTORE PUSH1 0x6 DUP1 SLOAD SWAP2 DUP3 ADD DUP2 SSTORE SWAP1 SWAP2 MSTORE PUSH32 0xF652222313E28459528D920B65115C16C04F3EFC82AAEDC97BE59F3F377C0D3F ADD DUP1 SLOAD PUSH1 0x1 PUSH1 0x1 PUSH1 0xA0 SHL SUB NOT AND SWAP1 SWAP2 OR SWAP1 SSTORE JUMPDEST PUSH1 0x4 DUP1 SLOAD PUSH1 0x40 MLOAD PUSH4 0xFD192D7D PUSH1 0xE0 SHL DUP2 MSTORE PUSH2 0x2710 SWAP3 DUP2 ADD SWAP3 SWAP1 SWAP3 MSTORE PUSH1 0x1 PUSH1 0x1 PUSH1 0xA0 SHL SUB AND SWAP1 PUSH4 0xFD192D7D SWAP1 PUSH1 0x24 ADD PUSH1 0x20 PUSH1 0x40 MLOAD DUP1 DUP4 SUB DUP2 DUP7 GAS STATICCALL ISZERO DUP1 ISZERO PUSH2 0x1849 JUMPI RETURNDATASIZE PUSH1 0x0 DUP1 RETURNDATACOPY RETURNDATASIZE PUSH1 0x0 REVERT JUMPDEST POP POP POP POP PUSH1 0x40 MLOAD RETURNDATASIZE PUSH1 0x1F NOT PUSH1 0x1F DUP3 ADD AND DUP3 ADD DUP1 PUSH1 0x40 MSTORE POP DUP2 ADD SWAP1 PUSH2 0x186D SWAP2 SWAP1 PUSH2 0x22F1 JUMP JUMPDEST ISZERO DUP1 PUSH2 0x1908 JUMPI POP PUSH1 0x40 MLOAD PUSH4 0x70A08231 PUSH1 0xE0 SHL DUP2 MSTORE ADDRESS PUSH1 0x4 DUP3 ADD MSTORE PUSH8 0xDE0B6B3A7640000 SWAP1 PUSH32 0x0 PUSH1 0x1 PUSH1 0x1 PUSH1 0xA0 SHL SUB AND SWAP1 PUSH4 0x70A08231 SWAP1 PUSH1 0x24 ADD PUSH1 0x20 PUSH1 0x40 MLOAD DUP1 DUP4 SUB DUP2 DUP7 GAS STATICCALL ISZERO DUP1 ISZERO PUSH2 0x18E2 JUMPI RETURNDATASIZE PUSH1 0x0 DUP1 RETURNDATACOPY RETURNDATASIZE PUSH1 0x0 REVERT JUMPDEST POP POP POP POP PUSH1 0x40 MLOAD RETURNDATASIZE PUSH1 0x1F NOT PUSH1 0x1F DUP3 ADD AND DUP3 ADD DUP1 PUSH1 0x40 MSTORE POP DUP2 ADD SWAP1 PUSH2 0x1906 SWAP2 SWAP1 PUSH2 0x2034 JUMP JUMPDEST LT JUMPDEST ISZERO PUSH2 0x1922 JUMPI PUSH1 0x8 DUP1 SLOAD PUSH1 0xFF NOT AND PUSH1 0x1 OR SWAP1 SSTORE PUSH2 0x1922 PUSH2 0x1B8F JUMP JUMPDEST POP POP POP POP POP POP JUMPDEST POP POP JUMP JUMPDEST PUSH1 0x3 SLOAD PUSH1 0x1 PUSH1 0x1 PUSH1 0xA0 SHL SUB AND CALLER EQ PUSH2 0x1958 JUMPI PUSH1 0x40 MLOAD PUSH4 0xDA476DD7 PUSH1 0xE0 SHL DUP2 MSTORE PUSH1 0x4 ADD PUSH1 0x40 MLOAD DUP1 SWAP2 SUB SWAP1 REVERT JUMPDEST PUSH2 0x1960 PUSH2 0x1E5F JUMP JUMPDEST POP JUMP JUMPDEST PUSH1 0x0 DUP1 PUSH3 0xF4240 PUSH2 0x1976 DUP6 PUSH2 0x2710 PUSH2 0x2063 JUMP JUMPDEST PUSH2 0x1980 SWAP2 SWAP1 PUSH2 0x2098 JUMP JUMPDEST PUSH1 0x1 PUSH1 0x1 PUSH1 0xA0 SHL SUB DUP5 AND PUSH1 0x0 SWAP1 DUP2 MSTORE PUSH1 0x20 DUP2 SWAP1 MSTORE PUSH1 0x40 DUP2 KECCAK256 SLOAD SWAP2 SWAP3 POP SWAP1 PUSH2 0x19A7 SWAP1 TIMESTAMP PUSH2 0x20AC JUMP JUMPDEST SWAP1 POP PUSH1 0x0 PUSH2 0x19B8 PUSH3 0x15180 DUP4 PUSH2 0x2098 JUMP JUMPDEST SWAP1 POP PUSH1 0x1E DUP2 SGT PUSH2 0x1A1F JUMPI PUSH1 0x0 PUSH3 0x30D40 PUSH1 0x1E PUSH2 0x19D4 DUP5 DUP4 PUSH2 0x2313 JUMP JUMPDEST PUSH2 0x19DE SWAP2 SWAP1 PUSH2 0x2398 JUMP JUMPDEST PUSH2 0x19E8 SWAP2 SWAP1 PUSH2 0x23C6 JUMP JUMPDEST SWAP1 POP PUSH1 0x0 PUSH2 0x19F6 DUP3 DUP3 PUSH2 0x23C6 JUMP JUMPDEST SWAP1 POP PUSH3 0xF4240 PUSH2 0x1A06 DUP3 DUP11 PUSH2 0x2063 JUMP JUMPDEST PUSH2 0x1A10 SWAP2 SWAP1 PUSH2 0x2098 JUMP JUMPDEST PUSH2 0x1A1A SWAP1 DUP7 PUSH2 0x2291 JUMP JUMPDEST SWAP5 POP POP POP JUMPDEST POP SWAP1 SWAP5 SWAP4 POP POP POP POP JUMP JUMPDEST PUSH1 0x0 DUP1 PUSH32 0x0 PUSH1 0x1 PUSH1 0x1 PUSH1 0xA0 SHL SUB AND PUSH4 0x18160DDD PUSH1 0x40 MLOAD DUP2 PUSH4 0xFFFFFFFF AND PUSH1 0xE0 SHL DUP2 MSTORE PUSH1 0x4 ADD PUSH1 0x20 PUSH1 0x40 MLOAD DUP1 DUP4 SUB DUP2 DUP7 GAS STATICCALL ISZERO DUP1 ISZERO PUSH2 0x1A8A JUMPI RETURNDATASIZE PUSH1 0x0 DUP1 RETURNDATACOPY RETURNDATASIZE PUSH1 0x0 REVERT JUMPDEST POP POP POP POP PUSH1 0x40 MLOAD RETURNDATASIZE PUSH1 0x1F NOT PUSH1 0x1F DUP3 ADD AND DUP3 ADD DUP1 PUSH1 0x40 MSTORE POP DUP2 ADD SWAP1 PUSH2 0x1AAE SWAP2 SWAP1 PUSH2 0x2034 JUMP JUMPDEST PUSH2 0x1ABB DUP5 PUSH3 0xF4240 PUSH2 0x2063 JUMP JUMPDEST PUSH2 0x1AC5 SWAP2 SWAP1 PUSH2 0x2098 JUMP JUMPDEST SWAP1 POP PUSH1 0x0 PUSH1 0x4 PUSH1 0x0 SWAP1 SLOAD SWAP1 PUSH2 0x100 EXP SWAP1 DIV PUSH1 0x1 PUSH1 0x1 PUSH1 0xA0 SHL SUB AND PUSH1 0x1 PUSH1 0x1 PUSH1 0xA0 SHL SUB AND PUSH4 0xBCCC01BA PUSH1 0x40 MLOAD DUP2 PUSH4 0xFFFFFFFF AND PUSH1 0xE0 SHL DUP2 MSTORE PUSH1 0x4 ADD PUSH1 0x20 PUSH1 0x40 MLOAD DUP1 DUP4 SUB DUP2 DUP7 GAS STATICCALL ISZERO DUP1 ISZERO PUSH2 0x1B1C JUMPI RETURNDATASIZE PUSH1 0x0 DUP1 RETURNDATACOPY RETURNDATASIZE PUSH1 0x0 REVERT JUMPDEST POP POP POP POP PUSH1 0x40 MLOAD RETURNDATASIZE PUSH1 0x1F NOT PUSH1 0x1F DUP3 ADD AND DUP3 ADD DUP1 PUSH1 0x40 MSTORE POP DUP2 ADD SWAP1 PUSH2 0x1B40 SWAP2 SWAP1 PUSH2 0x2034 JUMP JUMPDEST SWAP1 POP PUSH1 0x0 PUSH3 0xF4240 PUSH2 0x1B52 DUP5 DUP5 PUSH2 0x2063 JUMP JUMPDEST PUSH2 0x1B5C SWAP2 SWAP1 PUSH2 0x2098 JUMP JUMPDEST SWAP6 SWAP5 POP POP POP POP POP JUMP JUMPDEST PUSH1 0x6 DUP2 DUP2 SLOAD DUP2 LT PUSH2 0x1B75 JUMPI PUSH1 0x0 DUP1 REVERT JUMPDEST PUSH1 0x0 SWAP2 DUP3 MSTORE PUSH1 0x20 SWAP1 SWAP2 KECCAK256 ADD SLOAD PUSH1 0x1 PUSH1 0x1 PUSH1 0xA0 SHL SUB AND SWAP1 POP DUP2 JUMP JUMPDEST PUSH1 0x0 PUSH1 0x4 PUSH1 0x0 SWAP1 SLOAD SWAP1 PUSH2 0x100 EXP SWAP1 DIV PUSH1 0x1 PUSH1 0x1 PUSH1 0xA0 SHL SUB AND PUSH1 0x1 PUSH1 0x1 PUSH1 0xA0 SHL SUB AND PUSH4 0x6730B68A PUSH1 0x40 MLOAD DUP2 PUSH4 0xFFFFFFFF AND PUSH1 0xE0 SHL DUP2 MSTORE PUSH1 0x4 ADD PUSH1 0x20 PUSH1 0x40 MLOAD DUP1 DUP4 SUB DUP2 DUP7 GAS STATICCALL ISZERO DUP1 ISZERO PUSH2 0x1BE4 JUMPI RETURNDATASIZE PUSH1 0x0 DUP1 RETURNDATACOPY RETURNDATASIZE PUSH1 0x0 REVERT JUMPDEST POP POP POP POP PUSH1 0x40 MLOAD RETURNDATASIZE PUSH1 0x1F NOT PUSH1 0x1F DUP3 ADD AND DUP3 ADD DUP1 PUSH1 0x40 MSTORE POP DUP2 ADD SWAP1 PUSH2 0x1C08 SWAP2 SWAP1 PUSH2 0x2034 JUMP JUMPDEST SWAP1 POP PUSH2 0x7530 DUP2 LT ISZERO PUSH2 0x1DC1 JUMPI PUSH1 0x40 MLOAD PUSH4 0x70A08231 PUSH1 0xE0 SHL DUP2 MSTORE ADDRESS PUSH1 0x4 DUP3 ADD MSTORE PUSH1 0x0 SWAP1 PUSH32 0x0 PUSH1 0x1 PUSH1 0x1 PUSH1 0xA0 SHL SUB AND SWAP1 PUSH4 0x70A08231 SWAP1 PUSH1 0x24 ADD PUSH1 0x20 PUSH1 0x40 MLOAD DUP1 DUP4 SUB DUP2 DUP7 GAS STATICCALL ISZERO DUP1 ISZERO PUSH2 0x1C7B JUMPI RETURNDATASIZE PUSH1 0x0 DUP1 RETURNDATACOPY RETURNDATASIZE PUSH1 0x0 REVERT JUMPDEST POP POP POP POP PUSH1 0x40 MLOAD RETURNDATASIZE PUSH1 0x1F NOT PUSH1 0x1F DUP3 ADD AND DUP3 ADD DUP1 PUSH1 0x40 MSTORE POP DUP2 ADD SWAP1 PUSH2 0x1C9F SWAP2 SWAP1 PUSH2 0x2034 JUMP JUMPDEST PUSH1 0x6 SLOAD SWAP1 SWAP2 POP PUSH1 0x0 PUSH2 0x1CB1 DUP3 DUP5 PUSH2 0x2098 JUMP JUMPDEST SWAP1 POP PUSH1 0x0 JUMPDEST DUP3 DUP2 LT ISZERO PUSH2 0x1DBC JUMPI PUSH1 0x0 PUSH1 0x6 DUP3 DUP2 SLOAD DUP2 LT PUSH2 0x1CD3 JUMPI PUSH2 0x1CD3 PUSH2 0x225E JUMP JUMPDEST PUSH1 0x0 SWAP2 DUP3 MSTORE PUSH1 0x20 DUP3 KECCAK256 ADD SLOAD PUSH1 0x6 DUP1 SLOAD PUSH1 0x1 PUSH1 0x1 PUSH1 0xA0 SHL SUB SWAP1 SWAP3 AND SWAP4 POP SWAP1 DUP5 SWAP1 DUP2 LT PUSH2 0x1D00 JUMPI PUSH2 0x1D00 PUSH2 0x225E JUMP JUMPDEST PUSH1 0x0 SWAP2 DUP3 MSTORE PUSH1 0x20 SWAP1 SWAP2 KECCAK256 ADD DUP1 SLOAD PUSH1 0x1 PUSH1 0x1 PUSH1 0xA0 SHL SUB NOT AND PUSH1 0x1 PUSH1 0x1 PUSH1 0xA0 SHL SUB SWAP3 DUP4 AND OR SWAP1 SSTORE PUSH1 0x40 MLOAD PUSH4 0xA9059CBB PUSH1 0xE0 SHL DUP2 MSTORE DUP3 DUP3 AND PUSH1 0x4 DUP3 ADD MSTORE PUSH1 0x24 DUP2 ADD DUP6 SWAP1 MSTORE PUSH32 0x0 SWAP1 SWAP2 AND SWAP1 PUSH4 0xA9059CBB SWAP1 PUSH1 0x44 ADD PUSH1 0x20 PUSH1 0x40 MLOAD DUP1 DUP4 SUB DUP2 PUSH1 0x0 DUP8 GAS CALL ISZERO DUP1 ISZERO PUSH2 0x1D8E JUMPI RETURNDATASIZE PUSH1 0x0 DUP1 RETURNDATACOPY RETURNDATASIZE PUSH1 0x0 REVERT JUMPDEST POP POP POP POP PUSH1 0x40 MLOAD RETURNDATASIZE PUSH1 0x1F NOT PUSH1 0x1F DUP3 ADD AND DUP3 ADD DUP1 PUSH1 0x40 MSTORE POP DUP2 ADD SWAP1 PUSH2 0x1DB2 SWAP2 SWAP1 PUSH2 0x22F1 JUMP JUMPDEST POP POP PUSH1 0x1 ADD PUSH2 0x1CB6 JUMP JUMPDEST POP POP POP POP JUMPDEST PUSH1 0x40 DUP1 MLOAD PUSH1 0x0 DUP2 MSTORE PUSH1 0x20 DUP2 ADD SWAP2 DUP3 SWAP1 MSTORE MLOAD PUSH2 0x1DDE SWAP2 PUSH1 0x6 SWAP2 PUSH2 0x1ECE JUMP JUMPDEST POP POP PUSH1 0x0 PUSH1 0x5 SSTORE JUMP JUMPDEST PUSH1 0x4 DUP1 SLOAD PUSH1 0x40 MLOAD PUSH4 0xFD192D7D PUSH1 0xE0 SHL DUP2 MSTORE PUSH2 0xC350 SWAP3 DUP2 ADD SWAP3 SWAP1 SWAP3 MSTORE PUSH1 0x1 PUSH1 0x1 PUSH1 0xA0 SHL SUB AND SWAP1 PUSH4 0xFD192D7D SWAP1 PUSH1 0x24 ADD PUSH1 0x20 PUSH1 0x40 MLOAD DUP1 DUP4 SUB DUP2 DUP7 GAS STATICCALL ISZERO DUP1 ISZERO PUSH2 0x1E32 JUMPI RETURNDATASIZE PUSH1 0x0 DUP1 RETURNDATACOPY RETURNDATASIZE PUSH1 0x0 REVERT JUMPDEST POP POP POP POP PUSH1 0x40 MLOAD RETURNDATASIZE PUSH1 0x1F NOT PUSH1 0x1F DUP3 ADD AND DUP3 ADD DUP1 PUSH1 0x40 MSTORE POP DUP2 ADD SWAP1 PUSH2 0x1E56 SWAP2 SWAP1 PUSH2 0x22F1 JUMP JUMPDEST ISZERO PUSH2 0x3EF JUMPI PUSH2 0x3EF JUMPDEST PUSH1 0x1 PUSH1 0x8 SLOAD PUSH1 0xFF AND PUSH1 0x1 DUP2 GT ISZERO PUSH2 0x1E78 JUMPI PUSH2 0x1E78 PUSH2 0x1F9A JUMP JUMPDEST EQ ISZERO PUSH2 0x3EF JUMPI PUSH1 0x8 DUP1 SLOAD PUSH1 0xFF NOT AND SWAP1 SSTORE PUSH2 0x1E94 TIMESTAMP PUSH2 0x1C20 PUSH2 0x2291 JUMP JUMPDEST PUSH1 0x5 DUP2 SWAP1 SSTORE PUSH1 0x40 MLOAD SWAP1 DUP2 MSTORE PUSH32 0x53CDD2DE768FC162C7F36B7C98C45BB533D119F4FCAB5A74E49BA3929F5CDCF2 SWAP1 PUSH1 0x20 ADD PUSH1 0x40 MLOAD DUP1 SWAP2 SUB SWAP1 LOG1 JUMP JUMPDEST DUP3 DUP1 SLOAD DUP3 DUP3 SSTORE SWAP1 PUSH1 0x0 MSTORE PUSH1 0x20 PUSH1 0x0 KECCAK256 SWAP1 DUP2 ADD SWAP3 DUP3 ISZERO PUSH2 0x1F23 JUMPI SWAP2 PUSH1 0x20 MUL DUP3 ADD JUMPDEST DUP3 DUP2 GT ISZERO PUSH2 0x1F23 JUMPI DUP3 MLOAD DUP3 SLOAD PUSH1 0x1 PUSH1 0x1 PUSH1 0xA0 SHL SUB NOT AND PUSH1 0x1 PUSH1 0x1 PUSH1 0xA0 SHL SUB SWAP1 SWAP2 AND OR DUP3 SSTORE PUSH1 0x20 SWAP1 SWAP3 ADD SWAP2 PUSH1 0x1 SWAP1 SWAP2 ADD SWAP1 PUSH2 0x1EEE JUMP JUMPDEST POP PUSH2 0x1F2F SWAP3 SWAP2 POP PUSH2 0x1F33 JUMP JUMPDEST POP SWAP1 JUMP JUMPDEST JUMPDEST DUP1 DUP3 GT ISZERO PUSH2 0x1F2F JUMPI PUSH1 0x0 DUP2 SSTORE PUSH1 0x1 ADD PUSH2 0x1F34 JUMP JUMPDEST PUSH1 0x1 PUSH1 0x1 PUSH1 0xA0 SHL SUB DUP2 AND DUP2 EQ PUSH2 0x1960 JUMPI PUSH1 0x0 DUP1 REVERT JUMPDEST PUSH1 0x0 PUSH1 0x20 DUP3 DUP5 SUB SLT ISZERO PUSH2 0x1F6F JUMPI PUSH1 0x0 DUP1 REVERT JUMPDEST DUP2 CALLDATALOAD PUSH2 0x1F7A DUP2 PUSH2 0x1F48 JUMP JUMPDEST SWAP4 SWAP3 POP POP POP JUMP JUMPDEST PUSH1 0x0 PUSH1 0x20 DUP3 DUP5 SUB SLT ISZERO PUSH2 0x1F93 JUMPI PUSH1 0x0 DUP1 REVERT JUMPDEST POP CALLDATALOAD SWAP2 SWAP1 POP JUMP JUMPDEST PUSH4 0x4E487B71 PUSH1 0xE0 SHL PUSH1 0x0 MSTORE PUSH1 0x21 PUSH1 0x4 MSTORE PUSH1 0x24 PUSH1 0x0 REVERT JUMPDEST PUSH1 0x20 DUP2 ADD PUSH1 0x2 DUP4 LT PUSH2 0x1FD2 JUMPI PUSH4 0x4E487B71 PUSH1 0xE0 SHL PUSH1 0x0 MSTORE PUSH1 0x21 PUSH1 0x4 MSTORE PUSH1 0x24 PUSH1 0x0 REVERT JUMPDEST SWAP2 SWAP1 MSTORE SWAP1 JUMP JUMPDEST PUSH1 0x0 DUP1 PUSH1 0x40 DUP4 DUP6 SUB SLT ISZERO PUSH2 0x1FEB JUMPI PUSH1 0x0 DUP1 REVERT JUMPDEST DUP3 CALLDATALOAD SWAP2 POP PUSH1 0x20 DUP4 ADD CALLDATALOAD PUSH2 0x1FFD DUP2 PUSH2 0x1F48 JUMP JUMPDEST DUP1 SWAP2 POP POP SWAP3 POP SWAP3 SWAP1 POP JUMP JUMPDEST PUSH1 0x0 DUP1 PUSH1 0x40 DUP4 DUP6 SUB SLT ISZERO PUSH2 0x201B JUMPI PUSH1 0x0 DUP1 REVERT JUMPDEST DUP3 CALLDATALOAD PUSH2 0x2026 DUP2 PUSH2 0x1F48 JUMP JUMPDEST SWAP5 PUSH1 0x20 SWAP4 SWAP1 SWAP4 ADD CALLDATALOAD SWAP4 POP POP POP JUMP JUMPDEST PUSH1 0x0 PUSH1 0x20 DUP3 DUP5 SUB SLT ISZERO PUSH2 0x2046 JUMPI PUSH1 0x0 DUP1 REVERT JUMPDEST POP MLOAD SWAP2 SWAP1 POP JUMP JUMPDEST PUSH4 0x4E487B71 PUSH1 0xE0 SHL PUSH1 0x0 MSTORE PUSH1 0x11 PUSH1 0x4 MSTORE PUSH1 0x24 PUSH1 0x0 REVERT JUMPDEST PUSH1 0x0 DUP2 PUSH1 0x0 NOT DIV DUP4 GT DUP3 ISZERO ISZERO AND ISZERO PUSH2 0x207D JUMPI PUSH2 0x207D PUSH2 0x204D JUMP JUMPDEST POP MUL SWAP1 JUMP JUMPDEST PUSH4 0x4E487B71 PUSH1 0xE0 SHL PUSH1 0x0 MSTORE PUSH1 0x12 PUSH1 0x4 MSTORE PUSH1 0x24 PUSH1 0x0 REVERT JUMPDEST PUSH1 0x0 DUP3 PUSH2 0x20A7 JUMPI PUSH2 0x20A7 PUSH2 0x2082 JUMP JUMPDEST POP DIV SWAP1 JUMP JUMPDEST PUSH1 0x0 DUP3 DUP3 LT ISZERO PUSH2 0x20BE JUMPI PUSH2 0x20BE PUSH2 0x204D JUMP JUMPDEST POP SUB SWAP1 JUMP JUMPDEST PUSH4 0x4E487B71 PUSH1 0xE0 SHL PUSH1 0x0 MSTORE PUSH1 0x41 PUSH1 0x4 MSTORE PUSH1 0x24 PUSH1 0x0 REVERT JUMPDEST PUSH1 0x40 MLOAD PUSH1 0x1F DUP3 ADD PUSH1 0x1F NOT AND DUP2 ADD PUSH8 0xFFFFFFFFFFFFFFFF DUP2 GT DUP3 DUP3 LT OR ISZERO PUSH2 0x2102 JUMPI PUSH2 0x2102 PUSH2 0x20C3 JUMP JUMPDEST PUSH1 0x40 MSTORE SWAP2 SWAP1 POP JUMP JUMPDEST PUSH1 0x0 PUSH8 0xFFFFFFFFFFFFFFFF DUP3 GT ISZERO PUSH2 0x2124 JUMPI PUSH2 0x2124 PUSH2 0x20C3 JUMP JUMPDEST POP PUSH1 0x5 SHL PUSH1 0x20 ADD SWAP1 JUMP JUMPDEST PUSH1 0x0 DUP3 PUSH1 0x1F DUP4 ADD SLT PUSH2 0x213F JUMPI PUSH1 0x0 DUP1 REVERT JUMPDEST DUP2 MLOAD PUSH1 0x20 PUSH2 0x2154 PUSH2 0x214F DUP4 PUSH2 0x210A JUMP JUMPDEST PUSH2 0x20D9 JUMP JUMPDEST DUP3 DUP2 MSTORE PUSH1 0x5 SWAP3 SWAP1 SWAP3 SHL DUP5 ADD DUP2 ADD SWAP2 DUP2 DUP2 ADD SWAP1 DUP7 DUP5 GT ISZERO PUSH2 0x2173 JUMPI PUSH1 0x0 DUP1 REVERT JUMPDEST DUP3 DUP7 ADD JUMPDEST DUP5 DUP2 LT ISZERO PUSH2 0x218E JUMPI DUP1 MLOAD DUP4 MSTORE SWAP2 DUP4 ADD SWAP2 DUP4 ADD PUSH2 0x2177 JUMP JUMPDEST POP SWAP7 SWAP6 POP POP POP POP POP POP JUMP JUMPDEST PUSH1 0x0 DUP1 PUSH1 0x40 DUP4 DUP6 SUB SLT ISZERO PUSH2 0x21AC JUMPI PUSH1 0x0 DUP1 REVERT JUMPDEST DUP3 MLOAD PUSH8 0xFFFFFFFFFFFFFFFF DUP1 DUP3 GT ISZERO PUSH2 0x21C4 JUMPI PUSH1 0x0 DUP1 REVERT JUMPDEST DUP2 DUP6 ADD SWAP2 POP DUP6 PUSH1 0x1F DUP4 ADD SLT PUSH2 0x21D8 JUMPI PUSH1 0x0 DUP1 REVERT JUMPDEST DUP2 MLOAD PUSH1 0x20 PUSH2 0x21E8 PUSH2 0x214F DUP4 PUSH2 0x210A JUMP JUMPDEST DUP3 DUP2 MSTORE PUSH1 0x5 SWAP3 SWAP1 SWAP3 SHL DUP5 ADD DUP2 ADD SWAP2 DUP2 DUP2 ADD SWAP1 DUP10 DUP5 GT ISZERO PUSH2 0x2207 JUMPI PUSH1 0x0 DUP1 REVERT JUMPDEST SWAP5 DUP3 ADD SWAP5 JUMPDEST DUP4 DUP7 LT ISZERO PUSH2 0x222E JUMPI DUP6 MLOAD PUSH2 0x221F DUP2 PUSH2 0x1F48 JUMP JUMPDEST DUP3 MSTORE SWAP5 DUP3 ADD SWAP5 SWAP1 DUP3 ADD SWAP1 PUSH2 0x220C JUMP JUMPDEST SWAP2 DUP9 ADD MLOAD SWAP2 SWAP7 POP SWAP1 SWAP4 POP POP POP DUP1 DUP3 GT ISZERO PUSH2 0x2247 JUMPI PUSH1 0x0 DUP1 REVERT JUMPDEST POP PUSH2 0x2254 DUP6 DUP3 DUP7 ADD PUSH2 0x212E JUMP JUMPDEST SWAP2 POP POP SWAP3 POP SWAP3 SWAP1 POP JUMP JUMPDEST PUSH4 0x4E487B71 PUSH1 0xE0 SHL PUSH1 0x0 MSTORE PUSH1 0x32 PUSH1 0x4 MSTORE PUSH1 0x24 PUSH1 0x0 REVERT JUMPDEST PUSH1 0x0 PUSH1 0x20 DUP3 DUP5 SUB SLT ISZERO PUSH2 0x2286 JUMPI PUSH1 0x0 DUP1 REVERT JUMPDEST DUP2 MLOAD PUSH2 0x1F7A DUP2 PUSH2 0x1F48 JUMP JUMPDEST PUSH1 0x0 DUP3 NOT DUP3 GT ISZERO PUSH2 0x22A4 JUMPI PUSH2 0x22A4 PUSH2 0x204D JUMP JUMPDEST POP ADD SWAP1 JUMP JUMPDEST PUSH1 0x20 DUP1 DUP3 MSTORE PUSH1 0x28 SWAP1 DUP3 ADD MSTORE PUSH32 0x546869732077696C6C206D616B652074686520706F6F6C20746F6F20636F6E63 PUSH1 0x40 DUP3 ADD MSTORE PUSH8 0x195B9D1C985D1959 PUSH1 0xC2 SHL PUSH1 0x60 DUP3 ADD MSTORE PUSH1 0x80 ADD SWAP1 JUMP JUMPDEST PUSH1 0x0 PUSH1 0x20 DUP3 DUP5 SUB SLT ISZERO PUSH2 0x2303 JUMPI PUSH1 0x0 DUP1 REVERT JUMPDEST DUP2 MLOAD DUP1 ISZERO ISZERO DUP2 EQ PUSH2 0x1F7A JUMPI PUSH1 0x0 DUP1 REVERT JUMPDEST PUSH1 0x0 PUSH1 0x1 PUSH1 0x1 PUSH1 0xFF SHL SUB DUP2 DUP5 SGT DUP3 DUP5 SGT DUP1 DUP3 AND DUP7 DUP5 DIV DUP7 GT AND ISZERO PUSH2 0x2339 JUMPI PUSH2 0x2339 PUSH2 0x204D JUMP JUMPDEST PUSH1 0x1 PUSH1 0xFF SHL PUSH1 0x0 DUP8 SLT DUP3 DUP2 AND DUP8 DUP4 SDIV DUP10 SLT AND ISZERO PUSH2 0x2358 JUMPI PUSH2 0x2358 PUSH2 0x204D JUMP JUMPDEST PUSH1 0x0 DUP8 SLT SWAP3 POP DUP8 DUP3 SDIV DUP8 SLT DUP5 DUP5 AND AND ISZERO PUSH2 0x2374 JUMPI PUSH2 0x2374 PUSH2 0x204D JUMP JUMPDEST DUP8 DUP6 SDIV DUP8 SLT DUP2 DUP5 AND AND ISZERO PUSH2 0x238A JUMPI PUSH2 0x238A PUSH2 0x204D JUMP JUMPDEST POP POP POP SWAP3 SWAP1 SWAP4 MUL SWAP4 SWAP3 POP POP POP JUMP JUMPDEST PUSH1 0x0 DUP3 PUSH2 0x23A7 JUMPI PUSH2 0x23A7 PUSH2 0x2082 JUMP JUMPDEST PUSH1 0x1 PUSH1 0xFF SHL DUP3 EQ PUSH1 0x0 NOT DUP5 EQ AND ISZERO PUSH2 0x23C1 JUMPI PUSH2 0x23C1 PUSH2 0x204D JUMP JUMPDEST POP SDIV SWAP1 JUMP JUMPDEST PUSH1 0x0 DUP1 DUP4 SLT DUP1 ISZERO PUSH1 0x1 PUSH1 0xFF SHL DUP6 ADD DUP5 SLT AND ISZERO PUSH2 0x23E4 JUMPI PUSH2 0x23E4 PUSH2 0x204D JUMP JUMPDEST PUSH1 0x1 PUSH1 0x1 PUSH1 0xFF SHL SUB DUP5 ADD DUP4 SGT DUP2 AND ISZERO PUSH2 0x23FF JUMPI PUSH2 0x23FF PUSH2 0x204D JUMP JUMPDEST POP POP SUB SWAP1 JUMP INVALID LOG2 PUSH5 0x6970667358 0x22 SLT KECCAK256 0xDA PUSH4 0x2226BA84 0xED GAS 0xB7 0xBE DUP2 0xE6 0xBA RETURNDATACOPY 0x1E 0xB6 PUSH3 0x79E8C2 0xB9 CALLCODE PUSH14 0xD32289D5A2DFAFA7D964736F6C63 NUMBER STOP ADDMOD 0xC STOP CALLER ","sha1":"8784457320b32a4f59098afb7c3f283fa0202eee","source":"//SPDX-License-Identifier: MIT\npragma solidity 0.8.12;\n\nimport \"@openzeppelin/contracts/token/ERC20/ERC20.sol\";\nimport \"./TRSYERC20.sol\";\nimport \"./TokenPool.sol\";\nimport \"../interfaces/IRegistry.sol\";\nimport \"../interfaces/ITokenPool.sol\";\nimport \"./Registry.sol\";\nimport \"@openzeppelin/contracts/token/ERC20/IERC20.sol\";\n\n\n\ncontract Treasury {\n// State Variables\nTRSYERC20 public immutable TRSY;\nmapping (address => uint256) public timestamp;\nmapping (address => bool) public whitelistedUsers;\nmapping (address => bool) public whitelistedTokens;\naddress public owner;\naddress public registry;\nuint256 constant PRECISION = 1e6;\nuint public endTime;\naddress[] public rewardees;\nmapping (address => bool) public isRewardee;\n\n//Errors\nerror Error_Unauthorized();\nerror InsufficientBalance(uint256 available, uint256 required);\n\n//enum\nenum INCENTIVE{\n        OPEN,\n        CLOSED\n    }\n\nINCENTIVE public incentive = INCENTIVE.CLOSED;\n\n//struct\nstruct Concentrations{\n        uint256 currentConcentration;\n        uint256 targetConcentration;\n        uint256 newConcentration;\n        uint256 aum;\n    }\n//modifier\nmodifier onlyOwner() {\n        if (msg.sender != owner) {\n            revert Error_Unauthorized();\n        }\n        _;\n    }\n\n//events\nevent TokenDeposited(\n        address indexed depositor,\n        address token,\n        uint256 amount,\n        uint256 usdValueDeposited,\n        uint256 sharesMinted\n    );\n\nevent IncentiveOpen(\n        uint256 endTime\n    );\n\n//constructor\nconstructor(\n        address _trsy,\n        address _registry\n    ) {\n    owner = msg.sender;\n    registry = _registry;\n    TRSY = TRSYERC20(_trsy);\n    }\n/**\n@dev function that adds a user to the whitelist\n */\n    function whitelistUser(address _user) public onlyOwner {\n        whitelistedUsers[_user] =true;\n    }\n\nfunction getIncentiveStatus() public view returns (uint) {\n     return uint(incentive);\n}\n/**\n@dev function that adds a token to the whitelist\n */\n    function whitelistToken(address _token) public onlyOwner {\n         whitelistedTokens[_token] =true;\n    }\n/**\n@dev function that makes a concentration struct by calculating the new, current, aum and target concentration \n@param pool - pool to make the struct for\n@param amount - new amount to be added to pool\n */\n    function makeConcentrationStruct(address pool, uint amount) public view returns (Concentrations memory){\n        Concentrations memory concentration;\n        concentration.currentConcentration = Registry(registry).getConcentration(pool);\n        concentration.targetConcentration = Registry(registry).PoolToConcentration(pool);\n        concentration.newConcentration = Registry(registry).getNewConcentration(pool, amount);\n        concentration.aum = Registry(registry).getTotalAUMinUSD();\n        return concentration;\n    }\n/**\n@dev function that allows a whitelisted user to deposit a whitelisted token into the treasury in exchange for TRSY\n@param _token - token to be deposited\n@param _amount - amount of token to be deposited\n */\n    function deposit(uint256 _amount, address _token) public {\n        require(whitelistedUsers[msg.sender], \"User is not whitelisted\");\n        require(whitelistedTokens[_token], \"Token is not whitelisted\");\n        address pool = IRegistry(registry).tokenToPool(_token);\n        uint256 USDValue = ITokenPool(pool).getDepositValue(_amount);\n        require(USDValue > 1e18, \"Amount must be greater than $1\");\n        Concentrations memory c = makeConcentrationStruct(pool,USDValue);\n        if (c.aum>10000e18 && c.aum!=0){\n        require(c.currentConcentration < (c.targetConcentration + 200000), \"Concentration is too high\"); //concentration is too high to deposit into pool\n        require(c.newConcentration < (c.targetConcentration + 300000), \"This will make the pool too concentrated\");}\n\n        uint taxamt = USDValue * 50000 / PRECISION; // tax user 5%\n        //if users deposit makes concentration too high, tax them an addition 7.5% per dollar that is over the target concentration\n        if ((c.newConcentration>c.targetConcentration) && (c.newConcentration >= c.currentConcentration)&&(c.aum>10000e18)){\n           uint change =  c.targetConcentration < c.currentConcentration ? USDValue * 75000 / PRECISION : USDValue * (c.newConcentration - c.targetConcentration)/PRECISION * 75000 / PRECISION ;\n           taxamt += change;\n        } \n        uint256 trsyamt = getTRSYAmount(USDValue);\n        uint256 trsytaxamt = getTRSYAmount(taxamt);\n        bool success = IERC20(_token).transferFrom(msg.sender, pool, _amount);\n        require(success);\n        timestamp[msg.sender] = block.timestamp;\n        TRSY.mint(msg.sender, trsyamt-trsytaxamt);\n        TRSY.mint(address(this), trsytaxamt); //give this contract the tax \n        checkIncentive();\n        emit TokenDeposited(msg.sender, _token, _amount, USDValue, trsyamt-trsytaxamt);\n    }\n\n    /**\n    @dev function to get how much TRSY a user will get for a certain amount of USD\n    @param _amount - amount of USD to be converted to TRSY\n     */\n    function getTRSYAmount(uint256 _amount) public view returns (uint256){\n        uint256 tvl = IRegistry(registry).getTotalAUMinUSD();\n        uint256 supply = TRSY.totalSupply();\n        return tvl == 0 ? _amount : (_amount * supply) / tvl;\n    }\n\n/**\n@dev function that allows a user to withdraw TRSY\n@param _amount - amount of treasury to be withdrawn \n */\n    function withdraw(uint256 _amount) public {\n        require(_amount > 0, \"Amount must be greater than 0\");\n        uint256 trsyamt = TRSY.balanceOf(msg.sender);\n        if (trsyamt < _amount) {\n            revert InsufficientBalance({available: trsyamt, required: _amount});\n        }\n        uint tax = calculateTax(_amount, msg.sender); //withdrawal tax \n        uint postTax = _amount -tax; // actualy trsy that will be withdrawn \n        uint256 usdamt = getWithdrawAmount(postTax);\n        (address[] memory pools, uint256[] memory amt) = IRegistry(registry).tokensToWithdraw(usdamt);\n        TRSY.burn(msg.sender, _amount); //burn total amount from user\n        TRSY.mint(address(this), tax); // mint this address the tax\n        uint len = pools.length;\n        for (uint i; i<len;){\n            if( pools[i]!= address(0)){\n            address pool = pools[i];\n            uint256 amount = getTokenAmount(amt[i], pools[i]);\n            ITokenPool(pool).withdrawToken(msg.sender,amount);\n            }\n            unchecked{++i;}\n        }\n    }\n    /**\n    @dev function  that calculates how much tax a user will pay on a withdrawal\n    @param _amount - amount of TRSY to be withdrawn\n    @param sender - user that is withdrawing\n     */\n    function calculateTax(uint256 _amount, address sender) public view returns (uint256){\n        uint256 tax = _amount * 10000 / PRECISION; //all withdrawals taxed at 1%\n        uint time = block.timestamp - timestamp[sender];\n        int numdays = int(time / 86400);\n        if(numdays <= 30){ //if user withdraws within 30 days of depositing, it is taxed more\n             int calcTax =  ((200000 * numdays / 30) - 200000);\n             int taxamt = 0 - calcTax;\n             tax += _amount * uint(taxamt) / PRECISION;\n        }\n             return tax;\n        }\n        \n\n    /**\n    @dev calculate how many tokens a certain usd amount is worth \n    @param usdamt - dollar amount\n    @param pool - tokenPool\n     */\n    function getTokenAmount(uint usdamt, address pool) public returns (uint256){\n        uint price = ITokenPool(pool).getPrice();\n        return ((usdamt * 10**18)/price);\n    }\n\n/**\n@dev function to convert TRSY to usd\n@param trsyamt - trsy amount \n */\n    function getWithdrawAmount(uint256 trsyamt) public view returns(uint256) {\n        uint256 trsy = (PRECISION * trsyamt) / TRSY.totalSupply();\n        uint256 tvl = IRegistry(registry).getTotalAUMinUSD();\n        uint256 usdAmount = (tvl * trsy) / PRECISION;\n        return usdAmount;\n    }\n\n    function checkIncentive() internal {\n        if (Registry(registry).checkDeposit(50000)){\n            incentivize();\n         }\n    }\n    function ownerStartIncentive (uint percent) public onlyOwner {\n       incentivize();\n    }\n\n    function incentivize() internal {\n        if (incentive == INCENTIVE.CLOSED){\n            incentive = INCENTIVE.OPEN;\n            endTime = block.timestamp + 2 hours;\n            emit IncentiveOpen (endTime);\n        }\n        \n    }\n\n    function closeIncentive() public onlyOwner {\n        incentive = INCENTIVE.CLOSED;\n        finishIncentive();\n    }\n\n    function depositIncentive(uint256 _amount, address _token) public {\n        if (block.timestamp >= endTime){\n            incentive = INCENTIVE.CLOSED;\n            finishIncentive();\n        }\n        if (incentive == INCENTIVE.OPEN){\n        require(whitelistedTokens[_token], \"Token is not whitelisted\");\n        address pool = IRegistry(registry).tokenToPool(_token);\n        uint256 USDValue = ITokenPool(pool).getDepositValue(_amount);\n        require(USDValue > 1e18, \"Amount must be greater than $1\");\n        require(USDValue * 50000/PRECISION < getWithdrawAmount(TRSY.balanceOf(address(this))), \"Amount exceeds max incentive\");\n        Concentrations memory c = makeConcentrationStruct(pool,USDValue);\n        require(c.currentConcentration<c.targetConcentration, \"Pool is already above target concentration\");\n        require(c.newConcentration < (c.targetConcentration + 300000), \"This will make the pool too concentrated\");\n        uint256 trsyamt = getTRSYAmount(USDValue);\n        uint reward = trsyamt * 50000 / PRECISION;\n        bool success = IERC20(_token).transferFrom(msg.sender, pool, _amount);\n        require(success);\n        timestamp[msg.sender] = block.timestamp;\n        TRSY.mint(msg.sender, trsyamt);\n        TRSY.transfer(msg.sender, reward);\n        if (!isRewardee[msg.sender]){\n            isRewardee[msg.sender] = true;\n            rewardees.push(msg.sender);\n        }\n        if (!Registry(registry).checkDeposit(10000) || TRSY.balanceOf(address(this)) < 1e18){\n            incentive = INCENTIVE.CLOSED;\n            finishIncentive();\n        }    }\n    }\n\n    function finishIncentive() internal {\n        uint256 diff = Registry(registry).calcDeposit();\n        if (diff < 30000){\n            uint256 total = TRSY.balanceOf(address(this));\n            uint256 len = rewardees.length;\n            uint256 reward = total / len;\n            for (uint i; i<len;){\n                address person = rewardees[i];\n                rewardees[i] = address(0);\n                TRSY.transfer(person, reward);\n                unchecked{++i;}\n            }\n        }\n        rewardees = new address[](0);\n        endTime = 0;\n    }\n\n   \n\n}","sourcePath":"contracts/Treasury.sol","type":"contract","deployment":{"address":"0xFDceBF9a78Cb0A7f208A883e3fe5bDb3DDe9Dc9c","chainid":"5","blockHeight":7604276}}