{
  "abi": [
    {
      "inputs": [],
      "stateMutability": "nonpayable",
      "type": "constructor"
    },
    {
      "inputs": [],
      "name": "Error_Unauthorized",
      "type": "error"
    },
    {
      "anonymous": false,
      "inputs": [
        {
          "indexed": true,
          "internalType": "address",
          "name": "poolAddress",
          "type": "address"
        },
        {
          "indexed": false,
          "internalType": "address",
          "name": "tokenAddress",
          "type": "address"
        }
      ],
      "name": "ReservePoolDeployed",
      "type": "event"
    },
    {
      "inputs": [
        {
          "internalType": "address",
          "name": "",
          "type": "address"
        }
      ],
      "name": "PoolToConcentration",
      "outputs": [
        {
          "internalType": "uint256",
          "name": "",
          "type": "uint256"
        }
      ],
      "stateMutability": "view",
      "type": "function"
    },
    {
      "inputs": [
        {
          "internalType": "address",
          "name": "",
          "type": "address"
        }
      ],
      "name": "PoolToToken",
      "outputs": [
        {
          "internalType": "address",
          "name": "",
          "type": "address"
        }
      ],
      "stateMutability": "view",
      "type": "function"
    },
    {
      "inputs": [
        {
          "internalType": "int256",
          "name": "x",
          "type": "int256"
        }
      ],
      "name": "abs",
      "outputs": [
        {
          "internalType": "uint256",
          "name": "",
          "type": "uint256"
        }
      ],
      "stateMutability": "pure",
      "type": "function"
    },
    {
      "inputs": [
        {
          "internalType": "address",
          "name": "_tokenPool",
          "type": "address"
        },
        {
          "internalType": "address",
          "name": "_token",
          "type": "address"
        },
        {
          "internalType": "uint256",
          "name": "concentration",
          "type": "uint256"
        }
      ],
      "name": "addTokenPool",
      "outputs": [],
      "stateMutability": "nonpayable",
      "type": "function"
    },
    {
      "inputs": [],
      "name": "calcDeposit",
      "outputs": [
        {
          "internalType": "uint256",
          "name": "",
          "type": "uint256"
        }
      ],
      "stateMutability": "view",
      "type": "function"
    },
    {
      "inputs": [
        {
          "internalType": "uint256",
          "name": "percent",
          "type": "uint256"
        }
      ],
      "name": "checkDeposit",
      "outputs": [
        {
          "internalType": "bool",
          "name": "",
          "type": "bool"
        }
      ],
      "stateMutability": "view",
      "type": "function"
    },
    {
      "inputs": [
        {
          "internalType": "uint256",
          "name": "_amount",
          "type": "uint256"
        }
      ],
      "name": "checkWithdraw",
      "outputs": [
        {
          "internalType": "address[]",
          "name": "",
          "type": "address[]"
        },
        {
          "internalType": "uint256[]",
          "name": "",
          "type": "uint256[]"
        }
      ],
      "stateMutability": "view",
      "type": "function"
    },
    {
      "inputs": [],
      "name": "factory",
      "outputs": [
        {
          "internalType": "address",
          "name": "",
          "type": "address"
        }
      ],
      "stateMutability": "view",
      "type": "function"
    },
    {
      "inputs": [
        {
          "components": [
            {
              "internalType": "address",
              "name": "pool",
              "type": "address"
            },
            {
              "internalType": "uint256",
              "name": "amt",
              "type": "uint256"
            }
          ],
          "internalType": "struct Registry.Rebalancing[]",
          "name": "_rebalance",
          "type": "tuple[]"
        }
      ],
      "name": "findMax",
      "outputs": [
        {
          "components": [
            {
              "internalType": "address",
              "name": "pool",
              "type": "address"
            },
            {
              "internalType": "uint256",
              "name": "amt",
              "type": "uint256"
            }
          ],
          "internalType": "struct Registry.Rebalancing",
          "name": "",
          "type": "tuple"
        },
        {
          "internalType": "uint256",
          "name": "",
          "type": "uint256"
        }
      ],
      "stateMutability": "pure",
      "type": "function"
    },
    {
      "inputs": [
        {
          "internalType": "address",
          "name": "pool",
          "type": "address"
        }
      ],
      "name": "getConcentration",
      "outputs": [
        {
          "internalType": "uint256",
          "name": "",
          "type": "uint256"
        }
      ],
      "stateMutability": "view",
      "type": "function"
    },
    {
      "inputs": [
        {
          "internalType": "address",
          "name": "pool",
          "type": "address"
        },
        {
          "internalType": "uint256",
          "name": "amount",
          "type": "uint256"
        }
      ],
      "name": "getNewConcentration",
      "outputs": [
        {
          "internalType": "uint256",
          "name": "",
          "type": "uint256"
        }
      ],
      "stateMutability": "view",
      "type": "function"
    },
    {
      "inputs": [],
      "name": "getTotalAUMinUSD",
      "outputs": [
        {
          "internalType": "uint256",
          "name": "",
          "type": "uint256"
        }
      ],
      "stateMutability": "view",
      "type": "function"
    },
    {
      "inputs": [
        {
          "internalType": "uint256",
          "name": "_amount",
          "type": "uint256"
        }
      ],
      "name": "liquidityCheck",
      "outputs": [
        {
          "components": [
            {
              "internalType": "address",
              "name": "pool",
              "type": "address"
            },
            {
              "internalType": "uint256",
              "name": "amt",
              "type": "uint256"
            }
          ],
          "internalType": "struct Registry.Rebalancing[]",
          "name": "",
          "type": "tuple[]"
        }
      ],
      "stateMutability": "view",
      "type": "function"
    },
    {
      "inputs": [],
      "name": "owner",
      "outputs": [
        {
          "internalType": "address",
          "name": "",
          "type": "address"
        }
      ],
      "stateMutability": "view",
      "type": "function"
    },
    {
      "inputs": [
        {
          "internalType": "address",
          "name": "_factory",
          "type": "address"
        }
      ],
      "name": "setFactory",
      "outputs": [],
      "stateMutability": "nonpayable",
      "type": "function"
    },
    {
      "inputs": [
        {
          "internalType": "address",
          "name": "_pool",
          "type": "address"
        },
        {
          "internalType": "uint256",
          "name": "_target",
          "type": "uint256"
        }
      ],
      "name": "setTargetConcentration",
      "outputs": [],
      "stateMutability": "nonpayable",
      "type": "function"
    },
    {
      "inputs": [
        {
          "internalType": "uint256",
          "name": "",
          "type": "uint256"
        }
      ],
      "name": "tokenPools",
      "outputs": [
        {
          "internalType": "address",
          "name": "",
          "type": "address"
        }
      ],
      "stateMutability": "view",
      "type": "function"
    },
    {
      "inputs": [
        {
          "internalType": "address",
          "name": "",
          "type": "address"
        }
      ],
      "name": "tokenToPool",
      "outputs": [
        {
          "internalType": "address",
          "name": "",
          "type": "address"
        }
      ],
      "stateMutability": "view",
      "type": "function"
    },
    {
      "inputs": [
        {
          "internalType": "uint256",
          "name": "_amount",
          "type": "uint256"
        }
      ],
      "name": "tokensToWithdraw",
      "outputs": [
        {
          "internalType": "address[]",
          "name": "",
          "type": "address[]"
        },
        {
          "internalType": "uint256[]",
          "name": "",
          "type": "uint256[]"
        }
      ],
      "stateMutability": "view",
      "type": "function"
    }
  ],
  "bytecode": "608060405234801561001057600080fd5b50600080546001600160a01b03191633179055611147806100326000396000f3fe608060405234801561001057600080fd5b50600436106101205760003560e01c80638da5cb5b116100ad578063bccc01ba11610071578063bccc01ba146102ce578063c0f1cce5146102d6578063c45a0155146102e9578063d04238ee146102fc578063fd192d7d1461030f57600080fd5b80638da5cb5b14610243578063989796b5146102565780639a9f3e351461027f5780639b76533914610292578063ac73b1bb146102a557600080fd5b80633e85d5f0116100f45780633e85d5f0146101d25780633f41addd146101e55780635bb47808146102065780636730b68a1461021b578063675c7c711461022357600080fd5b8062c0f916146101255780631b5ac4b51461015557806329857fd1146101765780632db2088614610196575b600080fd5b610138610133366004610d3d565b610332565b6040516001600160a01b0390911681526020015b60405180910390f35b610168610163366004610d3d565b61035c565b60405190815260200161014c565b610189610184366004610d3d565b610380565b60405161014c9190610d56565b6101a96101a4366004610e3d565b61057d565b6040805183516001600160a01b031681526020938401519381019390935282015260600161014c565b6101686101e0366004610f11565b61061b565b6101f86101f3366004610d3d565b6106bc565b60405161014c929190610f33565b610219610214366004610f11565b6106d7565b005b610168610724565b610168610231366004610f11565b60056020526000908152604090205481565b600054610138906001600160a01b031681565b610138610264366004610f11565b6003602052600090815260409020546001600160a01b031681565b6101f861028d366004610d3d565b6107c3565b6102196102a0366004610fb7565b6109ed565b6101386102b3366004610f11565b6004602052600090815260409020546001600160a01b031681565b610168610add565b6101686102e4366004610ff3565b610b95565b600254610138906001600160a01b031681565b61021961030a366004610ff3565b610c4d565b61032261031d366004610d3d565b610c94565b604051901515815260200161014c565b6001818154811061034257600080fd5b6000918252602090912001546001600160a01b0316905081565b60008082121561037757610371826000611033565b92915050565b5090565b919050565b60015460609060008167ffffffffffffffff8111156103a1576103a1610db6565b6040519080825280602002602001820160405280156103e657816020015b60408051808201909152600080825260208201528152602001906001900390816103bf5790505b50905060006103f3610add565b905060006104018683611072565b905060005b848110156105725760006001828154811061042357610423611089565b600091825260208083209091015460408051631ba2f53160e01b815290516001600160a01b0390921694508492631ba2f531926004808401938290030181865afa158015610475573d6000803e3d6000fd5b505050506040513d601f19601f82011682018060405250810190610499919061109f565b6001600160a01b038316600090815260056020526040812054919250620f42406104c383886110b8565b6104cd91906110d7565b9050808311156105265760006104e38285611072565b90506040518060400160405280866001600160a01b031681526020018281525089878151811061051557610515611089565b602002602001018190525050610563565b6040518060400160405280856001600160a01b03168152602001600081525088868151811061055757610557611089565b60200260200101819052505b84600101945050505050610406565b509195945050505050565b604080518082019091526000808252602082015281516000908180805b838110156105f3578681815181106105b4576105b4611089565b6020026020010151602001518310156105eb578681815181106105d9576105d9611089565b60200260200101516020015192508091505b60010161059a565b5085818151811061060657610606611089565b60200260200101518194509450505050915091565b600080610626610add565b90506000836001600160a01b0316631ba2f5316040518163ffffffff1660e01b8152600401602060405180830381865afa158015610668573d6000803e3d6000fd5b505050506040513d601f19601f8201168201806040525081019061068c919061109f565b905081156106b157816106a2620f4240836110b8565b6106ac91906110d7565b6106b4565b60005b949350505050565b6060806000806106cb856107c3565b90969095509350505050565b6000546001600160a01b031633146107025760405163da476dd760e01b815260040160405180910390fd5b600280546001600160a01b0319166001600160a01b0392909216919091179055565b6001546000908190815b818110156107bb5760006001828154811061074b5761074b611089565b60009182526020822001546001600160a01b0316915061076a8261061b565b6001600160a01b038316600090815260056020526040812054919250906107919083611033565b9050600061079e8261035c565b90506107aa81886110f9565b96508460010194505050505061072e565b509092915050565b60608060006107d184610380565b805190915060008167ffffffffffffffff8111156107f1576107f1610db6565b60405190808252806020026020018201604052801561081a578160200160208202803683370190505b50905060008267ffffffffffffffff81111561083857610838610db6565b604051908082528060200260200182016040528015610861578160200160208202803683370190505b5090506000805b848110156109df5760008061087c8861057d565b915091508a8410801561089d57508a82602001518561089b91906110f9565b115b1561092d576108ac848c611072565b8584815181106108be576108be611089565b60200260200101818152505081600001518684815181106108e1576108e1611089565b60200260200101906001600160a01b031690816001600160a01b03168152505084838151811061091357610913611089565b60200260200101518461092691906110f9565b93506109d5565b8a8410801561094b57508a82602001518561094891906110f9565b11155b156109d557816020015185848151811061096757610967611089565b602002602001018181525050816000015186848151811061098a5761098a611089565b6001600160a01b039092166020928302919091018201528201516109ae90856110f9565b935060008882815181106109c4576109c4611089565b602002602001015160200181815250505b5050600101610868565b509197909650945050505050565b6002546001600160a01b03163314610a575760405162461bcd60e51b8152602060048201526024808201527f4f6e6c792074686520666163746f72792063616e2061646420746f6b656e20706044820152636f6f6c7360e01b606482015260840160405180910390fd5b600180548082019091557fb10e2d527612073b26eecdfd717e6a320cf44b4afac2b0732d9fcbe2b7fa0cf60180546001600160a01b039485166001600160a01b0319918216811790925592909316600081815260036020908152604080832080548716881790559582526004815285822080549095169092179093556005905291902055565b6001546000908190815b818110156107bb57600060018281548110610b0457610b04611089565b600091825260208083209091015460408051631ba2f53160e01b815290516001600160a01b0390921694508492631ba2f531926004808401938290030181865afa158015610b56573d6000803e3d6000fd5b505050506040513d601f19601f82011682018060405250810190610b7a919061109f565b9050610b8681866110f9565b94508260010192505050610ae7565b60008082610ba1610add565b610bab91906110f9565b9050600083856001600160a01b0316631ba2f5316040518163ffffffff1660e01b8152600401602060405180830381865afa158015610bee573d6000803e3d6000fd5b505050506040513d601f19601f82011682018060405250810190610c12919061109f565b610c1c91906110f9565b90508115610c415781610c32620f4240836110b8565b610c3c91906110d7565b610c44565b60005b95945050505050565b6000546001600160a01b03163314610c785760405163da476dd760e01b815260040160405180910390fd5b6001600160a01b03909116600090815260056020526040902055565b600154600090815b81811015610d3357600060018281548110610cb957610cb9611089565b60009182526020822001546001600160a01b03169150610cd88261061b565b6001600160a01b03831660009081526005602052604081205491925090610cff9083611033565b90506000610d0c8261035c565b905087811115610d2457506001979650505050505050565b84600101945050505050610c9c565b5060009392505050565b600060208284031215610d4f57600080fd5b5035919050565b602080825282518282018190526000919060409081850190868401855b82811015610da957610d9984835180516001600160a01b03168252602090810151910152565b9284019290850190600101610d73565b5091979650505050505050565b634e487b7160e01b600052604160045260246000fd5b6040805190810167ffffffffffffffff81118282101715610def57610def610db6565b60405290565b604051601f8201601f1916810167ffffffffffffffff81118282101715610e1e57610e1e610db6565b604052919050565b80356001600160a01b038116811461037b57600080fd5b60006020808385031215610e5057600080fd5b823567ffffffffffffffff80821115610e6857600080fd5b818501915085601f830112610e7c57600080fd5b813581811115610e8e57610e8e610db6565b610e9c848260051b01610df5565b818152848101925060069190911b830184019087821115610ebc57600080fd5b928401925b81841015610f065760408489031215610eda5760008081fd5b610ee2610dcc565b610eeb85610e26565b81528486013586820152835260409093019291840191610ec1565b979650505050505050565b600060208284031215610f2357600080fd5b610f2c82610e26565b9392505050565b604080825283519082018190526000906020906060840190828701845b82811015610f755781516001600160a01b031684529284019290840190600101610f50565b5050508381038285015284518082528583019183019060005b81811015610faa57835183529284019291840191600101610f8e565b5090979650505050505050565b600080600060608486031215610fcc57600080fd5b610fd584610e26565b9250610fe360208501610e26565b9150604084013590509250925092565b6000806040838503121561100657600080fd5b61100f83610e26565b946020939093013593505050565b634e487b7160e01b600052601160045260246000fd5b60008083128015600160ff1b8501841216156110515761105161101d565b6001600160ff1b038401831381161561106c5761106c61101d565b50500390565b6000828210156110845761108461101d565b500390565b634e487b7160e01b600052603260045260246000fd5b6000602082840312156110b157600080fd5b5051919050565b60008160001904831182151516156110d2576110d261101d565b500290565b6000826110f457634e487b7160e01b600052601260045260246000fd5b500490565b6000821982111561110c5761110c61101d565b50019056fea2646970667358221220d7b422cfe7251daece88fb7afc2bfb5fd0ace7e8d0e5b84ac3076a1afa2141d464736f6c634300080c0033",
  "bytecodeSha1": "bccfa5de9f8a0c5ab683206547589beb40b72183",
  "compiler": {
    "evm_version": "istanbul",
    "optimizer": {
      "enabled": true,
      "runs": 200
    },
    "version": "0.8.12+commit.f00d7308"
  },
  "contractName": "Registry",
  "language": "Solidity",
  "natspec": {
    "kind": "dev",
    "methods": {
      "addTokenPool(address,address,uint256)": {
        "details": "function to add TokenPool to tokenPool array and various mappings",
        "params": {
          "_token": "- address of token",
          "_tokenPool": "- address of tokenPool",
          "concentration": "- value of target concentration "
        }
      },
      "checkDeposit(uint256)": {
        "details": "checks if any pool has a concentration more than \"percent\" % above/below target concentration",
        "params": {
          "percent": "- percent above/below target concentration "
        }
      },
      "checkWithdraw(uint256)": {
        "details": "function that takes the rebalancing array from liquidityCheck and returns the pools to withdraw from and how much to withdraw from each pool Checks total amount to be withdraw, finds pools with greatest concentration disparity and takes from those first",
        "params": {
          "_amount": "- amount to be withdrawn"
        }
      },
      "findMax((address,uint256)[])": {
        "details": "helper function that finds which pool has to have the most money withdrawn",
        "params": {
          "_rebalance": "- rebalancing array "
        }
      },
      "getConcentration(address)": {
        "details": "function to get the current concentration of a specific pool",
        "params": {
          "pool": "- pool to fnd concentration of "
        }
      },
      "getNewConcentration(address,uint256)": {
        "details": "function to get the concentration of certain pool when a certain amount is added to the pool",
        "params": {
          "amount": "- amount to be added to pool",
          "pool": "- pool to find concentration of"
        }
      },
      "getTotalAUMinUSD()": {
        "details": "function to get the total USD value of all assets in the protocol iterates through all the pools to get their usd value and adds all the values together"
      },
      "liquidityCheck(uint256)": {
        "details": "function that finds which pools need to be rebalanced through a withdraw",
        "params": {
          "_amount": "- how much usd is to be withdrawn Calculates new aum and how much money has to be added/removed from pool to reach the target concentration Checks which pool have to have money removed (and how much) and adds them to the array "
        }
      },
      "setFactory(address)": {
        "details": "function to set the factory address",
        "params": {
          "_factory": "(address of the factory)"
        }
      },
      "setTargetConcentration(address,uint256)": {
        "details": "function to update the target concentration of a specific pool ",
        "params": {
          "_pool": "- address of tokenPool",
          "_target": "- value of target concentration"
        }
      },
      "tokensToWithdraw(uint256)": {
        "details": "function to get the pools to withdraw from and the amount to withdraw from each pool",
        "params": {
          "_amount": "- amount in usd to be withdrawn"
        }
      }
    },
    "version": 1
  },
  "opcodes": "PUSH1 0x80 PUSH1 0x40 MSTORE CALLVALUE DUP1 ISZERO PUSH2 0x10 JUMPI PUSH1 0x0 DUP1 REVERT JUMPDEST POP PUSH1 0x4 CALLDATASIZE LT PUSH2 0x120 JUMPI PUSH1 0x0 CALLDATALOAD PUSH1 0xE0 SHR DUP1 PUSH4 0x8DA5CB5B GT PUSH2 0xAD JUMPI DUP1 PUSH4 0xBCCC01BA GT PUSH2 0x71 JUMPI DUP1 PUSH4 0xBCCC01BA EQ PUSH2 0x2CE JUMPI DUP1 PUSH4 0xC0F1CCE5 EQ PUSH2 0x2D6 JUMPI DUP1 PUSH4 0xC45A0155 EQ PUSH2 0x2E9 JUMPI DUP1 PUSH4 0xD04238EE EQ PUSH2 0x2FC JUMPI DUP1 PUSH4 0xFD192D7D EQ PUSH2 0x30F JUMPI PUSH1 0x0 DUP1 REVERT JUMPDEST DUP1 PUSH4 0x8DA5CB5B EQ PUSH2 0x243 JUMPI DUP1 PUSH4 0x989796B5 EQ PUSH2 0x256 JUMPI DUP1 PUSH4 0x9A9F3E35 EQ PUSH2 0x27F JUMPI DUP1 PUSH4 0x9B765339 EQ PUSH2 0x292 JUMPI DUP1 PUSH4 0xAC73B1BB EQ PUSH2 0x2A5 JUMPI PUSH1 0x0 DUP1 REVERT JUMPDEST DUP1 PUSH4 0x3E85D5F0 GT PUSH2 0xF4 JUMPI DUP1 PUSH4 0x3E85D5F0 EQ PUSH2 0x1D2 JUMPI DUP1 PUSH4 0x3F41ADDD EQ PUSH2 0x1E5 JUMPI DUP1 PUSH4 0x5BB47808 EQ PUSH2 0x206 JUMPI DUP1 PUSH4 0x6730B68A EQ PUSH2 0x21B JUMPI DUP1 PUSH4 0x675C7C71 EQ PUSH2 0x223 JUMPI PUSH1 0x0 DUP1 REVERT JUMPDEST DUP1 PUSH3 0xC0F916 EQ PUSH2 0x125 JUMPI DUP1 PUSH4 0x1B5AC4B5 EQ PUSH2 0x155 JUMPI DUP1 PUSH4 0x29857FD1 EQ PUSH2 0x176 JUMPI DUP1 PUSH4 0x2DB20886 EQ PUSH2 0x196 JUMPI JUMPDEST PUSH1 0x0 DUP1 REVERT JUMPDEST PUSH2 0x138 PUSH2 0x133 CALLDATASIZE PUSH1 0x4 PUSH2 0xD3D JUMP JUMPDEST PUSH2 0x332 JUMP JUMPDEST PUSH1 0x40 MLOAD PUSH1 0x1 PUSH1 0x1 PUSH1 0xA0 SHL SUB SWAP1 SWAP2 AND DUP2 MSTORE PUSH1 0x20 ADD JUMPDEST PUSH1 0x40 MLOAD DUP1 SWAP2 SUB SWAP1 RETURN JUMPDEST PUSH2 0x168 PUSH2 0x163 CALLDATASIZE PUSH1 0x4 PUSH2 0xD3D JUMP JUMPDEST PUSH2 0x35C JUMP JUMPDEST PUSH1 0x40 MLOAD SWAP1 DUP2 MSTORE PUSH1 0x20 ADD PUSH2 0x14C JUMP JUMPDEST PUSH2 0x189 PUSH2 0x184 CALLDATASIZE PUSH1 0x4 PUSH2 0xD3D JUMP JUMPDEST PUSH2 0x380 JUMP JUMPDEST PUSH1 0x40 MLOAD PUSH2 0x14C SWAP2 SWAP1 PUSH2 0xD56 JUMP JUMPDEST PUSH2 0x1A9 PUSH2 0x1A4 CALLDATASIZE PUSH1 0x4 PUSH2 0xE3D JUMP JUMPDEST PUSH2 0x57D JUMP JUMPDEST PUSH1 0x40 DUP1 MLOAD DUP4 MLOAD PUSH1 0x1 PUSH1 0x1 PUSH1 0xA0 SHL SUB AND DUP2 MSTORE PUSH1 0x20 SWAP4 DUP5 ADD MLOAD SWAP4 DUP2 ADD SWAP4 SWAP1 SWAP4 MSTORE DUP3 ADD MSTORE PUSH1 0x60 ADD PUSH2 0x14C JUMP JUMPDEST PUSH2 0x168 PUSH2 0x1E0 CALLDATASIZE PUSH1 0x4 PUSH2 0xF11 JUMP JUMPDEST PUSH2 0x61B JUMP JUMPDEST PUSH2 0x1F8 PUSH2 0x1F3 CALLDATASIZE PUSH1 0x4 PUSH2 0xD3D JUMP JUMPDEST PUSH2 0x6BC JUMP JUMPDEST PUSH1 0x40 MLOAD PUSH2 0x14C SWAP3 SWAP2 SWAP1 PUSH2 0xF33 JUMP JUMPDEST PUSH2 0x219 PUSH2 0x214 CALLDATASIZE PUSH1 0x4 PUSH2 0xF11 JUMP JUMPDEST PUSH2 0x6D7 JUMP JUMPDEST STOP JUMPDEST PUSH2 0x168 PUSH2 0x724 JUMP JUMPDEST PUSH2 0x168 PUSH2 0x231 CALLDATASIZE PUSH1 0x4 PUSH2 0xF11 JUMP JUMPDEST PUSH1 0x5 PUSH1 0x20 MSTORE PUSH1 0x0 SWAP1 DUP2 MSTORE PUSH1 0x40 SWAP1 KECCAK256 SLOAD DUP2 JUMP JUMPDEST PUSH1 0x0 SLOAD PUSH2 0x138 SWAP1 PUSH1 0x1 PUSH1 0x1 PUSH1 0xA0 SHL SUB AND DUP2 JUMP JUMPDEST PUSH2 0x138 PUSH2 0x264 CALLDATASIZE PUSH1 0x4 PUSH2 0xF11 JUMP JUMPDEST PUSH1 0x3 PUSH1 0x20 MSTORE PUSH1 0x0 SWAP1 DUP2 MSTORE PUSH1 0x40 SWAP1 KECCAK256 SLOAD PUSH1 0x1 PUSH1 0x1 PUSH1 0xA0 SHL SUB AND DUP2 JUMP JUMPDEST PUSH2 0x1F8 PUSH2 0x28D CALLDATASIZE PUSH1 0x4 PUSH2 0xD3D JUMP JUMPDEST PUSH2 0x7C3 JUMP JUMPDEST PUSH2 0x219 PUSH2 0x2A0 CALLDATASIZE PUSH1 0x4 PUSH2 0xFB7 JUMP JUMPDEST PUSH2 0x9ED JUMP JUMPDEST PUSH2 0x138 PUSH2 0x2B3 CALLDATASIZE PUSH1 0x4 PUSH2 0xF11 JUMP JUMPDEST PUSH1 0x4 PUSH1 0x20 MSTORE PUSH1 0x0 SWAP1 DUP2 MSTORE PUSH1 0x40 SWAP1 KECCAK256 SLOAD PUSH1 0x1 PUSH1 0x1 PUSH1 0xA0 SHL SUB AND DUP2 JUMP JUMPDEST PUSH2 0x168 PUSH2 0xADD JUMP JUMPDEST PUSH2 0x168 PUSH2 0x2E4 CALLDATASIZE PUSH1 0x4 PUSH2 0xFF3 JUMP JUMPDEST PUSH2 0xB95 JUMP JUMPDEST PUSH1 0x2 SLOAD PUSH2 0x138 SWAP1 PUSH1 0x1 PUSH1 0x1 PUSH1 0xA0 SHL SUB AND DUP2 JUMP JUMPDEST PUSH2 0x219 PUSH2 0x30A CALLDATASIZE PUSH1 0x4 PUSH2 0xFF3 JUMP JUMPDEST PUSH2 0xC4D JUMP JUMPDEST PUSH2 0x322 PUSH2 0x31D CALLDATASIZE PUSH1 0x4 PUSH2 0xD3D JUMP JUMPDEST PUSH2 0xC94 JUMP JUMPDEST PUSH1 0x40 MLOAD SWAP1 ISZERO ISZERO DUP2 MSTORE PUSH1 0x20 ADD PUSH2 0x14C JUMP JUMPDEST PUSH1 0x1 DUP2 DUP2 SLOAD DUP2 LT PUSH2 0x342 JUMPI PUSH1 0x0 DUP1 REVERT JUMPDEST PUSH1 0x0 SWAP2 DUP3 MSTORE PUSH1 0x20 SWAP1 SWAP2 KECCAK256 ADD SLOAD PUSH1 0x1 PUSH1 0x1 PUSH1 0xA0 SHL SUB AND SWAP1 POP DUP2 JUMP JUMPDEST PUSH1 0x0 DUP1 DUP3 SLT ISZERO PUSH2 0x377 JUMPI PUSH2 0x371 DUP3 PUSH1 0x0 PUSH2 0x1033 JUMP JUMPDEST SWAP3 SWAP2 POP POP JUMP JUMPDEST POP SWAP1 JUMP JUMPDEST SWAP2 SWAP1 POP JUMP JUMPDEST PUSH1 0x1 SLOAD PUSH1 0x60 SWAP1 PUSH1 0x0 DUP2 PUSH8 0xFFFFFFFFFFFFFFFF DUP2 GT ISZERO PUSH2 0x3A1 JUMPI PUSH2 0x3A1 PUSH2 0xDB6 JUMP JUMPDEST PUSH1 0x40 MLOAD SWAP1 DUP1 DUP3 MSTORE DUP1 PUSH1 0x20 MUL PUSH1 0x20 ADD DUP3 ADD PUSH1 0x40 MSTORE DUP1 ISZERO PUSH2 0x3E6 JUMPI DUP2 PUSH1 0x20 ADD JUMPDEST PUSH1 0x40 DUP1 MLOAD DUP1 DUP3 ADD SWAP1 SWAP2 MSTORE PUSH1 0x0 DUP1 DUP3 MSTORE PUSH1 0x20 DUP3 ADD MSTORE DUP2 MSTORE PUSH1 0x20 ADD SWAP1 PUSH1 0x1 SWAP1 SUB SWAP1 DUP2 PUSH2 0x3BF JUMPI SWAP1 POP JUMPDEST POP SWAP1 POP PUSH1 0x0 PUSH2 0x3F3 PUSH2 0xADD JUMP JUMPDEST SWAP1 POP PUSH1 0x0 PUSH2 0x401 DUP7 DUP4 PUSH2 0x1072 JUMP JUMPDEST SWAP1 POP PUSH1 0x0 JUMPDEST DUP5 DUP2 LT ISZERO PUSH2 0x572 JUMPI PUSH1 0x0 PUSH1 0x1 DUP3 DUP2 SLOAD DUP2 LT PUSH2 0x423 JUMPI PUSH2 0x423 PUSH2 0x1089 JUMP JUMPDEST PUSH1 0x0 SWAP2 DUP3 MSTORE PUSH1 0x20 DUP1 DUP4 KECCAK256 SWAP1 SWAP2 ADD SLOAD PUSH1 0x40 DUP1 MLOAD PUSH4 0x1BA2F531 PUSH1 0xE0 SHL DUP2 MSTORE SWAP1 MLOAD PUSH1 0x1 PUSH1 0x1 PUSH1 0xA0 SHL SUB SWAP1 SWAP3 AND SWAP5 POP DUP5 SWAP3 PUSH4 0x1BA2F531 SWAP3 PUSH1 0x4 DUP1 DUP5 ADD SWAP4 DUP3 SWAP1 SUB ADD DUP2 DUP7 GAS STATICCALL ISZERO DUP1 ISZERO PUSH2 0x475 JUMPI RETURNDATASIZE PUSH1 0x0 DUP1 RETURNDATACOPY RETURNDATASIZE PUSH1 0x0 REVERT JUMPDEST POP POP POP POP PUSH1 0x40 MLOAD RETURNDATASIZE PUSH1 0x1F NOT PUSH1 0x1F DUP3 ADD AND DUP3 ADD DUP1 PUSH1 0x40 MSTORE POP DUP2 ADD SWAP1 PUSH2 0x499 SWAP2 SWAP1 PUSH2 0x109F JUMP JUMPDEST PUSH1 0x1 PUSH1 0x1 PUSH1 0xA0 SHL SUB DUP4 AND PUSH1 0x0 SWAP1 DUP2 MSTORE PUSH1 0x5 PUSH1 0x20 MSTORE PUSH1 0x40 DUP2 KECCAK256 SLOAD SWAP2 SWAP3 POP PUSH3 0xF4240 PUSH2 0x4C3 DUP4 DUP9 PUSH2 0x10B8 JUMP JUMPDEST PUSH2 0x4CD SWAP2 SWAP1 PUSH2 0x10D7 JUMP JUMPDEST SWAP1 POP DUP1 DUP4 GT ISZERO PUSH2 0x526 JUMPI PUSH1 0x0 PUSH2 0x4E3 DUP3 DUP6 PUSH2 0x1072 JUMP JUMPDEST SWAP1 POP PUSH1 0x40 MLOAD DUP1 PUSH1 0x40 ADD PUSH1 0x40 MSTORE DUP1 DUP7 PUSH1 0x1 PUSH1 0x1 PUSH1 0xA0 SHL SUB AND DUP2 MSTORE PUSH1 0x20 ADD DUP3 DUP2 MSTORE POP DUP10 DUP8 DUP2 MLOAD DUP2 LT PUSH2 0x515 JUMPI PUSH2 0x515 PUSH2 0x1089 JUMP JUMPDEST PUSH1 0x20 MUL PUSH1 0x20 ADD ADD DUP2 SWAP1 MSTORE POP POP PUSH2 0x563 JUMP JUMPDEST PUSH1 0x40 MLOAD DUP1 PUSH1 0x40 ADD PUSH1 0x40 MSTORE DUP1 DUP6 PUSH1 0x1 PUSH1 0x1 PUSH1 0xA0 SHL SUB AND DUP2 MSTORE PUSH1 0x20 ADD PUSH1 0x0 DUP2 MSTORE POP DUP9 DUP7 DUP2 MLOAD DUP2 LT PUSH2 0x557 JUMPI PUSH2 0x557 PUSH2 0x1089 JUMP JUMPDEST PUSH1 0x20 MUL PUSH1 0x20 ADD ADD DUP2 SWAP1 MSTORE POP JUMPDEST DUP5 PUSH1 0x1 ADD SWAP5 POP POP POP POP POP PUSH2 0x406 JUMP JUMPDEST POP SWAP2 SWAP6 SWAP5 POP POP POP POP POP JUMP JUMPDEST PUSH1 0x40 DUP1 MLOAD DUP1 DUP3 ADD SWAP1 SWAP2 MSTORE PUSH1 0x0 DUP1 DUP3 MSTORE PUSH1 0x20 DUP3 ADD MSTORE DUP2 MLOAD PUSH1 0x0 SWAP1 DUP2 DUP1 DUP1 JUMPDEST DUP4 DUP2 LT ISZERO PUSH2 0x5F3 JUMPI DUP7 DUP2 DUP2 MLOAD DUP2 LT PUSH2 0x5B4 JUMPI PUSH2 0x5B4 PUSH2 0x1089 JUMP JUMPDEST PUSH1 0x20 MUL PUSH1 0x20 ADD ADD MLOAD PUSH1 0x20 ADD MLOAD DUP4 LT ISZERO PUSH2 0x5EB JUMPI DUP7 DUP2 DUP2 MLOAD DUP2 LT PUSH2 0x5D9 JUMPI PUSH2 0x5D9 PUSH2 0x1089 JUMP JUMPDEST PUSH1 0x20 MUL PUSH1 0x20 ADD ADD MLOAD PUSH1 0x20 ADD MLOAD SWAP3 POP DUP1 SWAP2 POP JUMPDEST PUSH1 0x1 ADD PUSH2 0x59A JUMP JUMPDEST POP DUP6 DUP2 DUP2 MLOAD DUP2 LT PUSH2 0x606 JUMPI PUSH2 0x606 PUSH2 0x1089 JUMP JUMPDEST PUSH1 0x20 MUL PUSH1 0x20 ADD ADD MLOAD DUP2 SWAP5 POP SWAP5 POP POP POP POP SWAP2 POP SWAP2 JUMP JUMPDEST PUSH1 0x0 DUP1 PUSH2 0x626 PUSH2 0xADD JUMP JUMPDEST SWAP1 POP PUSH1 0x0 DUP4 PUSH1 0x1 PUSH1 0x1 PUSH1 0xA0 SHL SUB AND PUSH4 0x1BA2F531 PUSH1 0x40 MLOAD DUP2 PUSH4 0xFFFFFFFF AND PUSH1 0xE0 SHL DUP2 MSTORE PUSH1 0x4 ADD PUSH1 0x20 PUSH1 0x40 MLOAD DUP1 DUP4 SUB DUP2 DUP7 GAS STATICCALL ISZERO DUP1 ISZERO PUSH2 0x668 JUMPI RETURNDATASIZE PUSH1 0x0 DUP1 RETURNDATACOPY RETURNDATASIZE PUSH1 0x0 REVERT JUMPDEST POP POP POP POP PUSH1 0x40 MLOAD RETURNDATASIZE PUSH1 0x1F NOT PUSH1 0x1F DUP3 ADD AND DUP3 ADD DUP1 PUSH1 0x40 MSTORE POP DUP2 ADD SWAP1 PUSH2 0x68C SWAP2 SWAP1 PUSH2 0x109F JUMP JUMPDEST SWAP1 POP DUP2 ISZERO PUSH2 0x6B1 JUMPI DUP2 PUSH2 0x6A2 PUSH3 0xF4240 DUP4 PUSH2 0x10B8 JUMP JUMPDEST PUSH2 0x6AC SWAP2 SWAP1 PUSH2 0x10D7 JUMP JUMPDEST PUSH2 0x6B4 JUMP JUMPDEST PUSH1 0x0 JUMPDEST SWAP5 SWAP4 POP POP POP POP JUMP JUMPDEST PUSH1 0x60 DUP1 PUSH1 0x0 DUP1 PUSH2 0x6CB DUP6 PUSH2 0x7C3 JUMP JUMPDEST SWAP1 SWAP7 SWAP1 SWAP6 POP SWAP4 POP POP POP POP JUMP JUMPDEST PUSH1 0x0 SLOAD PUSH1 0x1 PUSH1 0x1 PUSH1 0xA0 SHL SUB AND CALLER EQ PUSH2 0x702 JUMPI PUSH1 0x40 MLOAD PUSH4 0xDA476DD7 PUSH1 0xE0 SHL DUP2 MSTORE PUSH1 0x4 ADD PUSH1 0x40 MLOAD DUP1 SWAP2 SUB SWAP1 REVERT JUMPDEST PUSH1 0x2 DUP1 SLOAD PUSH1 0x1 PUSH1 0x1 PUSH1 0xA0 SHL SUB NOT AND PUSH1 0x1 PUSH1 0x1 PUSH1 0xA0 SHL SUB SWAP3 SWAP1 SWAP3 AND SWAP2 SWAP1 SWAP2 OR SWAP1 SSTORE JUMP JUMPDEST PUSH1 0x1 SLOAD PUSH1 0x0 SWAP1 DUP2 SWAP1 DUP2 JUMPDEST DUP2 DUP2 LT ISZERO PUSH2 0x7BB JUMPI PUSH1 0x0 PUSH1 0x1 DUP3 DUP2 SLOAD DUP2 LT PUSH2 0x74B JUMPI PUSH2 0x74B PUSH2 0x1089 JUMP JUMPDEST PUSH1 0x0 SWAP2 DUP3 MSTORE PUSH1 0x20 DUP3 KECCAK256 ADD SLOAD PUSH1 0x1 PUSH1 0x1 PUSH1 0xA0 SHL SUB AND SWAP2 POP PUSH2 0x76A DUP3 PUSH2 0x61B JUMP JUMPDEST PUSH1 0x1 PUSH1 0x1 PUSH1 0xA0 SHL SUB DUP4 AND PUSH1 0x0 SWAP1 DUP2 MSTORE PUSH1 0x5 PUSH1 0x20 MSTORE PUSH1 0x40 DUP2 KECCAK256 SLOAD SWAP2 SWAP3 POP SWAP1 PUSH2 0x791 SWAP1 DUP4 PUSH2 0x1033 JUMP JUMPDEST SWAP1 POP PUSH1 0x0 PUSH2 0x79E DUP3 PUSH2 0x35C JUMP JUMPDEST SWAP1 POP PUSH2 0x7AA DUP2 DUP9 PUSH2 0x10F9 JUMP JUMPDEST SWAP7 POP DUP5 PUSH1 0x1 ADD SWAP5 POP POP POP POP POP PUSH2 0x72E JUMP JUMPDEST POP SWAP1 SWAP3 SWAP2 POP POP JUMP JUMPDEST PUSH1 0x60 DUP1 PUSH1 0x0 PUSH2 0x7D1 DUP5 PUSH2 0x380 JUMP JUMPDEST DUP1 MLOAD SWAP1 SWAP2 POP PUSH1 0x0 DUP2 PUSH8 0xFFFFFFFFFFFFFFFF DUP2 GT ISZERO PUSH2 0x7F1 JUMPI PUSH2 0x7F1 PUSH2 0xDB6 JUMP JUMPDEST PUSH1 0x40 MLOAD SWAP1 DUP1 DUP3 MSTORE DUP1 PUSH1 0x20 MUL PUSH1 0x20 ADD DUP3 ADD PUSH1 0x40 MSTORE DUP1 ISZERO PUSH2 0x81A JUMPI DUP2 PUSH1 0x20 ADD PUSH1 0x20 DUP3 MUL DUP1 CALLDATASIZE DUP4 CALLDATACOPY ADD SWAP1 POP JUMPDEST POP SWAP1 POP PUSH1 0x0 DUP3 PUSH8 0xFFFFFFFFFFFFFFFF DUP2 GT ISZERO PUSH2 0x838 JUMPI PUSH2 0x838 PUSH2 0xDB6 JUMP JUMPDEST PUSH1 0x40 MLOAD SWAP1 DUP1 DUP3 MSTORE DUP1 PUSH1 0x20 MUL PUSH1 0x20 ADD DUP3 ADD PUSH1 0x40 MSTORE DUP1 ISZERO PUSH2 0x861 JUMPI DUP2 PUSH1 0x20 ADD PUSH1 0x20 DUP3 MUL DUP1 CALLDATASIZE DUP4 CALLDATACOPY ADD SWAP1 POP JUMPDEST POP SWAP1 POP PUSH1 0x0 DUP1 JUMPDEST DUP5 DUP2 LT ISZERO PUSH2 0x9DF JUMPI PUSH1 0x0 DUP1 PUSH2 0x87C DUP9 PUSH2 0x57D JUMP JUMPDEST SWAP2 POP SWAP2 POP DUP11 DUP5 LT DUP1 ISZERO PUSH2 0x89D JUMPI POP DUP11 DUP3 PUSH1 0x20 ADD MLOAD DUP6 PUSH2 0x89B SWAP2 SWAP1 PUSH2 0x10F9 JUMP JUMPDEST GT JUMPDEST ISZERO PUSH2 0x92D JUMPI PUSH2 0x8AC DUP5 DUP13 PUSH2 0x1072 JUMP JUMPDEST DUP6 DUP5 DUP2 MLOAD DUP2 LT PUSH2 0x8BE JUMPI PUSH2 0x8BE PUSH2 0x1089 JUMP JUMPDEST PUSH1 0x20 MUL PUSH1 0x20 ADD ADD DUP2 DUP2 MSTORE POP POP DUP2 PUSH1 0x0 ADD MLOAD DUP7 DUP5 DUP2 MLOAD DUP2 LT PUSH2 0x8E1 JUMPI PUSH2 0x8E1 PUSH2 0x1089 JUMP JUMPDEST PUSH1 0x20 MUL PUSH1 0x20 ADD ADD SWAP1 PUSH1 0x1 PUSH1 0x1 PUSH1 0xA0 SHL SUB AND SWAP1 DUP2 PUSH1 0x1 PUSH1 0x1 PUSH1 0xA0 SHL SUB AND DUP2 MSTORE POP POP DUP5 DUP4 DUP2 MLOAD DUP2 LT PUSH2 0x913 JUMPI PUSH2 0x913 PUSH2 0x1089 JUMP JUMPDEST PUSH1 0x20 MUL PUSH1 0x20 ADD ADD MLOAD DUP5 PUSH2 0x926 SWAP2 SWAP1 PUSH2 0x10F9 JUMP JUMPDEST SWAP4 POP PUSH2 0x9D5 JUMP JUMPDEST DUP11 DUP5 LT DUP1 ISZERO PUSH2 0x94B JUMPI POP DUP11 DUP3 PUSH1 0x20 ADD MLOAD DUP6 PUSH2 0x948 SWAP2 SWAP1 PUSH2 0x10F9 JUMP JUMPDEST GT ISZERO JUMPDEST ISZERO PUSH2 0x9D5 JUMPI DUP2 PUSH1 0x20 ADD MLOAD DUP6 DUP5 DUP2 MLOAD DUP2 LT PUSH2 0x967 JUMPI PUSH2 0x967 PUSH2 0x1089 JUMP JUMPDEST PUSH1 0x20 MUL PUSH1 0x20 ADD ADD DUP2 DUP2 MSTORE POP POP DUP2 PUSH1 0x0 ADD MLOAD DUP7 DUP5 DUP2 MLOAD DUP2 LT PUSH2 0x98A JUMPI PUSH2 0x98A PUSH2 0x1089 JUMP JUMPDEST PUSH1 0x1 PUSH1 0x1 PUSH1 0xA0 SHL SUB SWAP1 SWAP3 AND PUSH1 0x20 SWAP3 DUP4 MUL SWAP2 SWAP1 SWAP2 ADD DUP3 ADD MSTORE DUP3 ADD MLOAD PUSH2 0x9AE SWAP1 DUP6 PUSH2 0x10F9 JUMP JUMPDEST SWAP4 POP PUSH1 0x0 DUP9 DUP3 DUP2 MLOAD DUP2 LT PUSH2 0x9C4 JUMPI PUSH2 0x9C4 PUSH2 0x1089 JUMP JUMPDEST PUSH1 0x20 MUL PUSH1 0x20 ADD ADD MLOAD PUSH1 0x20 ADD DUP2 DUP2 MSTORE POP POP JUMPDEST POP POP PUSH1 0x1 ADD PUSH2 0x868 JUMP JUMPDEST POP SWAP2 SWAP8 SWAP1 SWAP7 POP SWAP5 POP POP POP POP POP JUMP JUMPDEST PUSH1 0x2 SLOAD PUSH1 0x1 PUSH1 0x1 PUSH1 0xA0 SHL SUB AND CALLER EQ PUSH2 0xA57 JUMPI PUSH1 0x40 MLOAD PUSH3 0x461BCD PUSH1 0xE5 SHL DUP2 MSTORE PUSH1 0x20 PUSH1 0x4 DUP3 ADD MSTORE PUSH1 0x24 DUP1 DUP3 ADD MSTORE PUSH32 0x4F6E6C792074686520666163746F72792063616E2061646420746F6B656E2070 PUSH1 0x44 DUP3 ADD MSTORE PUSH4 0x6F6F6C73 PUSH1 0xE0 SHL PUSH1 0x64 DUP3 ADD MSTORE PUSH1 0x84 ADD PUSH1 0x40 MLOAD DUP1 SWAP2 SUB SWAP1 REVERT JUMPDEST PUSH1 0x1 DUP1 SLOAD DUP1 DUP3 ADD SWAP1 SWAP2 SSTORE PUSH32 0xB10E2D527612073B26EECDFD717E6A320CF44B4AFAC2B0732D9FCBE2B7FA0CF6 ADD DUP1 SLOAD PUSH1 0x1 PUSH1 0x1 PUSH1 0xA0 SHL SUB SWAP5 DUP6 AND PUSH1 0x1 PUSH1 0x1 PUSH1 0xA0 SHL SUB NOT SWAP2 DUP3 AND DUP2 OR SWAP1 SWAP3 SSTORE SWAP3 SWAP1 SWAP4 AND PUSH1 0x0 DUP2 DUP2 MSTORE PUSH1 0x3 PUSH1 0x20 SWAP1 DUP2 MSTORE PUSH1 0x40 DUP1 DUP4 KECCAK256 DUP1 SLOAD DUP8 AND DUP9 OR SWAP1 SSTORE SWAP6 DUP3 MSTORE PUSH1 0x4 DUP2 MSTORE DUP6 DUP3 KECCAK256 DUP1 SLOAD SWAP1 SWAP6 AND SWAP1 SWAP3 OR SWAP1 SWAP4 SSTORE PUSH1 0x5 SWAP1 MSTORE SWAP2 SWAP1 KECCAK256 SSTORE JUMP JUMPDEST PUSH1 0x1 SLOAD PUSH1 0x0 SWAP1 DUP2 SWAP1 DUP2 JUMPDEST DUP2 DUP2 LT ISZERO PUSH2 0x7BB JUMPI PUSH1 0x0 PUSH1 0x1 DUP3 DUP2 SLOAD DUP2 LT PUSH2 0xB04 JUMPI PUSH2 0xB04 PUSH2 0x1089 JUMP JUMPDEST PUSH1 0x0 SWAP2 DUP3 MSTORE PUSH1 0x20 DUP1 DUP4 KECCAK256 SWAP1 SWAP2 ADD SLOAD PUSH1 0x40 DUP1 MLOAD PUSH4 0x1BA2F531 PUSH1 0xE0 SHL DUP2 MSTORE SWAP1 MLOAD PUSH1 0x1 PUSH1 0x1 PUSH1 0xA0 SHL SUB SWAP1 SWAP3 AND SWAP5 POP DUP5 SWAP3 PUSH4 0x1BA2F531 SWAP3 PUSH1 0x4 DUP1 DUP5 ADD SWAP4 DUP3 SWAP1 SUB ADD DUP2 DUP7 GAS STATICCALL ISZERO DUP1 ISZERO PUSH2 0xB56 JUMPI RETURNDATASIZE PUSH1 0x0 DUP1 RETURNDATACOPY RETURNDATASIZE PUSH1 0x0 REVERT JUMPDEST POP POP POP POP PUSH1 0x40 MLOAD RETURNDATASIZE PUSH1 0x1F NOT PUSH1 0x1F DUP3 ADD AND DUP3 ADD DUP1 PUSH1 0x40 MSTORE POP DUP2 ADD SWAP1 PUSH2 0xB7A SWAP2 SWAP1 PUSH2 0x109F JUMP JUMPDEST SWAP1 POP PUSH2 0xB86 DUP2 DUP7 PUSH2 0x10F9 JUMP JUMPDEST SWAP5 POP DUP3 PUSH1 0x1 ADD SWAP3 POP POP POP PUSH2 0xAE7 JUMP JUMPDEST PUSH1 0x0 DUP1 DUP3 PUSH2 0xBA1 PUSH2 0xADD JUMP JUMPDEST PUSH2 0xBAB SWAP2 SWAP1 PUSH2 0x10F9 JUMP JUMPDEST SWAP1 POP PUSH1 0x0 DUP4 DUP6 PUSH1 0x1 PUSH1 0x1 PUSH1 0xA0 SHL SUB AND PUSH4 0x1BA2F531 PUSH1 0x40 MLOAD DUP2 PUSH4 0xFFFFFFFF AND PUSH1 0xE0 SHL DUP2 MSTORE PUSH1 0x4 ADD PUSH1 0x20 PUSH1 0x40 MLOAD DUP1 DUP4 SUB DUP2 DUP7 GAS STATICCALL ISZERO DUP1 ISZERO PUSH2 0xBEE JUMPI RETURNDATASIZE PUSH1 0x0 DUP1 RETURNDATACOPY RETURNDATASIZE PUSH1 0x0 REVERT JUMPDEST POP POP POP POP PUSH1 0x40 MLOAD RETURNDATASIZE PUSH1 0x1F NOT PUSH1 0x1F DUP3 ADD AND DUP3 ADD DUP1 PUSH1 0x40 MSTORE POP DUP2 ADD SWAP1 PUSH2 0xC12 SWAP2 SWAP1 PUSH2 0x109F JUMP JUMPDEST PUSH2 0xC1C SWAP2 SWAP1 PUSH2 0x10F9 JUMP JUMPDEST SWAP1 POP DUP2 ISZERO PUSH2 0xC41 JUMPI DUP2 PUSH2 0xC32 PUSH3 0xF4240 DUP4 PUSH2 0x10B8 JUMP JUMPDEST PUSH2 0xC3C SWAP2 SWAP1 PUSH2 0x10D7 JUMP JUMPDEST PUSH2 0xC44 JUMP JUMPDEST PUSH1 0x0 JUMPDEST SWAP6 SWAP5 POP POP POP POP POP JUMP JUMPDEST PUSH1 0x0 SLOAD PUSH1 0x1 PUSH1 0x1 PUSH1 0xA0 SHL SUB AND CALLER EQ PUSH2 0xC78 JUMPI PUSH1 0x40 MLOAD PUSH4 0xDA476DD7 PUSH1 0xE0 SHL DUP2 MSTORE PUSH1 0x4 ADD PUSH1 0x40 MLOAD DUP1 SWAP2 SUB SWAP1 REVERT JUMPDEST PUSH1 0x1 PUSH1 0x1 PUSH1 0xA0 SHL SUB SWAP1 SWAP2 AND PUSH1 0x0 SWAP1 DUP2 MSTORE PUSH1 0x5 PUSH1 0x20 MSTORE PUSH1 0x40 SWAP1 KECCAK256 SSTORE JUMP JUMPDEST PUSH1 0x1 SLOAD PUSH1 0x0 SWAP1 DUP2 JUMPDEST DUP2 DUP2 LT ISZERO PUSH2 0xD33 JUMPI PUSH1 0x0 PUSH1 0x1 DUP3 DUP2 SLOAD DUP2 LT PUSH2 0xCB9 JUMPI PUSH2 0xCB9 PUSH2 0x1089 JUMP JUMPDEST PUSH1 0x0 SWAP2 DUP3 MSTORE PUSH1 0x20 DUP3 KECCAK256 ADD SLOAD PUSH1 0x1 PUSH1 0x1 PUSH1 0xA0 SHL SUB AND SWAP2 POP PUSH2 0xCD8 DUP3 PUSH2 0x61B JUMP JUMPDEST PUSH1 0x1 PUSH1 0x1 PUSH1 0xA0 SHL SUB DUP4 AND PUSH1 0x0 SWAP1 DUP2 MSTORE PUSH1 0x5 PUSH1 0x20 MSTORE PUSH1 0x40 DUP2 KECCAK256 SLOAD SWAP2 SWAP3 POP SWAP1 PUSH2 0xCFF SWAP1 DUP4 PUSH2 0x1033 JUMP JUMPDEST SWAP1 POP PUSH1 0x0 PUSH2 0xD0C DUP3 PUSH2 0x35C JUMP JUMPDEST SWAP1 POP DUP8 DUP2 GT ISZERO PUSH2 0xD24 JUMPI POP PUSH1 0x1 SWAP8 SWAP7 POP POP POP POP POP POP POP JUMP JUMPDEST DUP5 PUSH1 0x1 ADD SWAP5 POP POP POP POP POP PUSH2 0xC9C JUMP JUMPDEST POP PUSH1 0x0 SWAP4 SWAP3 POP POP POP JUMP JUMPDEST PUSH1 0x0 PUSH1 0x20 DUP3 DUP5 SUB SLT ISZERO PUSH2 0xD4F JUMPI PUSH1 0x0 DUP1 REVERT JUMPDEST POP CALLDATALOAD SWAP2 SWAP1 POP JUMP JUMPDEST PUSH1 0x20 DUP1 DUP3 MSTORE DUP3 MLOAD DUP3 DUP3 ADD DUP2 SWAP1 MSTORE PUSH1 0x0 SWAP2 SWAP1 PUSH1 0x40 SWAP1 DUP2 DUP6 ADD SWAP1 DUP7 DUP5 ADD DUP6 JUMPDEST DUP3 DUP2 LT ISZERO PUSH2 0xDA9 JUMPI PUSH2 0xD99 DUP5 DUP4 MLOAD DUP1 MLOAD PUSH1 0x1 PUSH1 0x1 PUSH1 0xA0 SHL SUB AND DUP3 MSTORE PUSH1 0x20 SWAP1 DUP2 ADD MLOAD SWAP2 ADD MSTORE JUMP JUMPDEST SWAP3 DUP5 ADD SWAP3 SWAP1 DUP6 ADD SWAP1 PUSH1 0x1 ADD PUSH2 0xD73 JUMP JUMPDEST POP SWAP2 SWAP8 SWAP7 POP POP POP POP POP POP POP JUMP JUMPDEST PUSH4 0x4E487B71 PUSH1 0xE0 SHL PUSH1 0x0 MSTORE PUSH1 0x41 PUSH1 0x4 MSTORE PUSH1 0x24 PUSH1 0x0 REVERT JUMPDEST PUSH1 0x40 DUP1 MLOAD SWAP1 DUP2 ADD PUSH8 0xFFFFFFFFFFFFFFFF DUP2 GT DUP3 DUP3 LT OR ISZERO PUSH2 0xDEF JUMPI PUSH2 0xDEF PUSH2 0xDB6 JUMP JUMPDEST PUSH1 0x40 MSTORE SWAP1 JUMP JUMPDEST PUSH1 0x40 MLOAD PUSH1 0x1F DUP3 ADD PUSH1 0x1F NOT AND DUP2 ADD PUSH8 0xFFFFFFFFFFFFFFFF DUP2 GT DUP3 DUP3 LT OR ISZERO PUSH2 0xE1E JUMPI PUSH2 0xE1E PUSH2 0xDB6 JUMP JUMPDEST PUSH1 0x40 MSTORE SWAP2 SWAP1 POP JUMP JUMPDEST DUP1 CALLDATALOAD PUSH1 0x1 PUSH1 0x1 PUSH1 0xA0 SHL SUB DUP2 AND DUP2 EQ PUSH2 0x37B JUMPI PUSH1 0x0 DUP1 REVERT JUMPDEST PUSH1 0x0 PUSH1 0x20 DUP1 DUP4 DUP6 SUB SLT ISZERO PUSH2 0xE50 JUMPI PUSH1 0x0 DUP1 REVERT JUMPDEST DUP3 CALLDATALOAD PUSH8 0xFFFFFFFFFFFFFFFF DUP1 DUP3 GT ISZERO PUSH2 0xE68 JUMPI PUSH1 0x0 DUP1 REVERT JUMPDEST DUP2 DUP6 ADD SWAP2 POP DUP6 PUSH1 0x1F DUP4 ADD SLT PUSH2 0xE7C JUMPI PUSH1 0x0 DUP1 REVERT JUMPDEST DUP2 CALLDATALOAD DUP2 DUP2 GT ISZERO PUSH2 0xE8E JUMPI PUSH2 0xE8E PUSH2 0xDB6 JUMP JUMPDEST PUSH2 0xE9C DUP5 DUP3 PUSH1 0x5 SHL ADD PUSH2 0xDF5 JUMP JUMPDEST DUP2 DUP2 MSTORE DUP5 DUP2 ADD SWAP3 POP PUSH1 0x6 SWAP2 SWAP1 SWAP2 SHL DUP4 ADD DUP5 ADD SWAP1 DUP8 DUP3 GT ISZERO PUSH2 0xEBC JUMPI PUSH1 0x0 DUP1 REVERT JUMPDEST SWAP3 DUP5 ADD SWAP3 JUMPDEST DUP2 DUP5 LT ISZERO PUSH2 0xF06 JUMPI PUSH1 0x40 DUP5 DUP10 SUB SLT ISZERO PUSH2 0xEDA JUMPI PUSH1 0x0 DUP1 DUP2 REVERT JUMPDEST PUSH2 0xEE2 PUSH2 0xDCC JUMP JUMPDEST PUSH2 0xEEB DUP6 PUSH2 0xE26 JUMP JUMPDEST DUP2 MSTORE DUP5 DUP7 ADD CALLDATALOAD DUP7 DUP3 ADD MSTORE DUP4 MSTORE PUSH1 0x40 SWAP1 SWAP4 ADD SWAP3 SWAP2 DUP5 ADD SWAP2 PUSH2 0xEC1 JUMP JUMPDEST SWAP8 SWAP7 POP POP POP POP POP POP POP JUMP JUMPDEST PUSH1 0x0 PUSH1 0x20 DUP3 DUP5 SUB SLT ISZERO PUSH2 0xF23 JUMPI PUSH1 0x0 DUP1 REVERT JUMPDEST PUSH2 0xF2C DUP3 PUSH2 0xE26 JUMP JUMPDEST SWAP4 SWAP3 POP POP POP JUMP JUMPDEST PUSH1 0x40 DUP1 DUP3 MSTORE DUP4 MLOAD SWAP1 DUP3 ADD DUP2 SWAP1 MSTORE PUSH1 0x0 SWAP1 PUSH1 0x20 SWAP1 PUSH1 0x60 DUP5 ADD SWAP1 DUP3 DUP8 ADD DUP5 JUMPDEST DUP3 DUP2 LT ISZERO PUSH2 0xF75 JUMPI DUP2 MLOAD PUSH1 0x1 PUSH1 0x1 PUSH1 0xA0 SHL SUB AND DUP5 MSTORE SWAP3 DUP5 ADD SWAP3 SWAP1 DUP5 ADD SWAP1 PUSH1 0x1 ADD PUSH2 0xF50 JUMP JUMPDEST POP POP POP DUP4 DUP2 SUB DUP3 DUP6 ADD MSTORE DUP5 MLOAD DUP1 DUP3 MSTORE DUP6 DUP4 ADD SWAP2 DUP4 ADD SWAP1 PUSH1 0x0 JUMPDEST DUP2 DUP2 LT ISZERO PUSH2 0xFAA JUMPI DUP4 MLOAD DUP4 MSTORE SWAP3 DUP5 ADD SWAP3 SWAP2 DUP5 ADD SWAP2 PUSH1 0x1 ADD PUSH2 0xF8E JUMP JUMPDEST POP SWAP1 SWAP8 SWAP7 POP POP POP POP POP POP POP JUMP JUMPDEST PUSH1 0x0 DUP1 PUSH1 0x0 PUSH1 0x60 DUP5 DUP7 SUB SLT ISZERO PUSH2 0xFCC JUMPI PUSH1 0x0 DUP1 REVERT JUMPDEST PUSH2 0xFD5 DUP5 PUSH2 0xE26 JUMP JUMPDEST SWAP3 POP PUSH2 0xFE3 PUSH1 0x20 DUP6 ADD PUSH2 0xE26 JUMP JUMPDEST SWAP2 POP PUSH1 0x40 DUP5 ADD CALLDATALOAD SWAP1 POP SWAP3 POP SWAP3 POP SWAP3 JUMP JUMPDEST PUSH1 0x0 DUP1 PUSH1 0x40 DUP4 DUP6 SUB SLT ISZERO PUSH2 0x1006 JUMPI PUSH1 0x0 DUP1 REVERT JUMPDEST PUSH2 0x100F DUP4 PUSH2 0xE26 JUMP JUMPDEST SWAP5 PUSH1 0x20 SWAP4 SWAP1 SWAP4 ADD CALLDATALOAD SWAP4 POP POP POP JUMP JUMPDEST PUSH4 0x4E487B71 PUSH1 0xE0 SHL PUSH1 0x0 MSTORE PUSH1 0x11 PUSH1 0x4 MSTORE PUSH1 0x24 PUSH1 0x0 REVERT JUMPDEST PUSH1 0x0 DUP1 DUP4 SLT DUP1 ISZERO PUSH1 0x1 PUSH1 0xFF SHL DUP6 ADD DUP5 SLT AND ISZERO PUSH2 0x1051 JUMPI PUSH2 0x1051 PUSH2 0x101D JUMP JUMPDEST PUSH1 0x1 PUSH1 0x1 PUSH1 0xFF SHL SUB DUP5 ADD DUP4 SGT DUP2 AND ISZERO PUSH2 0x106C JUMPI PUSH2 0x106C PUSH2 0x101D JUMP JUMPDEST POP POP SUB SWAP1 JUMP JUMPDEST PUSH1 0x0 DUP3 DUP3 LT ISZERO PUSH2 0x1084 JUMPI PUSH2 0x1084 PUSH2 0x101D JUMP JUMPDEST POP SUB SWAP1 JUMP JUMPDEST PUSH4 0x4E487B71 PUSH1 0xE0 SHL PUSH1 0x0 MSTORE PUSH1 0x32 PUSH1 0x4 MSTORE PUSH1 0x24 PUSH1 0x0 REVERT JUMPDEST PUSH1 0x0 PUSH1 0x20 DUP3 DUP5 SUB SLT ISZERO PUSH2 0x10B1 JUMPI PUSH1 0x0 DUP1 REVERT JUMPDEST POP MLOAD SWAP2 SWAP1 POP JUMP JUMPDEST PUSH1 0x0 DUP2 PUSH1 0x0 NOT DIV DUP4 GT DUP3 ISZERO ISZERO AND ISZERO PUSH2 0x10D2 JUMPI PUSH2 0x10D2 PUSH2 0x101D JUMP JUMPDEST POP MUL SWAP1 JUMP JUMPDEST PUSH1 0x0 DUP3 PUSH2 0x10F4 JUMPI PUSH4 0x4E487B71 PUSH1 0xE0 SHL PUSH1 0x0 MSTORE PUSH1 0x12 PUSH1 0x4 MSTORE PUSH1 0x24 PUSH1 0x0 REVERT JUMPDEST POP DIV SWAP1 JUMP JUMPDEST PUSH1 0x0 DUP3 NOT DUP3 GT ISZERO PUSH2 0x110C JUMPI PUSH2 0x110C PUSH2 0x101D JUMP JUMPDEST POP ADD SWAP1 JUMP INVALID LOG2 PUSH5 0x6970667358 0x22 SLT KECCAK256 0xD7 0xB4 0x22 0xCF 0xE7 0x25 SAR 0xAE 0xCE DUP9 0xFB PUSH27 0xFC2BFB5FD0ACE7E8D0E5B84AC3076A1AFA2141D464736F6C634300 ADDMOD 0xC STOP CALLER ",
  "sha1": "39c3ced16ecfd22047d383c73039905fa2799bbc",
  "source": "//SPDX-License-Identifier: MIT\npragma solidity 0.8.12;\n\nimport \"@openzeppelin/contracts/token/ERC20/IERC20.sol\";\nimport \"../interfaces/ITokenPool.sol\";\nimport \"./TokenPool.sol\";\n\ncontract Registry {\n//Variables\naddress public owner;\naddress[] public tokenPools;\naddress public factory; \nmapping (address => address) public tokenToPool;\nmapping (address => address) public PoolToToken;\nmapping (address => uint256) public PoolToConcentration;\nuint256 constant PRECISION = 1e6;\n\n\n//Structs\nstruct Rebalancing {\n    address pool;\n    uint256 amt;\n}\n\n//Errors\nerror Error_Unauthorized();\n\n//Events\nevent ReservePoolDeployed(\n        address indexed poolAddress,\n        address tokenAddress\n    );\n\n//Modifier\nmodifier onlyOwner() {\n        if (msg.sender != owner) {\n            revert Error_Unauthorized();\n        }\n        _;\n    }\n//Constructor\n    constructor(){\n       owner = msg.sender;\n    }\n\n/**\n@dev function to set the factory address\n@param _factory (address of the factory)\n */\n    function setFactory(address _factory) external onlyOwner {\n        factory = _factory;\n    }\n\n/**\n@dev function to add TokenPool to tokenPool array and various mappings\n@param _tokenPool - address of tokenPool\n@param _token - address of token\n@param concentration - value of target concentration \n */\n    function addTokenPool(address _tokenPool, address _token, uint256 concentration) public {\n        require(msg.sender == factory, \"Only the factory can add token pools\");\n        tokenPools.push(_tokenPool);\n        tokenToPool[_token] = _tokenPool;\n        PoolToToken[_tokenPool] = _token;\n        PoolToConcentration[_tokenPool] = concentration;\n    }\n\n/** \n@dev function to update the target concentration of a specific pool \n@param _pool - address of tokenPool\n@param _target - value of target concentration\n */\n    function setTargetConcentration(address _pool, uint256 _target)\n        external\n        onlyOwner\n    {\n        PoolToConcentration[_pool] = _target;\n    }\n\n/**\n@dev function to get the total USD value of all assets in the protocol\niterates through all the pools to get their usd value and adds all the values together\n */\n\n    function getTotalAUMinUSD() public view returns (uint256) {\n        uint256 total = 0;\n        uint256 len = tokenPools.length;\n        for (uint i = 0; i < len;) {\n            address pool = tokenPools[i];  \n            uint256 poolBalance = ITokenPool(pool).getPoolValue();\n            total += poolBalance;\n            unchecked{++i;}\n        }\n        return total;\n    }\n\n/** \n@dev function to get the pools to withdraw from and the amount to withdraw from each pool\n@param _amount - amount in usd to be withdrawn\n */\n    function tokensToWithdraw(uint256 _amount) public view returns (address[] memory, uint256[] memory){\n        (address[] memory pools, uint256[] memory tokenAmt) = checkWithdraw(_amount);\n        return (pools, tokenAmt);\n    }\n\n\n/**\n@dev function that finds which pools need to be rebalanced through a withdraw\n@param _amount - how much usd is to be withdrawn\nCalculates new aum and how much money has to be added/removed from pool to reach the target concentration\nChecks which pool have to have money removed (and how much) and adds them to the array \n */\n    function liquidityCheck(uint256 _amount) public view returns(Rebalancing[] memory)  {\n        uint len = tokenPools.length;\n        Rebalancing[] memory withdraw = new Rebalancing[](len);\n        uint aum = getTotalAUMinUSD();\n        uint newAUM = aum - _amount;\n        for (uint i = 0; i < len;) {\n            address pool = tokenPools[i];\n            uint256 poolBalance = ITokenPool(pool).getPoolValue();\n            uint256 target = PoolToConcentration[pool];\n            uint256 poolTarget = newAUM*target/PRECISION;\n            if(poolBalance > poolTarget){\n                uint256 amt = poolBalance - poolTarget;\n                withdraw[i]=(Rebalancing({pool: pool, amt: amt}));\n            }\n            else{\n                withdraw[i]=(Rebalancing({pool: pool, amt: 0}));\n            }\n            unchecked{++i;}\n        }\n        return withdraw;\n        }\n    \n/**\n@dev function that takes the rebalancing array from liquidityCheck and returns the pools to withdraw from\nand how much to withdraw from each pool\nChecks total amount to be withdraw, finds pools with greatest concentration disparity and takes from those first\n@param _amount - amount to be withdrawn\n */\n    function checkWithdraw(uint _amount)public view returns (address[] memory, uint256[] memory){\n        Rebalancing[] memory withdraw = liquidityCheck(_amount);\n        uint256 len = withdraw.length;\n        address[] memory pool = new address[](len);\n        uint[] memory tokenamt = new uint[](len);\n        uint total = 0;\n        for (uint i; i<len;){\n            (Rebalancing memory max, uint index) = findMax(withdraw);\n            if ((total<_amount)&&(total + max.amt > _amount)){\n                tokenamt[i]= (_amount - total);\n                pool[i] = (max.pool);\n                total += tokenamt[i];\n            }\n            else if ((total<_amount)&&(total + max.amt <= _amount)){\n                tokenamt[i] = (max.amt);\n                pool[i] = (max.pool);\n                total += max.amt;\n                 withdraw[index].amt = 0;\n            }\n            unchecked{++i;}\n           }\n        return (pool, tokenamt);\n    }\n/**\n@dev helper function that finds which pool has to have the most money withdrawn\n@param _rebalance - rebalancing array \n */\n        function findMax (Rebalancing[] memory _rebalance) public pure returns (Rebalancing memory, uint256){ \n        uint256 len = _rebalance.length;\n        uint max = 0;\n        uint index = 0;\n        for (uint i = 0; i<len;){\n            if (max < _rebalance[i].amt){\n                max = _rebalance[i].amt;\n                index = i;\n            }\n            unchecked{++i;}\n        }\n        return (_rebalance[index],index);\n    }\n/**\n@dev function to get the current concentration of a specific pool\n@param pool - pool to fnd concentration of \n */\n\n    function getConcentration(address pool) view public returns(uint){\n            uint256 total = getTotalAUMinUSD();\n            uint256 poolBalance = ITokenPool(pool).getPoolValue();       \n            return total == 0 ? 0 :poolBalance*PRECISION/total;\n        }\n/**\n@dev function to get the concentration of certain pool when a certain amount is added to the pool\n@param pool - pool to find concentration of\n@param amount - amount to be added to pool\n */\n    function getNewConcentration (address pool, uint amount) view public returns (uint){    \n            uint256 total = getTotalAUMinUSD() + amount;\n            uint256 poolBalance = ITokenPool(pool).getPoolValue() + amount;       \n            return total == 0 ? 0 : poolBalance*PRECISION/total;\n            \n        }\n/**\n@dev checks if any pool has a concentration more than \"percent\" % above/below target concentration\n@param percent - percent above/below target concentration \n */\n    function checkDeposit(uint percent) public view returns (bool){\n        uint len = tokenPools.length;\n        for (uint i = 0; i < len;) {\n            address pool = tokenPools[i];\n            uint currentConcentration = getConcentration(pool);\n            int diff = int(currentConcentration) - int(PoolToConcentration[pool]);\n            uint absdiff = abs(diff);\n            if (absdiff>percent) {\n                return (true);\n            }\n            unchecked{++i;}\n        }\n        return (false);\n    }\n    function abs (int256 x) public pure returns (uint){\n        if (x<0){\n            x = 0 - x;\n            return uint(x);\n        }\n        else{\n            return uint(x);\n        }\n    }\n    \n    function calcDeposit() public view returns (uint){\n        uint total = 0;\n        uint len = tokenPools.length;\n        for (uint i = 0; i < len;) {\n            address pool = tokenPools[i];\n            uint currentConcentration = getConcentration(pool);\n            int diff = int(currentConcentration) - int(PoolToConcentration[pool]);\n            uint absdiff = abs(diff);\n            total += absdiff;\n            unchecked {++i;}\n    } return total;}\n\n    }\n    \n\n",
  "sourcePath": "contracts/Registry.sol",
  "type": "contract"
}