{
  "abi": [
    {
      "inputs": [],
      "stateMutability": "nonpayable",
      "type": "constructor"
    },
    {
      "anonymous": false,
      "inputs": [
        {
          "indexed": true,
          "internalType": "address",
          "name": "owner",
          "type": "address"
        },
        {
          "indexed": true,
          "internalType": "address",
          "name": "approved",
          "type": "address"
        },
        {
          "indexed": true,
          "internalType": "uint256",
          "name": "tokenId",
          "type": "uint256"
        }
      ],
      "name": "Approval",
      "type": "event"
    },
    {
      "anonymous": false,
      "inputs": [
        {
          "indexed": true,
          "internalType": "address",
          "name": "owner",
          "type": "address"
        },
        {
          "indexed": true,
          "internalType": "address",
          "name": "operator",
          "type": "address"
        },
        {
          "indexed": false,
          "internalType": "bool",
          "name": "approved",
          "type": "bool"
        }
      ],
      "name": "ApprovalForAll",
      "type": "event"
    },
    {
      "anonymous": false,
      "inputs": [
        {
          "indexed": true,
          "internalType": "address",
          "name": "previousOwner",
          "type": "address"
        },
        {
          "indexed": true,
          "internalType": "address",
          "name": "newOwner",
          "type": "address"
        }
      ],
      "name": "OwnershipTransferred",
      "type": "event"
    },
    {
      "anonymous": false,
      "inputs": [
        {
          "indexed": true,
          "internalType": "address",
          "name": "from",
          "type": "address"
        },
        {
          "indexed": true,
          "internalType": "address",
          "name": "to",
          "type": "address"
        },
        {
          "indexed": true,
          "internalType": "uint256",
          "name": "tokenId",
          "type": "uint256"
        }
      ],
      "name": "Transfer",
      "type": "event"
    },
    {
      "inputs": [
        {
          "internalType": "address",
          "name": "to",
          "type": "address"
        },
        {
          "internalType": "uint256",
          "name": "tokenId",
          "type": "uint256"
        }
      ],
      "name": "approve",
      "outputs": [],
      "stateMutability": "nonpayable",
      "type": "function"
    },
    {
      "inputs": [
        {
          "internalType": "address",
          "name": "owner",
          "type": "address"
        }
      ],
      "name": "balanceOf",
      "outputs": [
        {
          "internalType": "uint256",
          "name": "",
          "type": "uint256"
        }
      ],
      "stateMutability": "view",
      "type": "function"
    },
    {
      "inputs": [
        {
          "internalType": "string",
          "name": "uri",
          "type": "string"
        }
      ],
      "name": "createCertificate",
      "outputs": [
        {
          "internalType": "uint256",
          "name": "",
          "type": "uint256"
        }
      ],
      "stateMutability": "nonpayable",
      "type": "function"
    },
    {
      "inputs": [
        {
          "internalType": "uint256",
          "name": "tokenId",
          "type": "uint256"
        }
      ],
      "name": "getApproved",
      "outputs": [
        {
          "internalType": "address",
          "name": "",
          "type": "address"
        }
      ],
      "stateMutability": "view",
      "type": "function"
    },
    {
      "inputs": [
        {
          "internalType": "address",
          "name": "owner",
          "type": "address"
        },
        {
          "internalType": "address",
          "name": "operator",
          "type": "address"
        }
      ],
      "name": "isApprovedForAll",
      "outputs": [
        {
          "internalType": "bool",
          "name": "",
          "type": "bool"
        }
      ],
      "stateMutability": "view",
      "type": "function"
    },
    {
      "inputs": [],
      "name": "name",
      "outputs": [
        {
          "internalType": "string",
          "name": "",
          "type": "string"
        }
      ],
      "stateMutability": "view",
      "type": "function"
    },
    {
      "inputs": [],
      "name": "owner",
      "outputs": [
        {
          "internalType": "address",
          "name": "",
          "type": "address"
        }
      ],
      "stateMutability": "view",
      "type": "function"
    },
    {
      "inputs": [
        {
          "internalType": "uint256",
          "name": "tokenId",
          "type": "uint256"
        }
      ],
      "name": "ownerOf",
      "outputs": [
        {
          "internalType": "address",
          "name": "",
          "type": "address"
        }
      ],
      "stateMutability": "view",
      "type": "function"
    },
    {
      "inputs": [],
      "name": "renounceOwnership",
      "outputs": [],
      "stateMutability": "nonpayable",
      "type": "function"
    },
    {
      "inputs": [
        {
          "internalType": "address",
          "name": "from",
          "type": "address"
        },
        {
          "internalType": "address",
          "name": "to",
          "type": "address"
        },
        {
          "internalType": "uint256",
          "name": "tokenId",
          "type": "uint256"
        }
      ],
      "name": "safeTransferFrom",
      "outputs": [],
      "stateMutability": "nonpayable",
      "type": "function"
    },
    {
      "inputs": [
        {
          "internalType": "address",
          "name": "from",
          "type": "address"
        },
        {
          "internalType": "address",
          "name": "to",
          "type": "address"
        },
        {
          "internalType": "uint256",
          "name": "tokenId",
          "type": "uint256"
        },
        {
          "internalType": "bytes",
          "name": "data",
          "type": "bytes"
        }
      ],
      "name": "safeTransferFrom",
      "outputs": [],
      "stateMutability": "nonpayable",
      "type": "function"
    },
    {
      "inputs": [
        {
          "internalType": "address",
          "name": "operator",
          "type": "address"
        },
        {
          "internalType": "bool",
          "name": "approved",
          "type": "bool"
        }
      ],
      "name": "setApprovalForAll",
      "outputs": [],
      "stateMutability": "nonpayable",
      "type": "function"
    },
    {
      "inputs": [
        {
          "internalType": "bytes4",
          "name": "interfaceId",
          "type": "bytes4"
        }
      ],
      "name": "supportsInterface",
      "outputs": [
        {
          "internalType": "bool",
          "name": "",
          "type": "bool"
        }
      ],
      "stateMutability": "view",
      "type": "function"
    },
    {
      "inputs": [],
      "name": "symbol",
      "outputs": [
        {
          "internalType": "string",
          "name": "",
          "type": "string"
        }
      ],
      "stateMutability": "view",
      "type": "function"
    },
    {
      "inputs": [
        {
          "internalType": "uint256",
          "name": "tokenId",
          "type": "uint256"
        }
      ],
      "name": "tokenURI",
      "outputs": [
        {
          "internalType": "string",
          "name": "",
          "type": "string"
        }
      ],
      "stateMutability": "view",
      "type": "function"
    },
    {
      "inputs": [
        {
          "internalType": "address",
          "name": "from",
          "type": "address"
        },
        {
          "internalType": "address",
          "name": "to",
          "type": "address"
        },
        {
          "internalType": "uint256",
          "name": "tokenId",
          "type": "uint256"
        }
      ],
      "name": "transferFrom",
      "outputs": [],
      "stateMutability": "nonpayable",
      "type": "function"
    },
    {
      "inputs": [
        {
          "internalType": "address",
          "name": "newOwner",
          "type": "address"
        }
      ],
      "name": "transferOwnership",
      "outputs": [],
      "stateMutability": "nonpayable",
      "type": "function"
    }
  ],
  "bytecode": {
    "object": "0x60806040523480156200001157600080fd5b50604051806040016040528060088152602001671591549254d0549560c21b81525060405180604001604052806004815260200163159494d560e21b81525081600090816200006191906200018e565b5060016200007082826200018e565b5050506200008d620000876200009360201b60201c565b62000097565b6200025a565b3390565b600780546001600160a01b038381166001600160a01b0319831681179093556040519116919082907f8be0079c531659141344cd1fd0a4f28419497f9722a3daafe3b4186f6b6457e090600090a35050565b634e487b7160e01b600052604160045260246000fd5b600181811c908216806200011457607f821691505b6020821081036200013557634e487b7160e01b600052602260045260246000fd5b50919050565b601f8211156200018957600081815260208120601f850160051c81016020861015620001645750805b601f850160051c820191505b81811015620001855782815560010162000170565b5050505b505050565b81516001600160401b03811115620001aa57620001aa620000e9565b620001c281620001bb8454620000ff565b846200013b565b602080601f831160018114620001fa5760008415620001e15750858301515b600019600386901b1c1916600185901b17855562000185565b600085815260208120601f198616915b828110156200022b578886015182559484019460019091019084016200020a565b50858210156200024a5787850151600019600388901b60f8161c191681555b5050505050600190811b01905550565b6117c4806200026a6000396000f3fe608060405234801561001057600080fd5b506004361061010b5760003560e01c8063715018a6116100a2578063a22cb46511610071578063a22cb4651461021b578063b88d4fde1461022e578063c87b56dd14610241578063e985e9c514610254578063f2fde38b1461029057600080fd5b8063715018a6146101e757806374444882146101ef5780638da5cb5b1461020257806395d89b411461021357600080fd5b806323b872dd116100de57806323b872dd1461018d57806342842e0e146101a05780636352211e146101b357806370a08231146101c657600080fd5b806301ffc9a71461011057806306fdde0314610138578063081812fc1461014d578063095ea7b314610178575b600080fd5b61012361011e3660046111db565b6102a3565b60405190151581526020015b60405180910390f35b6101406102f5565b60405161012f9190611250565b61016061015b366004611263565b610387565b6040516001600160a01b03909116815260200161012f565b61018b610186366004611298565b6103ae565b005b61018b61019b3660046112c2565b6104c8565b61018b6101ae3660046112c2565b6104f9565b6101606101c1366004611263565b610514565b6101d96101d43660046112fe565b610574565b60405190815260200161012f565b61018b6105fa565b6101d96101fd3660046113a5565b61060e565b6007546001600160a01b0316610160565b61014061063f565b61018b6102293660046113ee565b61064e565b61018b61023c36600461142a565b61065d565b61014061024f366004611263565b610695565b6101236102623660046114a6565b6001600160a01b03918216600090815260056020908152604080832093909416825291909152205460ff1690565b61018b61029e3660046112fe565b6107a5565b60006001600160e01b031982166380ac58cd60e01b14806102d457506001600160e01b03198216635b5e139f60e01b145b806102ef57506301ffc9a760e01b6001600160e01b03198316145b92915050565b606060008054610304906114d9565b80601f0160208091040260200160405190810160405280929190818152602001828054610330906114d9565b801561037d5780601f106103525761010080835404028352916020019161037d565b820191906000526020600020905b81548152906001019060200180831161036057829003601f168201915b5050505050905090565b60006103928261081e565b506000908152600460205260409020546001600160a01b031690565b60006103b982610514565b9050806001600160a01b0316836001600160a01b03160361042b5760405162461bcd60e51b815260206004820152602160248201527f4552433732313a20617070726f76616c20746f2063757272656e74206f776e656044820152603960f91b60648201526084015b60405180910390fd5b336001600160a01b038216148061044757506104478133610262565b6104b95760405162461bcd60e51b815260206004820152603d60248201527f4552433732313a20617070726f76652063616c6c6572206973206e6f7420746f60448201527f6b656e206f776e6572206f7220617070726f76656420666f7220616c6c0000006064820152608401610422565b6104c3838361087d565b505050565b6104d233826108eb565b6104ee5760405162461bcd60e51b815260040161042290611513565b6104c3838383610969565b6104c38383836040518060200160405280600081525061065d565b6000818152600260205260408120546001600160a01b0316806102ef5760405162461bcd60e51b8152602060048201526018602482015277115490cdcc8c4e881a5b9d985b1a59081d1bdad95b88125160421b6044820152606401610422565b60006001600160a01b0382166105de5760405162461bcd60e51b815260206004820152602960248201527f4552433732313a2061646472657373207a65726f206973206e6f7420612076616044820152683634b21037bbb732b960b91b6064820152608401610422565b506001600160a01b031660009081526003602052604090205490565b610602610acd565b61060c6000610b27565b565b600061061e600880546001019055565b600061062960085490565b90506106353382610b79565b6102ef8184610b93565b606060018054610304906114d9565b610659338383610c26565b5050565b61066733836108eb565b6106835760405162461bcd60e51b815260040161042290611513565b61068f84848484610cf4565b50505050565b60606106a08261081e565b600082815260066020526040812080546106b9906114d9565b80601f01602080910402602001604051908101604052809291908181526020018280546106e5906114d9565b80156107325780601f1061070757610100808354040283529160200191610732565b820191906000526020600020905b81548152906001019060200180831161071557829003601f168201915b50505050509050600061075060408051602081019091526000815290565b90508051600003610762575092915050565b81511561079457808260405160200161077c929190611560565b60405160208183030381529060405292505050919050565b61079d84610d27565b949350505050565b6107ad610acd565b6001600160a01b0381166108125760405162461bcd60e51b815260206004820152602660248201527f4f776e61626c653a206e6577206f776e657220697320746865207a65726f206160448201526564647265737360d01b6064820152608401610422565b61081b81610b27565b50565b6000818152600260205260409020546001600160a01b031661081b5760405162461bcd60e51b8152602060048201526018602482015277115490cdcc8c4e881a5b9d985b1a59081d1bdad95b88125160421b6044820152606401610422565b600081815260046020526040902080546001600160a01b0319166001600160a01b03841690811790915581906108b282610514565b6001600160a01b03167f8c5be1e5ebec7d5bd14f71427d1e84f3dd0314c0f7b2291e5b200ac8c7c3b92560405160405180910390a45050565b6000806108f783610514565b9050806001600160a01b0316846001600160a01b0316148061093e57506001600160a01b0380821660009081526005602090815260408083209388168352929052205460ff165b8061079d5750836001600160a01b031661095784610387565b6001600160a01b031614949350505050565b826001600160a01b031661097c82610514565b6001600160a01b0316146109a25760405162461bcd60e51b81526004016104229061158f565b6001600160a01b038216610a045760405162461bcd60e51b8152602060048201526024808201527f4552433732313a207472616e7366657220746f20746865207a65726f206164646044820152637265737360e01b6064820152608401610422565b826001600160a01b0316610a1782610514565b6001600160a01b031614610a3d5760405162461bcd60e51b81526004016104229061158f565b600081815260046020908152604080832080546001600160a01b03199081169091556001600160a01b0387811680865260038552838620805460001901905590871680865283862080546001019055868652600290945282852080549092168417909155905184937fddf252ad1be2c89b69c2b068fc378daa952ba7f163c4a11628f55a4df523b3ef91a4505050565b6007546001600160a01b0316331461060c5760405162461bcd60e51b815260206004820181905260248201527f4f776e61626c653a2063616c6c6572206973206e6f7420746865206f776e65726044820152606401610422565b600780546001600160a01b038381166001600160a01b0319831681179093556040519116919082907f8be0079c531659141344cd1fd0a4f28419497f9722a3daafe3b4186f6b6457e090600090a35050565b610659828260405180602001604052806000815250610d9b565b6000828152600260205260409020546001600160a01b0316610c0e5760405162461bcd60e51b815260206004820152602e60248201527f45524337323155524953746f726167653a2055524920736574206f66206e6f6e60448201526d32bc34b9ba32b73a103a37b5b2b760911b6064820152608401610422565b60008281526006602052604090206104c38282611622565b816001600160a01b0316836001600160a01b031603610c875760405162461bcd60e51b815260206004820152601960248201527f4552433732313a20617070726f766520746f2063616c6c6572000000000000006044820152606401610422565b6001600160a01b03838116600081815260056020908152604080832094871680845294825291829020805460ff191686151590811790915591519182527f17307eab39ab6107e8899845ad3d59bd9653f200f220920489ca2b5937696c31910160405180910390a3505050565b610cff848484610969565b610d0b84848484610dce565b61068f5760405162461bcd60e51b8152600401610422906116e2565b6060610d328261081e565b6000610d4960408051602081019091526000815290565b90506000815111610d695760405180602001604052806000815250610d94565b80610d7384610ecf565b604051602001610d84929190611560565b6040516020818303038152906040525b9392505050565b610da58383610f62565b610db26000848484610dce565b6104c35760405162461bcd60e51b8152600401610422906116e2565b60006001600160a01b0384163b15610ec457604051630a85bd0160e11b81526001600160a01b0385169063150b7a0290610e12903390899088908890600401611734565b6020604051808303816000875af1925050508015610e4d575060408051601f3d908101601f19168201909252610e4a91810190611771565b60015b610eaa573d808015610e7b576040519150601f19603f3d011682016040523d82523d6000602084013e610e80565b606091505b508051600003610ea25760405162461bcd60e51b8152600401610422906116e2565b805181602001fd5b6001600160e01b031916630a85bd0160e11b14905061079d565b506001949350505050565b60606000610edc836110ed565b600101905060008167ffffffffffffffff811115610efc57610efc611319565b6040519080825280601f01601f191660200182016040528015610f26576020820181803683370190505b5090508181016020015b600019016f181899199a1a9b1b9c1cb0b131b232b360811b600a86061a8153600a8504945084610f3057509392505050565b6001600160a01b038216610fb85760405162461bcd60e51b815260206004820181905260248201527f4552433732313a206d696e7420746f20746865207a65726f20616464726573736044820152606401610422565b6000818152600260205260409020546001600160a01b03161561101d5760405162461bcd60e51b815260206004820152601c60248201527f4552433732313a20746f6b656e20616c7265616479206d696e746564000000006044820152606401610422565b6000818152600260205260409020546001600160a01b0316156110825760405162461bcd60e51b815260206004820152601c60248201527f4552433732313a20746f6b656e20616c7265616479206d696e746564000000006044820152606401610422565b6001600160a01b038216600081815260036020908152604080832080546001019055848352600290915280822080546001600160a01b0319168417905551839291907fddf252ad1be2c89b69c2b068fc378daa952ba7f163c4a11628f55a4df523b3ef908290a45050565b60008072184f03e93ff9f4daa797ed6e38ed64bf6a1f0160401b831061112c5772184f03e93ff9f4daa797ed6e38ed64bf6a1f0160401b830492506040015b6d04ee2d6d415b85acef81000000008310611158576d04ee2d6d415b85acef8100000000830492506020015b662386f26fc10000831061117657662386f26fc10000830492506010015b6305f5e100831061118e576305f5e100830492506008015b61271083106111a257612710830492506004015b606483106111b4576064830492506002015b600a83106102ef5760010192915050565b6001600160e01b03198116811461081b57600080fd5b6000602082840312156111ed57600080fd5b8135610d94816111c5565b60005b838110156112135781810151838201526020016111fb565b8381111561068f5750506000910152565b6000815180845261123c8160208601602086016111f8565b601f01601f19169290920160200192915050565b602081526000610d946020830184611224565b60006020828403121561127557600080fd5b5035919050565b80356001600160a01b038116811461129357600080fd5b919050565b600080604083850312156112ab57600080fd5b6112b48361127c565b946020939093013593505050565b6000806000606084860312156112d757600080fd5b6112e08461127c565b92506112ee6020850161127c565b9150604084013590509250925092565b60006020828403121561131057600080fd5b610d948261127c565b634e487b7160e01b600052604160045260246000fd5b600067ffffffffffffffff8084111561134a5761134a611319565b604051601f8501601f19908116603f0116810190828211818310171561137257611372611319565b8160405280935085815286868601111561138b57600080fd5b858560208301376000602087830101525050509392505050565b6000602082840312156113b757600080fd5b813567ffffffffffffffff8111156113ce57600080fd5b8201601f810184136113df57600080fd5b61079d8482356020840161132f565b6000806040838503121561140157600080fd5b61140a8361127c565b91506020830135801515811461141f57600080fd5b809150509250929050565b6000806000806080858703121561144057600080fd5b6114498561127c565b93506114576020860161127c565b925060408501359150606085013567ffffffffffffffff81111561147a57600080fd5b8501601f8101871361148b57600080fd5b61149a8782356020840161132f565b91505092959194509250565b600080604083850312156114b957600080fd5b6114c28361127c565b91506114d06020840161127c565b90509250929050565b600181811c908216806114ed57607f821691505b60208210810361150d57634e487b7160e01b600052602260045260246000fd5b50919050565b6020808252602d908201527f4552433732313a2063616c6c6572206973206e6f7420746f6b656e206f776e6560408201526c1c881bdc88185c1c1c9bdd9959609a1b606082015260800190565b600083516115728184602088016111f8565b8351908301906115868183602088016111f8565b01949350505050565b60208082526025908201527f4552433732313a207472616e736665722066726f6d20696e636f72726563742060408201526437bbb732b960d91b606082015260800190565b601f8211156104c357600081815260208120601f850160051c810160208610156115fb5750805b601f850160051c820191505b8181101561161a57828155600101611607565b505050505050565b815167ffffffffffffffff81111561163c5761163c611319565b6116508161164a84546114d9565b846115d4565b602080601f831160018114611685576000841561166d5750858301515b600019600386901b1c1916600185901b17855561161a565b600085815260208120601f198616915b828110156116b457888601518255948401946001909101908401611695565b50858210156116d25787850151600019600388901b60f8161c191681555b5050505050600190811b01905550565b60208082526032908201527f4552433732313a207472616e7366657220746f206e6f6e20455243373231526560408201527131b2b4bb32b91034b6b83632b6b2b73a32b960711b606082015260800190565b6001600160a01b038581168252841660208201526040810183905260806060820181905260009061176790830184611224565b9695505050505050565b60006020828403121561178357600080fd5b8151610d94816111c556fea264697066735822122041d9ba18ad75afe5c5193abbe0434d2294dee7ec163ca1e20dcf6b43afd989ce64736f6c634300080f0033",
    "linkReferences": {}
  },
  "methodIdentifiers": {
    "approve(address,uint256)": "095ea7b3",
    "balanceOf(address)": "70a08231",
    "createCertificate(string)": "74444882",
    "getApproved(uint256)": "081812fc",
    "isApprovedForAll(address,address)": "e985e9c5",
    "name()": "06fdde03",
    "owner()": "8da5cb5b",
    "ownerOf(uint256)": "6352211e",
    "renounceOwnership()": "715018a6",
    "safeTransferFrom(address,address,uint256)": "42842e0e",
    "safeTransferFrom(address,address,uint256,bytes)": "b88d4fde",
    "setApprovalForAll(address,bool)": "a22cb465",
    "supportsInterface(bytes4)": "01ffc9a7",
    "symbol()": "95d89b41",
    "tokenURI(uint256)": "c87b56dd",
    "transferFrom(address,address,uint256)": "23b872dd",
    "transferOwnership(address)": "f2fde38b"
  },
  "id": 13
}